:100000000C9420040C9448040C9448040C94480468
:100010000C9448040C9448040C9448040C94480430
:100020000C9448040C9448040C9448040C94480420
:100030000C9429130C9448040C948D130C943E14C6
:100040000C9448040C9448040C9448040C94480400
:100050000C9448040C9448040C9448040C944804F0
:100060000C9448040C9448040C9448040C944804E0
:100070000C9448040C9448040C9448040C944804D0
:100080000C9448040C9448040C9448040C944804C0
:10009000204C454E4754482020465245455A45205D
:1000A000205343414C452020204D494E2020202004
:1000B000204B455920202020204D41582020202031
:1000C0002047415445202020204348414E474500C9
:1000D000204C454E47544820204E4F544520342054
:1000E000204E4F5445203120204E4F54452035207E
:1000F000204E4F5445203220205350454544202067
:10010000204E4F54452033202047415445202000A5
:10011000204C454E47544820204C454E47544820DB
:100120002042454154532020204245415453202031
:100130002053484946542020205348494654202003
:10014000204741544520202020474154452020008D
:1001500020434C4F434B2020204348414F53202005
:100160002042504D20202020202020202020202010
:10017000204D554C542020202020202020202020BD
:10018000204449564944452020202020202020009A
:100190002054494D452020202020202020202020B0
:1001A000204555434C494445414E202020202020E5
:1001B00020352D5345512020202020202020202094
:1001C0002052414E444F4D2020202020202020004E
:1001D000900150011001D0009000000102030C0DAD
:1001E0000E0F0000000000000000000000000000F2
:1001F00001010100000002030000000001000001F5
:1002000002030405060703000102000102030203C2
:1002100004050405060705050000000000000000B5
:10022000020202020303030305050505030303039A
:1002300002010102040810204080080102040102AA
:1002400004080408102010204080207E01020000D5
:100250000000000000000000000000000000F000AE
:100260000000000000003F00000000000000F0F06F
:100270000000000000003F3F000000000000008080
:10028000F080F080000000043F043F040000F0F024
:10029000F0F0000000003F3F3F3F00000000F0F0A2
:1002A000F0F0F00000003F3F3F3F3F000000F0F063
:1002B000F0F0F0F000003F3F3F3F3F3F0000F0F024
:1002C000F0F0F0F0F0003F3F3F3F3F3F3F000000C5
:1002D00080601008000000000F304080000000081F
:1002E000106080000000008040300F00000000809F
:1002F00000C0008000000008051F05080000000085
:1003000000C0000000000002021F02020000000006
:1003100000000000000000009070000000000000DD
:1003200000000000000000020202020200000000C3
:10033000000000000000000020702000000000000D
:10034000008060180000C0300C0300000000C020D6
:10035000101020C000000F102020100F00000040DF
:1003600020F0000000000020203F2020000060104E
:10037000101010E00000203028242320000010106E
:1003800010905030000018202121211E0000000094
:10039000C020F00000000C0B08083F080000F0909F
:1003A00090909010000019202020201F0000C020F5
:1003B0001010100000001F222121211E000010102B
:1003C0001010D030000000300C03000000006090DE
:1003D0001010906000001C222121221C0000E0105F
:1003E000101010E0000019222222110F000000005E
:1003F00080C08000000000001039100000000000E4
:10040000808000000000000049390000000000006A
:1004100000804020000000020508102000008080BD
:100420008080808000000404040404040000F0E0E4
:10043000C080000000007F3F1F0F07020000601017
:100440001010906000000000003700000000C02085
:10045000905050E000000F102728282F0000C020E7
:10046000101020C000003F020202023F0000F01006
:100470001010A04000003F212121120C0000E010CC
:100480001010106000001F20202020180000F01025
:10049000101020C000003F202020100F0000F0109E
:1004A0001010101000003F21212120200000F0102A
:1004B0001010101000003F01010100000000E010CA
:1004C0001010106000001F202022123E0000F000DB
:1004D000000000F000003F010101013F000000109A
:1004E00010F0101000000020203F2020000000002D
:1004F0000010F0100000182020201F000000F00065
:100500008040201000003F01020408300000F0008D
:100510000000000000003F20202020200000F060AC
:10052000808060F000003F000101003F0000F0C04B
:10053000000000F000003F0001020C3F0000E0104E
:10054000101010E000001F202020201F0000F010DD
:10055000101010E000003F02020202010000E01053
:10056000101010E000001F242428709F0000F010DD
:10057000101010E000003F0202060A310000E010F7
:1005800010101060000018212122221C0000101001
:1005900010F0101010000000003F00000000F000FC
:1005A000000000F000001F202020201F0000F000AD
:1005B000000000F00000000738380700000000F0DD
:1005C000000000F00000001F201C201F000030C0B1
:1005D0000000C0300000300C03030C30000000703D
:1005E0008000807000000000013E0100000010103B
:1005F000109050300000302C2221202000000000FC
:10060000F808080800000000FF80808000001860E3
:100610008000000000000000030C30C00000000853
:100620000808F800000000808080FF000000201013
:10063000080810200000000000000000000000007A
:1006400000000000000080808080808000000000AA
:1006500008102000000000000000000000000080E2
:1006600080808000000019242424243F0000F00032
:100670008080800000003F112020201F00000080AB
:100680008080800000001F202020201100000080BA
:10069000808000F000001F202020113F000000801B
:1006A0008080800000001F24242424170000000004
:1006B000E0101020000001013F0101000000008057
:1006C0008080008000006798A8A8A7400000F00084
:1006D0008080800000003F010000003F000000001B
:1006E00080B0000000000020203F2020000000001B
:1006F000000080B0000000608080807F0000F0007B
:100700000000800000003F040609102000000000E7
:1007100010F0000000000020203F2020000000809A
:10072000800080000000003F001F003F00008000AC
:100730008080800000003F010000003F000000803A
:100740008080800000001F202020201F00008000EB
:10075000808080000000FF112020201F000000800A
:100760008080008000001F20202011FF00008000FA
:100770008080800000003F01000000030000008036
:100780008080800000001122242428110000808035
:10079000F0808000000000001F202010000080007A
:1007A0000000008000001F202020103F000000807B
:1007B00000000080000000030C300C0300000080EB
:1007C000000000800000001F201E201F000080008D
:1007D000000000800000310A04040A31000080009B
:1007E0000000008000004F909090887F0000808083
:1007F00080808080000020302C222120000000001A
:1008000000F0080800000000027D80800000000069
:1008100000F800000000000000FF000000000008D9
:1008200008F0000000000080807D02000000300819
:1008300010204030000000000000000000000C15F7
:1008400011241FBECFEFCDBFDFE3DEBF18E2A0E073
:10085000B8E2E2EDF4E402C005900D92AE30B107CB
:10086000D9F72BE2AEE0B8E201C01D92A03EB2077C
:10087000E1F714E0C0E2D4E004C02197FE010E9439
:10088000311DCF31D107C9F70E94AC160C94352128
:100890000C94000080E00895CF93DF93CDB7DEB7CE
:1008A0002897CDBFDEBFE0918529E150FF0BEE0F09
:1008B000FF1FED5AF44D80819181DC01ED91FC9197
:1008C0000190F081E02D40918429BE016F5F7F4F40
:1008D0000995E0918429F0E0E555FC4780818F5F20
:1008E000FE013196A82FB0E0A55AB44D9E01295FB4
:1008F0003F4F91919D93E217F307D9F78093DB2B3C
:100900002896CDBFDEBFDF91CF9108951F93CF937F
:10091000DF93CDB7DEB72597CDBFDEBF1C8221E0C8
:100920002B8389839A83E091D829F091D929118961
:100930001D82A091D829B091D929E091DC29F091AC
:10094000DD299E012F5F3F4F50964C916FE088ED5F
:1009500099E209958D818F5F8D83811750F32596DC
:10096000CDBFDEBFDF91CF911F910895CF93DF936D
:10097000E0918529E150FF0BEE0FFF1FED5AF44D7A
:10098000C081D181609184291816A4F4FE01E60F7C
:10099000F11D82899285891710F48F5F828BE8811F
:1009A000F9810280F381E02D60918429CE01DF91ED
:1009B000CF910994882361F0FE01E60FF11D828931
:1009C0009281981760F79285981748F38150E6CF87
:1009D000E881F9810680F781E02DCE010995882311
:1009E000F1F2E0918429EC0FFD2FF11D928981E055
:1009F000891BD4CF9B01DC011896ED91FC9141E05D
:100A000067E1099490E0FC01EE51FE4FE491EE2382
:100A100021F1E13021F008F1E630B0F00895845082
:100A20009E4FFC0184914091010A8C5F21E030E0EF
:100A3000B90102C0660F771F8A95E2F7CB01809556
:100A400084238093010A089570E1E79FF001112447
:100A5000E05AF54F81818F7E81830895FF920F9335
:100A60001F93CF93DF93C82FD0E0FE01E05DFD4FD1
:100A7000F4909FEFF916B1F08B018A3110F40E94C7
:100A80000205FE01EA5EFD4FA49180E2A89FD0011D
:100A90001124BC5F8C918F21A1F00115110541F447
:100AA0001696FC92DF91CF911F910F91FF900895C0
:100AB0000230110519F41796FC92F4CF1596FC92AA
:100AC000F1CFFE01E450FE4FE491109779F0EF3F33
:100AD00069F05096EA0FFB2FF11D9FB7F8948081C3
:100AE000012B39F4877F80839FBFDCCFF0E0E0E00B
:100AF000F4CF8860F8CF1F93CF93DF93C82FD0E057
:100B0000FE01E05DFD4F14911F3FB9F08A3110F4F2
:100B10000E940205CA5EDD4FFE01C491F0E2CF9F44
:100B2000E0011124DC5FE885E12381E090E009F435
:100B300080E0DF91CF911F91089580E090E0F9CFA0
:100B40008A3110F40C942E0508958A3148F590E00E
:100B5000FC01E05DFD4F24912F3F11F1FC01EA5EA5
:100B6000FD4FA49130E2A39FD0011124BC5F6130FE
:100B7000710519F411962C930895FC01E450FE4F71
:100B8000E491EF3F71F0CD014096E80FF92FF11D90
:100B90009FB7F89412962C938081886080839FBFC2
:100BA0000895F0E0E0E0F4CFCF93DF938FB7F894AF
:100BB0002091802930918129409182295091832967
:100BC000E0918A0A9091860A90FF06C02F5F3F4FFE
:100BD0004F4F5F4FE0918A0A8FBFA0917E29B0915D
:100BE0007F29C0917C29D0917D290E94B91CEC9F5E
:100BF0009001ED9F300D1124620F731F811D911D17
:100C0000DF91CF9108958F929F92AF92BF92CF9232
:100C1000DF92EF92FF924B015C010E94D4056B01C1
:100C20007C01A8EEB3E0A50194010E94B91CC60E98
:100C3000D71EE81EF91EC616D706E806F90618F4F0
:100C40000E94D405F8CF0E94D4056C157D058E0551
:100C50009F05C8F3FF90EF90DF90CF90BF90AF90CB
:100C60009F908F9008952FB7F89460917829709194
:100C7000792980917A2990917B292FBF08950C942E
:100C8000000008950F9391E090935A2910925929EA
:100C900060935729709358294093562920935529DA
:100CA000109254291092532900935229880F80934F
:100CB000512923E030E044E050E080915629882318
:100CC00041F020934F2930935029809151298E7FF4
:100CD0000BC080915529882351F040934F295093A0
:100CE00050298091512981608093A70808C0809184
:100CF0005629811104C080915529882311F38091D0
:100D000059298823E1F3809159298330B1F28091E8
:100D10005529882321F0809153290F9108959091AE
:100D2000592981E09130C9F780E0F7CFE0EAF8E097
:100D300091859066918722E030E020934F2930938F
:100D400050298093412910924029089581E0809391
:100D500040291092412993E09093AA089091AB0802
:100D600091FF10C010924D29E0913E29F0913F294A
:100D7000099580934C2985E090E080934F299093CA
:100D80005029089510924E2980934B2986E090E0D7
:100D9000F4CF8F929F92AF92BF92CF92DF92EF9259
:100DA000FF92CF93DF9360342DE0720723E0820738
:100DB000910508F44EC0611525E372072CE0820707
:100DC000910508F43FC060387F448241910508F0E6
:100DD00040C0C8E7D0E020E432E44FE050E080902B
:100DE000002890900128A0900228B0900328C50107
:100DF000B4010E94CC1C69017A018AE0C81AD108AA
:100E0000E108F108DE01A50194010E94B91C20E06F
:100E10003AEC4AE95BE30E94CC1CC21AD30AE40A0A
:100E2000F50AF694E794D794C794C092A608DF9188
:100E3000CF91FF90EF90DF90CF90BF90AF909F90B9
:100E40008F900895CCE2D1E020E83AE146E050E00E
:100E5000C6CFC8EED3E020EA36E841E050E0BFCF8D
:100E600060933C2970933D29089560933A297093CB
:100E70003B290895E0913C29F0913D29309741F0BC
:100E800010923929109238290995809138290895AE
:100E900080E00895E0913A29F0913B29309759F08C
:100EA0003091372920913629321728F010923729AE
:100EB00080933629099408950895E0913729809107
:100EC0003629E81730F4F0E0EA54F74D808190E0DD
:100ED00008958FEF9FEF08959091372980913629DB
:100EE0002FEF3FEF981748F4E92FF0E0EA54F74D61
:100EF000208130E09F5F90933729C9010895809148
:100F0000362990913729891B990B0895CF92DF924A
:100F1000EF92FF920F931F93CF93DF937C018A018F
:100F2000EB016B01C40ED51ECC15DD0551F06991A6
:100F3000D701ED91FC910190F081E02DC701099559
:100F4000F3CFC801DF91CF911F910F91FF90EF90E8
:100F5000DF90CF9008952091382927FF08C021E025
:100F600030E0FC012283338390E080E0089580919B
:100F70003929E82FF0E0EA5CF74D60838F5F8093BA
:100F800039298093382981E090E00895DC01ED91C2
:100F9000FC910688F789E02D61E009940F93809118
:100FA0004F29909150290197A1F480915A298111DC
:100FB00012C0062F20E04091382966E378E2809144
:100FC00035280E94420610923929109238290F9133
:100FD000089580E0F8CF81E0F6CF60933528109235
:100FE0003929109238290895DC01ED91FC91028C89
:100FF000F38DE02D21E009940F9386EB98E2809326
:1010000042299093432980914F299091502901972B
:10101000C1F480915A29811116C0FA014138510555
:1010200010F0E0E8F0E0022F862F2E2F40E070E075
:1010300060E00E94420610923729809336290F9172
:10104000089580E0F8CF81E0F6CFCB01BA010C948F
:10105000C906E0EAF8E01382168281E085831486EF
:10106000118610924F291092502908951092372915
:1010700010923629109239291092382980914F29DF
:1010800090915029892BD9F482E090E080934F29E8
:101090009093502910924E2910924D291092402978
:1010A000109241291092342810924B29660F6093B8
:1010B000AC0881EE8093A90881E08093A3088AE3BD
:1010C00097E080933E2990933F2986E398E28093AE
:1010D0004429909345298AE497E080934929909385
:1010E0004A2986EB98E2809346299093472980E825
:1010F000809348290895109237291092362910922A
:1011000039291092382980914F2990915029892BA3
:10111000F9F48091E30580618093E30581E090E03C
:1011200080934F299093502910925329109254295B
:1011300010925A291092592981EC8093A30860EAF1
:1011400076E881E090E00E94C90681E08093A508DE
:101150000895DC011A96ED91FC9130E020E00994AD
:10116000DC011696ED91FC9130E020E040E069E171
:101170000994DC011696ED91FC9130E020E040E00E
:1011800068E109949A01DC011696ED91FC91462FD5
:1011900067E10994EF92FF920F931F93CF93DF9330
:1011A0001F92CDB7DEB77C018B01D8016C916731FE
:1011B00029F150F46531A0F40F90DF91CF911F9188
:1011C0000F91FF90EF9008956A3118F16E3FA1F7EB
:1011D000F8014181498369E2C7010E94A9080BC057
:1011E000F80141814983D7011696ED91FC9130E0D9
:1011F00020E0C70109950E5F1F4FD7CFF80181810D
:101200008983AE014F5F5F4F61E0C7010E94C20852
:10121000F2CF0F5F1F4FD7011696ED91FC9130E092
:1012200020E040E0C7010995C0CF462FDC011696AB
:10123000ED91FC9130E020E066E10994462FDC015D
:101240001696ED91FC9130E020E065E10994EF9273
:10125000FF920F931F93CF93DF93EC01042F79013B
:101260006D3009F446C050F46B30C9F1693009F4AF
:101270009FC06A3009F465C080E046C06E3009F452
:1012800052C06F3099F70E94B908F7011381110F0E
:10129000110F110F6C89160F60E4CE010E941E0918
:1012A000612F62956F706061CE010E941E09612FEF
:1012B0006F70CE010E941509F7016481606BCE0149
:1012C0000E941509F701408151816281660F660F06
:1012D000660FCE010E94C2080150A1F72EC067E43C
:1012E00073E8442311F062E473E8CE010E94CA0857
:1012F0000AC0411110C06BE373E80E94CA08E8817C
:10130000F98182898C8B81E0DF91CF911F910F91C0
:10131000FF90EF90089564E373E80E94CA08E881A3
:10132000F9818389EFCF0E94B90861E8CE010E945C
:101330001E09602FCE010E941509CE010E94B0083F
:10134000E2CFEA85FB8530E020E040E068E2CE01B4
:101350000995EE81FF8130E020E040E064E1CE01BC
:10136000099541E06BE4CE010E94A908E881F9816A
:10137000448169E2CE010E94A90840E06BE4CE01FD
:101380000E94A908E881F981448169E2CE010E94A6
:10139000A90841E06BE4CE010E94A908E881F98127
:1013A000458169E2CE010E94A9086CE473E89DCFF3
:1013B00081E893E8888399831C8AA5CFDC0118967D
:1013C000ED91FC9130E020E040E069E10994DC011E
:1013D0001896ED91FC9130E020E040E068E109943E
:1013E000CF93DF931F92CDB7DEB76983BE016F5FE6
:1013F0007F4F0E94FA040F90DF91CF910895EF92F2
:10140000FF921F93CF93DF93EC01162F7A010E9476
:10141000E70960E4CE010E94F009E885F9859701AB
:10142000412F67E1CE010995CE01DF91CF911F9148
:10143000FF90EF900C94DE09EF92FF921F93CF93F1
:10144000DF93EC01142F7901663181F138F46431B6
:1014500009F44BC0653179F080E022C06831C9F1F0
:1014600050F16931C9F780913328882391F1CE0179
:101470000E94DE092EC080913328882319F0CE0106
:101480000E94DE09CE010E94E70960E0CE010E94C1
:10149000F009612FCE010E94F00981E0809333288A
:1014A000DF91CF911F91FF90EF900895642F0E94DC
:1014B000F00981E0F5CF80913328882319F0CE011F
:1014C0000E94DE09A701193138F4612FCE010E9474
:1014D000FF0910923328EDCF68E1CE010E94FF0989
:1014E000185188E1E80EF11CEDCF8E898F3F11F481
:1014F00088E78E8BE885F9859701412F64E1CE015D
:10150000DF91CF911F91FF90EF900994CF93DF93DC
:10151000EC01A889B989FD013491319694913196F5
:1015200084911396FD01A4916317A8F1961798F181
:10153000631B770B8A9FE02D1124E69FC001E79F74
:10154000900D1124280F392F311D83E0220F331FF6
:101550008A95E1F7C9010496DA01245F3F4FE889D3
:10156000F989E80FF91FE491ED930196821793072B
:10157000B1F78D89882361F0FA019A01285F3F4F06
:101580008191DF01119780958C932E173F07C1F74A
:10159000DF91CF910895FA01CA0108961192E817D8
:1015A000F907E1F7E6CF4F925F926F927F928F92A9
:1015B0009F92AF92BF92CF92DF92EF92FF920F93E2
:1015C0001F93CF93DF93CDB7DEB72D97CDBFDEBF8F
:1015D0007C01C62ED42EB22EDC0150968D919C91AA
:1015E000FC013296149131960491512E560E040F3F
:1015F00081E0860F581608F411E0712CFE01319637
:101600004F0144244394672CAC2C262DA4016B2D50
:10161000C7010E94860AAC86DD864B8689869A863B
:10162000D7011496ED91FC919E01275F3F4F41E059
:101630006FE0C70109956394A394A51430F3D39484
:10164000710ED01600F32D96CDBFDEBFDF91CF9186
:101650001F910F91FF90EF90DF90CF90BF90AF90D0
:101660009F908F907F906F905F904F900895262F5E
:10167000482F42954F70440F682F6F7088ED99E2A4
:101680000C94D30AE0918429F0E0E555FC476EE321
:1016900080810C94370BCF93DF93EC01683189F193
:1016A00030F4643199F0673151F080E005C0693160
:1016B000B9F16032D1F781E0DF91CF91089550E028
:1016C000B90186E899E20E948607F5CF8C859D8551
:1016D000AE85BF85892B8A2B8B2B71F4E881F9812C
:1016E000A585B0E020EA36E841E050E00E94B91C50
:1016F0006C877D878E879F8786E899E20E947B08AA
:10170000DACF6C857D858E859F850E94C9066E899E
:1017100070E07595679586E899E20E94ED07CBCF5A
:1017200086E899E20E94C607C6CF0F931F93CF9316
:10173000DF938C016C32C0F46A3208F040C068322A
:1017400069F1693209F44BC080E06034C8F16F730D
:10175000F801E60FF11D868D8F3F89F1603108F0A9
:101760005DC0642F70E057C06D3209F43FC060F374
:1017700084EB860F823040F7C62FCF73C00FD12F76
:10178000D11D8E8D411140C070E060E00E94A00527
:1017900061E070E08E8D0E94A50511C0025E1F4FB2
:1017A000D0E0F80181918F018F3F31F061E070E06E
:1017B000D03158F40E94A505DF5FD63191F781E062
:1017C000DF91CF911F910F9108950E94A50561E0CF
:1017D00070E0F801319780810E94A005EDCF642F61
:1017E00070E090E080E00E940306E9CF85E090E0A1
:1017F000433010F082E090E0880F991F880F991F06
:1018000005970197F1F7DBCF61E070E00E94A50535
:1018100061E070E08E8D0E94A005D1CF30E020E025
:101820008A3118F40E947B059C0191E0232B09F476
:1018300090E0F801918FC3CF1F93CF93DF93EC011A
:10184000EC89FD8949AD6A3059F43396E491E40F8F
:10185000E9AF18AE81E090E0DF91CF911F9108953C
:10186000262F3296149168AD04960E94D30AE8ADF3
:10187000E10FE8AFEFCFF0E0E0E06623C9F0262FFC
:101880002150330BF901F595E795DC0127E2AD0115
:10189000481B590BE417F50714F02D93F8CF319638
:1018A00060FF06C0DC01AE0FBF1F119724E22C932E
:1018B000E80FF91F20E2AF01481B590B47305105D3
:1018C00014F42193F8CF1082089581E0611180E033
:1018D00008952FEF260F253030F4FC01E60FF11D9F
:1018E00082898058828B80E00895CF92DF92EF92B8
:1018F000FF920F931F93CF93DF93EC010A8900238C
:1019000009F450C0288D30E050E040E060915C293F
:1019100070915D2980915E2990915F290E94CC1C75
:1019200069017A01672B682B692BE1F580916929A0
:10193000882309F440C0202F30E050E040E0C70188
:10194000B6010E94CC1C6F5F7F4F8E01060F171FE0
:10195000F801828987FD2FC061E070E089E00E9474
:101960002E05F801128970E060E08AE00E942E05E1
:10197000000080E38093C4088091C30887FFFCCFF8
:101980008091C40800001093C4088091C30887FFA9
:10199000FCCF8091C40861E070E08AE00E942E05CF
:1019A00081E08B8FDF91CF911F910F91FF90EF908E
:1019B000DF90CF9008958B8D8823A1F3C0906A2982
:1019C000D0906B29E0906C29F0906D29809164296A
:1019D00090916529A0916629B0916729C81AD90A02
:1019E000EA0AFB0AA98D2091602930916129409172
:1019F000622950916329B0E00E94B91C2AE030E0CE
:101A000040E050E00E94CC1CC216D306E406F50666
:101A100048F270E060E089E00E942E051B8EC2CF84
:101A2000653031F0663039F0643049F080E0089577
:101A3000FC01178AFBCF2BE3FC01208FF7CF81E05D
:101A40000895FC01653091F06630B1F0611119C064
:101A50008289DF01A45ABF4F9C91981790F4268980
:101A6000222311F0928B08958C930895808D97898D
:101A7000891738F4878B08958789908D981708F413
:101A8000808F08952F923F924F925F927F928F9214
:101A90009F92AF92BF92CF92DF92EF92FF920F93FD
:101AA0001F93CF93DF937C01742EC62FD0E08E015D
:101AB000000F111F000F111F0E0D1F1DF8012289AD
:101AC000222331F1C388D12C822E912C8489540198
:101AD000A81AB10830E050E040E060915C297091B4
:101AE0005D2980915E2990915F290E94CC1C6A0D2E
:101AF0007B1D6C9DC0016D9D900D7C9D900D1124F2
:101B0000B4010E941D1DBB24B3948C159D050CF0DF
:101B1000B12C80916929882309F1BB2069F0F80173
:101B20008589882349F061E070E0872D0E94A00537
:101B3000CE0DDF1D81E08D8FDF91CF911F910F9131
:101B4000FF90EF90DF90CF90BF90AF909F908F90DD
:101B50007F905F904F903F902F90089520906A293A
:101B600030906B2940906C2950906D2980916429A8
:101B700090916529A0916629B0916729281A390AA0
:101B80004A0A5B0AF801A5892091602930916129F0
:101B90004091622950916329B0E00E94B91C29E06C
:101BA00030E040E050E00E94CC1C22163306440690
:101BB000550610F2BB2009F4BFCFCE0DDF1D8D8D71
:101BC000882309F4B9CF70E060E0872D0E94A0055A
:101BD0001D8EB2CFCF93DF93EC0141E060E00E9415
:101BE000420D44E161E0CE01DF91CF910C94420DB2
:101BF000E62FF0E06370613061F018F0623081F040
:101C00000895E80FF91F83899289981740F4828B11
:101C100006C0E80FF91F818992898917C0F30895DA
:101C2000E80FF91F8089F8CF80918529882361F01A
:101C300080913228882319F080E00E94B60481E068
:101C4000809332280C944C0408959091852999230F
:101C5000E9F0913059F4909184299530B9F09130A0
:101C600059F490916829992339F00895943021F41A
:101C700090918429943051F09091322891110E94D2
:101C8000B60481E0809332280C944C0408951F938D
:101C9000CF93DF93CDB7DEB7C154D109CDBFDEBF3F
:101CA000182FE0918529A0918429B0E0A555BC4763
:101CB0008C91EE2339F191E49E9FF0011124E25FB3
:101CC000F54DDE01119601900D929A95E1F791E0A4
:101CD000980F492F50E0DA01A55AB44D21E030E0C9
:101CE000F901E40FF51F61E070E06C0F7D1FE60F56
:101CF000F71F60816D932F5F3F4F2730310581F7CC
:101D00009093DB2B1092322860E20E94370BE09117
:101D1000852971E4E79FF0011124E25FF54D6081B0
:101D20008091842990E0019611163CF0112351F026
:101D300080918429860F8150990B70E00E941D1DAF
:101D400080938429CF5BDF4FCDBFDEBFDF91CF9182
:101D50001F910C94420BCF92DF92EF92FF920F9360
:101D60001F93CF93DF936C01EB017B01E40EF51E13
:101D700010E000E0CE15DF0561F06991D601ED912C
:101D8000FC910190F081E02DC6010995080F191F03
:101D9000F1CFC801DF91CF911F910F91FF90EF908C
:101DA000DF90CF90089580E00895089508950895F4
:101DB000CF93DF93CDB7DEB7C154D109CDBFDEBF1E
:101DC00081E08093DB2B10928429E091852981E4C6
:101DD000E89FF0011124E25FF54D81E4DE011196E8
:101DE00001900D928A95E1F7BE016E5F7F4F8BE502
:101DF0009BE20E945C1E6EE380E0CF5BDF4FCDBFB5
:101E0000DEBFDF91CF910C94370BE0918429F0E095
:101E1000E555FC4760E280810E94370B809185295F
:101E200081110BC0809184298F5F80938529109246
:101E300032280E94D80E0C94420B10928529F7CFBD
:101E4000CF93DF93EC01CB01423009F469C038F441
:101E5000442379F04130E1F1DF91CF91089543308F
:101E600009F472C04430C1F76E89DF91CF910C94B0
:101E70003B0C2A89211124C061E174E80E945C1E98
:101E8000109268292B8930E050E040E060EC71EE60
:101E900084EE90E00E949A1C20936029309361297F
:101EA0004093622950936329C5EAD3E870E060E06B
:101EB00089910E94A00583E8CA3AD807B9F7CCCF28
:101EC00068E174E80E945C1E81E080936829ECCF91
:101ED0002B891F922F932FE134E83F932F939F93E9
:101EE0006F930E94631E0F900F900F900F900F90B2
:101EF0000F90809168298111AFCF2B8930E050E09D
:101F000040E060EC71EE84EE90E00E949A1C209319
:101F100060293093612940936229509363299CCFB3
:101F20002C891F922F9326E234E83F932F939F939F
:101F30006F930E94631E81E08D8B0F900F900F9026
:101F40000F900F900F9088CF2D891F922F932DE225
:101F500034E83F932F939F936F930E94631E81E019
:101F60008C8BEBCF9C01862F6CE00E94FD1C1F9296
:101F70008F93E92FF0E0EE0FFF1FE45EFC478181B5
:101F80008F9380818F9384E394E89F938F933F9303
:101F90002F930E94631E8DB79EB708968DBF9EBF7C
:101FA0000895CF93DF93EC01CB01463009F1473020
:101FB00089F1411134C02A891F922F932FE134E80F
:101FC0003F932F939F936F930E94631E0F900F90E8
:101FD0000F900F900F900F908A89811106C070E0CA
:101FE00060E089E00E942E051B8EDF91CF9108955D
:101FF000288D1F922F932DE334E83F932F939F93C7
:102000006F930E94631E0F900F900F900F900F9090
:102010000F90EBCF698DDF91CF910C943B0CC40FE7
:10202000D11D6A8967FF06C064E474E8DF91CF912F
:102030000C945C1EDF91CF910C94B20FCF93DF9381
:10204000EC01483048F5CB01E42FF0E0E65DFF4EAF
:102050000C94311D3210801054106D1073104F10FD
:102060007E1089102A891F922F932FE134E83F9325
:102070002F939F936F930E94631E0F900F900F906A
:102080000F900F900F908A89811106C070E060E078
:102090008EE00E942E051B8EDF91CF9108956F89EF
:1020A000DF91CF910C94B20FEC89F0E0EE0FFF1F9F
:1020B000E45EFC4721812F9320812F932BE434E8A9
:1020C0003F932F939F936F930E94631E0F900F90E7
:1020D0000F900F900F900F90DFCF6D89660FDF91FB
:1020E000CF910C943B0C2E8963E574E8222311F008
:1020F0006AE574E8DF91CF910C945C1E688DD0CFB7
:10210000EB89F0E0EE0FFF1FEC57FD476081718116
:10211000F1CF698DE4CFFF920F931F93CF93DF939D
:102120008C01D62FF72EC42FDC01ED91FC9102809B
:10213000F381E02D642F09958C2F8370F801EC0F4B
:10214000F11D8330D1F462898D2F9F2D0E943B0CAD
:1021500070E060E081E0C43008F084E10E942E0568
:10216000EC2FE695E695E00FF12FF11D158EDF912E
:10217000CF911F910F91FF90089582891F928F93A5
:102180008FE194E89F938F93FF92DF930E94631EE9
:102190000F900F900F900F900F900F90D9CF8F92BC
:1021A0009F92AF92BF92CF92DF92EF92FF921F93D6
:1021B000CF93DF93EC01C0906029D0906129E0902B
:1021C0006229F09063291C89212F30E050E040E023
:1021D000C701B6010E94CC1C2C8F3D8F4E8F5F8FA4
:1021E00080916A2990916B29A0916C29B0916D29F9
:1021F00060916929662309F447C088A399A3AAA31B
:10220000BBA380916829882349F060EC71EE84EECD
:1022100090E0A70196010E94CC1C2B8B2D8930E009
:1022200050E040E060915C2970915D2980915E29C9
:1022300090915F290E94CC1C672B682B692BC1F4FD
:102240000E943B1CCE88D12CF12CE12C2AE030E0FE
:1022500040E050E00E949A1C6C157D058E059F059C
:102260003CF461E070E081E10E942E0581E08B8FFB
:10227000DF91CF911F91FF90EF90DF90CF90BF90B3
:10228000AF909F908F900895C0906429D090652959
:10229000E0906629F09067294C015D018C189D083B
:1022A000AE08BF087501640168E9C6166AE3D60680
:1022B000E104F10450F06B8D662339F070E060E0CA
:1022C00081E10E942E051B8ED3CF123088F2C8A068
:1022D000D9A0EAA0FBA08C199D09AE09BF098217FD
:1022E0009307A407B50760F12CA121113AC00E9401
:1022F0003B1CCE88D12CF12CE12C2AE030E040E0D0
:1023000050E00E949A1C6C157D058E059F053CF4DB
:1023100061E070E081E10E942E0581E08CA388A13C
:1023200099A1AAA1BBA14C8D5D8D6E8D7F8D840F6F
:10233000951FA61FB71F88A399A3AAA3BBA398CFD5
:1023400088399A43A105B10508F492CF8CA188235E
:1023500009F48ECF70E060E081E10E942E051CA29E
:1023600087CF88399A43A105B10508F481CFF2CF10
:102370002F923F924F925F926F927F928F929F9295
:10238000AF92BF92CF92DF92EF92FF920F931F9383
:10239000CF93DF93CDB7DEB72C97CDBFDEBFDC0187
:1023A00052962C915297222309F4FFC08C01809100
:1023B0006929882309F412C130E050E040E06091BF
:1023C0005C2970915D2980915E2990915F290E941E
:1023D000CC1CF80126895801A60EB71E211172C027
:1023E00034888789845F83198388912C4CE0489DC9
:1023F0009001499D300D1124F901E451FD472384DA
:10240000642F0E94FD1CF82EA92FB0E0AB87BC877B
:10241000D80158968C91845F83190E94FD1C492F26
:1024200050E0BF01640F751FDB014C90829D400C92
:10243000112424573D47420F531FDA018C91481A4B
:10244000512C712C612CAB85BC85EA0FFB1FC08021
:10245000F29CC00C1124A20FB31F8C91C81AD12C6E
:10246000F12CE12CC414D504E604F7048CF44C18C8
:102470005D086E087F0841F00E943B1CA301920199
:102480000E949A1C2B013C01C40CD51CE61CF71CB5
:102490008C2D90E0622D70E00E941D1DAC0194EF28
:1024A000930D2CE0289DF001299DF00D1124E4549A
:1024B000FD47E40FF51F8081890F269F800D1124B1
:1024C000F501848FD5015C968C91F8019789891765
:1024D00008F46BC0908D891708F067C061E070E068
:1024E0008EE00E942E05D5015C96EC90F80186895D
:1024F0008823D9F1F12CFCE3EF0EF11C8AE0EEE623
:10250000F2E8DE01119601900D928A95E1F70E94A2
:102510003B1CD80159968C90912CB12CA12C2AE00F
:1025200030E040E050E00E949A1C681579058A0569
:102530009B050CF050C00E943B1C25E030E040E0C1
:1025400050E00E949A1C660F771FE1E0F0E0EC0F6C
:10255000FD1F6E0F7F1FDB018D919C918E0D9F1DC6
:102560006CE370E00E941D1DE82E70E060E08AE0E0
:102570000E942E05000080EB8093C4088091C30860
:1025800087FFFCCF8091C4080000E092C4088091CE
:10259000C30887FFFCCF8091C40861E070E08AE047
:1025A0000E942E0581E0F801838F2C96CDBFDEBFFF
:1025B000DF91CF911F910F91FF90EF90DF90CF901F
:1025C000BF90AF909F908F907F906F905F904F9053
:1025D0003F902F90089590E080E0C0CF5B968C9163
:1025E000882319F3C0906A29D0906B29E0906C2958
:1025F000F0906D298091642990916529A0916629B8
:10260000B0916729C81AD90AEA0AFB0AF801A58914
:10261000209160293091612940916229509163296C
:10262000B0E00E94B91C23E0969587957795679551
:102630002A95D1F7C616D706E806F90608F4B5CFED
:1026400070E060E08EE00E942E05D8015B961C923F
:10265000ACCF1F920F920FB60F9211242F933F937E
:102660004F935F936F937F938F939F93AF93BF939A
:10267000409178295091792960917A2970917B292C
:10268000809176299091772920917429309175292C
:10269000420F531F611D711D2091722930917329C2
:1026A000820F931F883E23E0920730F0885E9340AC
:1026B0004F5F5F4F6F4F7F4F8093762990937729BD
:1026C000409378295093792960937A2970937B29D4
:1026D0008091802990918129A0918229B0918329AC
:1026E0000196A11DB11D8093802990938129A0930B
:1026F0008229B093832981E08093860ABF91AF91AC
:102700009F918F917F916F915F914F913F912F9109
:102710000F900FBE0F901F9018951F920F920FB63B
:102720000F9211242F933F934F935F936F937F9357
:102730008F939F93AF93BF93CF93EF93FF93C091EA
:10274000AB08C2FF0AC010924E2910924D29109278
:102750004C2984E00E94960614C0C6FF2FC08091C9
:102760004B29813051F480914E29E0914929F09113
:102770004A2990E0099510924B29C0FF14C00E948D
:10278000A606FF91EF91CF91BF91AF919F918F914D
:102790007F916F915F914F913F912F910F900FBE5D
:1027A0000F901F90189580E48093AB0881E00E9401
:1027B00096068091AB0885FFE4CFE1CFC7FF5CC0F0
:1027C000C3FF08C010924E2910924D2910924C2937
:1027D00083E0C0CF8091A90880668093A90880918A
:1027E000AB0881FF2CC080914D29882349F080914E
:1027F000AB0884FF05C082E08093AA0881E0AACFDD
:1028000090914D2980914C299817A8F4E0914D2979
:102810008091442990914529E80FF92FF11D80817D
:102820008093AD0880914D298F5F80934D2983E07F
:102830008093AA08A6CF82E08093AA088BCF9091BC
:102840004E2980914829981790F48091AD08E09125
:102850004E292091462930914729E20FF32FF11D8F
:10286000808380914E298F5F80934E29E0CF86E050
:102870008093AA0882E06ECF85E06CCF1F920F9202
:102880000FB60F9211242F933F938F939F93EF9343
:10289000FF938091A508982F9C70E1F08091A50886
:1028A00094E082FF93E0909359298093A50881E0FA
:1028B00090E080934F299093502910925A29FF91CC
:1028C000EF919F918F913F912F910F900FBE0F909D
:1028D0001F90189586FF4EC020915629909155293A
:1028E0008091A50884FF15C080915229882379F032
:1028F00083E08093A40885E08093592910925A2997
:1029000081E090E080934F2990935029D8CF81E0C7
:10291000F0CF80915429821790F4E091542980914E
:10292000572990915829E80FF92FF11D8081809344
:10293000A808809154298F5F80935429C0CF80913B
:102940005329891760F484E090E080934F29909395
:1029500050298091512981608093A708B0CF809140
:102960005229882329F083E08093A40881E0C4CF12
:1029700081E0FACF87FF40C090915329809155297B
:102980009817D8F48091A808E09153292091422902
:1029900030914329E20FF32FF11D80838091532959
:1029A0008F5F8093532990915529809153298917DE
:1029B000D8F482E08093A40882CF809152298823A2
:1029C00089F087E08093A40882E0809359291092CF
:1029D0005A2981E090E080934F29909350291092DA
:1029E00055296DCF85E0EECF80915229882311F0D3
:1029F00087E0BACF85E0B8CF86E07ECFFC012CE738
:102A000032E8219331930A9620E1119227831786A9
:102A1000E817F907D1F70895FF920F931F93CF930B
:102A2000DF93109288291092892988EE93E0A0E024
:102A3000B0E080938A2990938B29A0938C29B0933E
:102A40008D2987EB93E8809386299093872940917D
:102A500000285091012860910228709103287695F2
:102A600067955795479580E0413099E059079DE378
:102A70006907710540F076956795579547958F5F83
:102A8000863091F787E094E09093D329982F909522
:102A9000292F217030E044E0220F331F4A95E1F7DF
:102AA0008162822B8093D2291092972981E08093B2
:102AB00096298CE0809392298DE0809394298BE075
:102AC000809393298AE0809395291092D6291092B9
:102AD000D72910920C2A10920D2A8DED93E880933D
:102AE000D4299093D5291092D8291092D9291092DF
:102AF000ED291092F0291092E4291092E529109204
:102B0000E6291092E7298FEF8093EE298093F2292E
:102B1000E6EFF9E2CFEFC193AAE2EC30FA07D9F77A
:102B200087E299E08093DC299093DD298CE19AE09B
:102B30008093DE299093DF298BE49BE08093E0294A
:102B40009093E12985E99BE08093E2299093E32922
:102B500030E020E040E069E088ED99E20E9427093A
:102B6000C093012AC093022AC093032AEBE9FBE237
:102B70008AED9BE220E221938E179F07E1F71092E6
:102B8000DA2B85E290E00E94371DEC010E94FE14D2
:102B900089E094E8888399831A8A88E78B8B11E00F
:102BA0001C8B1D8B1A821A878EE18B831C831D83DD
:102BB00080EF8B8704E00C870D871CA21E828AE0C1
:102BC0008E878E8BC093532BD093542B8FE190E044
:102BD0000E94371DEC010E94FE148DEF93E888835C
:102BE000998380E18A8B0B8B0D8B1D8398E0F92EE6
:102BF000FD868E8B0F8B82E0888F098F1987F98A6B
:102C0000C093552BD093562B8CE190E00E94371D3A
:102C1000EC010E94FE1481EF93E888839983FA8E79
:102C200085E08A871A8AFE013396CE0109960BE366
:102C300011920783E817F907D9F71B8A8CE08C8B70
:102C400088E18D8B84E28E8B80E38F8B11E0188777
:102C5000188F80E1888B198789E0898B85E0F82EB1
:102C6000F98EC093572BD093582B8DE590E00E949E
:102C7000371DEC010E94FE1485EE93E8888399834A
:102C80001A8A80E48A871F8A0F878BE08C871D83CE
:102C9000FD8684E08D8B1E87088F088B83E08B87F1
:102CA00019868AE0898B198EFE017C96DE01A45A72
:102CB000BF4F1192AE17BF07E1F71C92C093592B7B
:102CC000D0935A2B10920F2A1092102A8EE3E1E132
:102CD000FAE2DF01282F1D922A95E9F794E09093FC
:102CE0000E2A1092502A1092512AE2E5FAE2DF01F0
:102CF000282F1D922A95E9F795E090934F2A10927C
:102D0000912A1092922AE3E9FAE2DF01282F1D921C
:102D10002A95E9F798E09093902A1092D22A10927F
:102D2000D32AE4EDFAE2DF01282F1D922A95E9F774
:102D30009093D12A1092132B1092142BE5E1FBE211
:102D4000DF011D928A95E9F79093122BDF91CF91C5
:102D50001F910F91FF900895CF93DF93CDB7DEB70A
:102D60002897CDBFDEBF88ED90E084BF90936100CF
:102D700080E094E2A4EFB0E08093002890930128D3
:102D8000A0930228B0930328809102068660809366
:102D90000206809100068160809300068091020601
:102DA0008F7C809302068091A0008F788093A00092
:102DB000809102068061809302061092E205E1E0B4
:102DC000E093E40583E08093010A2FEF30E0209345
:102DD000260A3093270A80E890E08093380A90937F
:102DE000390A80933A0A90933B0A80933C0A909365
:102DF0003D0A8BE08093000A8091E5058160809315
:102E0000E5058091E50582608093E50557E05093E4
:102E1000810A4FEF40938C0A90E890938D0A85E0E9
:102E20008093800A5093910A40939C0A90939D0A44
:102E30008093900A5093A10A4093AC0A9093AD0AF4
:102E40008093A00A80E094E080937E2990937F296C
:102E500080917E2990917F29B9010E94091D60937C
:102E60007C2970937D2980917E2990917F2908EE9D
:102E700013E0B8010E94091D6093742970937529AD
:102E800080917E2990917F29B8010E94091D80932D
:102E900072299093732920938C0A30938D0A809124
:102EA000850A81608093850A84E08093800A8091FE
:102EB000800A81608093800A78948091972981119B
:102EC00016C0109298291092992910929A2910925E
:102ED0009B2910929C2910929D2910929E29109254
:102EE0009F291092A0291092A129E09397298091FF
:102EF000E30590919629892B8093E30561E070E0CA
:102F0000809193290E94A50561E070E08091942949
:102F10000E94A5058091C10884608093C1088091BA
:102F2000C00881628093C0089091D2298091D329F2
:102F30009093C0088093C10810928529109284292B
:102F40001092682910925B2910925C2910925D29D9
:102F500010925E2910925F2988E498EEA1E0B0E01B
:102F60008093602990936129A0936229B09363298B
:102F70000E94D40560936429709365298093662923
:102F800090936729E091DC29F091DD2930E020E081
:102F900040E06AE088ED99E20995CE01019628E0CB
:102FA000DC011D922A95E9F70E948604E091DC2954
:102FB000F091DD2930E020E040E06BE088ED99E21F
:102FC00009958AE492E08093E8299093E929B0ED8D
:102FD000EB2EB1E0FB2E10E000E0F701659174915B
:102FE000C801815F954D0E94931CB2E0EB0EF11C6D
:102FF0000F5B1F4F0534E1E01E0779F781E694E887
:103000009F938F9386E694E89F938F938BE99BE23F
:103010009F938F930E94631EABE9EA2EABE2FA2ED8
:103020000F900F900F900F900F900F9010E0D7011E
:103030006D917D01812F0E94370B1F5F1F33B9F700
:1030400005EA13E87801F701D1907F0161E070E0B3
:103050008D2D0E94A50570E060E08D2D0E94A005D9
:10306000FBEAEF16F3E8FF0671F7F5EAEF2EF3E857
:10307000FF2E61E070E0D7018D917D010E94A005D7
:1030800064EF71E080E090E00E940306BAEAEB167C
:10309000B3E8FB0671F770E060E0F80181918F0101
:1030A0000E94A005F3E80A3A1F07A9F70E94D80E6C
:1030B0000E94420B21EAE22E23E8F22E3DE9A32EE4
:1030C00033E8B32E49E9C42E43E8D42E55EA652EE1
:1030D00053E8752E6EE6862E69E2962E78EE472E20
:1030E00073E0572EEAEF2E2E312C80E390E00E9401
:1030F000371D8C01D7019C91B2E0EB0EF11CF5015C
:103100002081F2E0AF0EB11CD6018C91B2E0CB0E63
:10311000D11C37E0F8013383A3E0A4833583168202
:10312000B1E0B78332E33087418652862386348606
:10313000158616861786108A118E128E138E148E9F
:10314000158E168E178E10A211A212A213A214A20F
:1031500015A216A217A210A611A612A613A614A6AF
:1031600015A616A617A680832183928362E070E0DD
:103170000E94A50562E070E0F80181810E94A5052A
:1031800062E070E0D80112968C910E94A505F401CE
:10319000019311934F016E147F0409F0A6CFE091C3
:1031A0006E29F0916F2987E49EE0848F958F85E0EA
:1031B0009FE082A393A38FE396E080A791A7E0917D
:1031C0007029F091712985E29EE0848F958F84E1CA
:1031D0009EE082A393A393E0492E512C612C712C85
:1031E000FF24F394EE24E3941EE6C12E19E2D12EBF
:1031F00004E0302E83E0282ED6010D911D916D0143
:103200000E943306F80125853685478550894B0194
:103210005C01821A930AA40AB50AB501A401878148
:1032200090E0B0E0A0E0481759076A077B0708F470
:10323000A2C00E943306D8011D966D937D938D9395
:103240009C9350971696AC901697B12C12968C9131
:103250008A3108F043C10E947B05A826B926AA0C32
:10326000BB1CAA0CBB1CF80180818A3108F039C153
:103270000E947B05880F991FA82AD80111968C916E
:103280008A3108F031C10E947B05A82AF801A38287
:1032900084819A2D9827937009F430C1F4E08F9FB0
:1032A000900111248A2D8370822BD80114968C935F
:1032B00014978B3409F01AC1EFEF5996EC93F8018B
:1032C0008581B12CB594A794B594A794A826A0FEA7
:1032D0001CC10E943306D80151962D913D914D910C
:1032E0005C9154974B015C01821A930AA40AB50AB7
:1032F000B501A40118968C9190E0B0E0A0E084178D
:103300009507A607B70788F4D80115968C911597ED
:1033100080FDF6C01596FC920E943306D8015196A6
:103320006D937D938D939C935497D80115968C91B2
:103330001597833009F456C108F0EFC0882309F4CB
:103340001FC1813009F455C1F801818D928D811121
:103350001BC2911101C0138ED8015B968C915B97B3
:1033600081112BC25A968C915A97833009F468C107
:10337000843009F46FC1B2E7CB16B9E2DB0609F07D
:103380003BCF8091DB2B8034C9F0E82FF0E0E55A89
:10339000F44D803408F09BC19F012B553B42619155
:1033A00041E0480F97AD691709F48FC18093DB2B7B
:1033B000F901E556F44D60830E94370B0E94D40555
:1033C000AB01BC0140936A2950936B2960936C292F
:1033D00070936D291092692980916829882309F4D6
:1033E00097C1E1EEF1E08491803108F473C18091DE
:1033F0005B29811159C0E0925B2980915C299091F1
:103400005D29A0915E29B0915F290196A11DB11D92
:1034100080935C2990935D29A0935E29B0935F29E6
:10342000E0926929A0906A29B0906B29C0906C291C
:10343000D0906D29609160297091612980916229F5
:1034400090916329660F771F881F991F0091642947
:10345000109165292091662930916729601B710BB5
:10346000820B930B6A0D7B1D8C1D9D1DA301920188
:103470000E94CC1C209360293093612940936229DB
:1034800050936329A0926429B0926529C09266295D
:10349000D092672980918529813031F480918429E7
:1034A000813011F40E944C0403E51BE2D8018D9198
:1034B0009D918D01DC01ED91FC910480F581E02D61
:1034C0000995EBE5FBE2E017F10781F780E090E07A
:1034D000892B09F489CE0E94000082CE90E080E022
:1034E000BCCE90E080E0C6CE80E0CFCE873819F425
:1034F0005996FC92E4CEF801118EE1CE118EDFCE0A
:10350000E6E08E2EF801858207CF0E943306F8018F
:10351000618B728B838B948B08CF8430B1F18630B2
:1035200009F012CF15963C9215975A962C925A97FD
:1035300094968D919C91892BC9F00E943306F801D5
:10354000258936894789508D4B015C01821A930A7F
:10355000A40AB50AB501A40183859485B0E0A0E072
:10356000481759076A077B0708F4328E0E94330612
:10357000D80155966D937D938D939C935897E4CE87
:1035800077E0872EF801828EDFCE5A968C91845098
:103590008230E8F40E943306F8012589368947898C
:1035A000508D4B015C01821A930AA40AB50AB50139
:1035B000A40181859285B0E0A0E084179507A60755
:1035C000B70728F4158266E0962E928EBDCED801FC
:1035D0005A968C915A97833009F0B6CEE5E05A9608
:1035E000EC93B2CEE7E01596EC9315975A961C92A1
:1035F000ABCE15962C9215975A969C915A97965049
:1036000052E0852E923008F0BDCF5A968C939CCE16
:10361000E5E0D8015B96EC935B975C96ED91FC91AD
:10362000309709F4C7C0099597CE963008F494CE28
:10363000E7E05B96EC935B979096ED91FC91F0CF71
:1036400032E0832EF801838E02A0F3A1E02D3097A3
:1036500039F491CE5B962C925B979496ED91FC9108
:10366000099589CEF38E06A0F7A1E02DF0CF843026
:1036700071F4D8015A968C915A97813009F07BCE1B
:103680005B968C935B979A96ED91FC91E0CF863098
:1036900059F4F801828D8150823008F06CCEF38E9F
:1036A00004A4F5A5E02DD3CF873009F064CED8016E
:1036B0005A968C915A97813009F05DCE5B968C9327
:1036C0005B979E96ED91FC91C2CF842F62CE809342
:1036D000DB2B74CE80930606F092080680910B06D1
:1036E00080FFFCCF2FB7F8949091100680911106BF
:1036F0002FBF892798278927893E93400CF477CEDE
:1037000080915B29882309F4CFCE10925B29CCCE1F
:103710008091642990916529A0916629B0916729CB
:1037200000916029109161292091622930916329CB
:10373000481B590B6A0B7B0B401751076207730735
:1037400008F4B2CE800F911FA21FB31F809364298B
:1037500090936529A0936629B093672980915C298D
:1037600090915D29A0915E29B0915F290196A11DDC
:10377000B11D80935C2990935D29A0935E29B0933D
:103780005F29E092692990CE992309F441CF2CEF6B
:10379000290F223038F0D8015B962C915B972630A8
:1037A00009F043CF46E0842EF801838E068CF78D16
:1037B000E02D36CFD8015B968C919EEF980F92301A
:1037C00008F055CFF801828D823009F44BCF863056
:1037D00009F0D1CD338E00A4F1A5E02D38CF8F9222
:1037E0009F92AF92BF92CF92DF92EF92FF92CF93D0
:1037F000DF93EC01688179818A819B816115710574
:103800008105910521F464E279ED8BE597E02DE1E6
:1038100033EF41E050E00E949A1C49015A019B019C
:10382000AC01A7EAB1E40E94B91C6B017C01ACEECB
:10383000B4EFA50194010E94C71CC60ED71EE81E56
:10384000F91EF7FE06C081E0C81AD108E10880E839
:10385000F80AC882D982EA82FB82C701B6019F7743
:10386000DF91CF91FF90EF90DF90CF90BF90AF901E
:103870009F908F9008958F929F92AF92BF92CF9218
:10388000DF92EF92FF926091042870910528809159
:10389000062890910728611571058105910521F48D
:1038A00064E279ED8BE597E02DE133EF41E050E004
:1038B0000E949A1C49015A019B01AC01A7EAB1E49C
:1038C0000E94B91C6B017C01ACEEB4EFA501940120
:1038D0000E94C71CC60ED71EE81EF91EF7FE06C0C2
:1038E00081E0C81AD108E10880E8F80AC0920428EB
:1038F000D0920528E0920628F0920728C701B60169
:103900009F77FF90EF90DF90CF90BF90AF909F9008
:103910008F9008956093042870930528809306285B
:10392000909307280895FB01DC0105900D9200207B
:10393000E1F70895052E97FB1EF400940E94B11C38
:1039400057FD07D00E94CC1C07FC03D04EF40C940A
:10395000B11C50954095309521953F4F4F4F5F4F8B
:10396000089590958095709561957F4F8F4F9F4FEB
:1039700008950E94EE1CA59F900DB49F900DA49FEA
:10398000800D911D11240895B7FF0C94B91C0E945D
:10399000B91C821B930B0895A1E21A2EAA1BBB1B14
:1039A000FD010DC0AA1FBB1FEE1FFF1FA217B3070B
:1039B000E407F50720F0A21BB30BE40BF50B661F21
:1039C000771F881F991F1A9469F7609570958095E5
:1039D00090959B01AC01BD01CF010895A29FB0015C
:1039E000B39FC001A39F700D811D1124911DB29F33
:1039F000700D811D1124911D0895991B79E004C05B
:103A0000991F961708F0961B881F7A95C9F780951D
:103A10000895AA1BBB1B51E107C0AA1FBB1FA61715
:103A2000B70710F0A61BB70B881F991F5A95A9F767
:103A300080959095BC01CD01089597FB072E16F453
:103A4000009407D077FD09D00E94091D07FC05D01E
:103A50003EF4909581959F4F0895709561957F4FA5
:103A60000895EE0FFF1F0590F491E02D09940F9338
:103A70001F93CF93DF938230910510F482E090E0A2
:103A8000E091DE2BF091DF2B30E020E0B0E0A0E011
:103A9000309799F42115310509F44AC0281B390BD8
:103AA00024303105D8F58A819B816115710589F132
:103AB000FB0182839383FE0111C040815181028109
:103AC000138148175907E0F04817590799F41097E0
:103AD00061F012960C93129713961C933296CF01B5
:103AE000DF91CF911F910F9108950093DE2B1093DA
:103AF000DF2BF4CF2115310551F04217530738F071
:103B0000A901DB019A01BD01DF01F801C1CFEF017D
:103B1000F9CF8093DE2B9093DF2BCDCFFE01E20F08
:103B2000F31F819391932250310928833983D7CF92
:103B30002091DC2B3091DD2B232B41F420910A289E
:103B400030910B282093DC2B3093DD2B209108281B
:103B5000309109282115310541F42DB73EB7409128
:103B60000C2850910D28241B350BE091DC2BF09193
:103B7000DD2BE217F307A0F42E1B3F0B28173907A4
:103B800078F0AC014E5F5F4F2417350748F04E0FB9
:103B90005F1F4093DC2B5093DD2B819391939FCF3C
:103BA000F0E0E0E09CCFCF93DF930097E9F0FC01D9
:103BB000329712821382A091DE2BB091DF2BED01A0
:103BC00030E020E01097A1F420813181820F931F13
:103BD0002091DC2B3091DD2B2817390709F061C0CB
:103BE000E093DC2BF093DD2BDF91CF910895EA0178
:103BF000CE17DF07E8F54A815B819E01411551052B
:103C0000B1F7E901EA83FB8349915991C40FD51FAC
:103C1000EC17FD0761F4808191810296840F951F56
:103C2000E90188839983828193818A839B83F0E071
:103C3000E0E012968D919C9113970097B9F52D9124
:103C40003C911197CD010296820F931F2091DC2B9E
:103C50003091DD2B2817390739F6309751F510923E
:103C6000DE2B1092DF2BA093DC2BB093DD2BBCCF8F
:103C7000C283D38340815181840F951FC817D90710
:103C800061F44E5F5F4F88819981480F591F4083CF
:103C900051838A819B81828393832115310509F0A9
:103CA000B0CFE093DE2BF093DF2B9ECFFD01DC0144
:103CB000C0CF12821382D7CFFB01DC0101900D929D
:103CC0000020E1F70895AEE0B0E0E9E6FEE10C94F3
:103CD00012210D891E8986E08C8309831A838FEF58
:103CE0009FE78D839E83AE01475E5F4F6F89788D1E
:103CF000CE0101960E94861E2F813885020F131F68
:103D0000F80110822E96E4E00C942B21ABE0B0E099
:103D1000ECE8FEE10C9404217C013B018A01FC01EA
:103D200016821782838181FFC8C1CE0101965C0192
:103D3000F7019381F30193FD859193FF81913F01F9
:103D4000882309F453C1853239F493FD859193FF9B
:103D500081913F01853229F4B70190E00E947620DD
:103D6000E7CF912C212C312CFFE1F31538F08B3269
:103D700011F190F4803209F1833229F137FC3CC013
:103D800020ED280F2A3050F536FE20C08AE0989E9C
:103D9000200D1124922E06C08D3291F0803371F7E0
:103DA000689430F8F30193FD859193FF81913F0171
:103DB0008111DACF21C0689431F8689432F8F2CFDB
:103DC000689433F8EFCF689434F8ECCFEAE02E9E95
:103DD000200D1124222E689435F8E4CF8E3229F478
:103DE00036FC04C1689436F8DDCF8C3619F468943B
:103DF00037F8D8CF8836B1F2982F9F7D95549330FD
:103E0000E0F08336A1F18337C1F1833509F063C057
:103E10002801F2E04F0E511CF801C080D180692DBD
:103E200070E036FC02C06FEF7FEFC6010E94602099
:103E30004C01689437F882010AC00C5F1F4FFFE302
:103E4000F98388248394912C6501E89437F833FE34
:103E50002DC0522C8114910471F5552009F468CFBE
:103E6000B70180E290E00E9476205A94F6CFF801E4
:103E7000808189830E5F1F4FE4CF2801F2E04F0E4F
:103E8000511CF801C080D180692D70E036FC02C061
:103E90006FEF7FEFC6010E946B204C018201D5CFEE
:103EA000B70180E290E00E9476202A942814190439
:103EB00009F0B0F7CECFF60137FC859137FE81913E
:103EC0006F01B70190E00E94762051105A94F1E002
:103ED0008F1A9108BFCF843619F0893609F077C060
:103EE000F80137FE6BC060817181828193810C5F24
:103EF0001F4FF32DFF763F2E97FF09C090958095B9
:103F0000709561957F4F8F4F9F4F689437F82AE0E7
:103F100030E0A5010E94A620C82ECA188C2C432C84
:103F200036FE0CC0E89440F8C91440F434FE05C0D5
:103F300032FC03C0F32DFE7E4F2E892C44FE95C02B
:103F4000FE01EC0DF11D8081803309F087C0242D26
:103F5000297E422E842D8870582E43FC95C040FE49
:103F60008FC09C2C821418F42C0C922C981844FEB0
:103F700091C0B70180E390E00E94762042FE09C024
:103F800088E790E041FE02C088E590E0B7010E941A
:103F90007620C91408F48AC0CA94D12C9FEFC91A9C
:103FA000D90ACA0CDB1CF60182916F01B70190E0BF
:103FB0000E947620AC14BD04B1F74FCF60817181AF
:103FC000072E000C880B990B0E5F1F4F92CFD32C3E
:103FD000E894D4F82AE030E0853739F1232D297FA1
:103FE000D22E8F3601F148F48835A9F0F701868189
:103FF00097812B96E2E10C941D21803749F0883798
:10400000A9F7D4FE02C06894D2F820E130E00DC0D8
:104010006894D4F8F6CF34FE03C0822F8660D82E81
:1040200020E132E002C028E030E0F801D7FE0FC006
:1040300060817181828193810C5F1F4FA5010E9475
:10404000A620C82ECA183D2CE89437F867CF6081A7
:10405000718190E080E00E5F1F4FF0CF42FC02C004
:10406000839478CF8394839475CF842D867809F4D4
:1040700071CFF6CFB70180E290E00E947620839462
:104080008214C0F3512C73CF522C5818821408F4A8
:104090006ECFF8CF842D867809F47BCF8BE241FE7A
:1040A00080E247FC8DE2B70190E071CFB70180E379
:1040B00090E00E9476209A946CCF8FEF9FEF99CF7B
:1040C000FC010590615070400110D8F780959095E3
:1040D0008E0F9F1F0895FC016150704001900110E8
:1040E000D8F7809590958E0F9F1F08950F931F937B
:1040F000CF93DF93182F092FEB018B8181FD09C02E
:104100001FEF0FEF812F902FDF91CF911F910F9114
:10411000089582FF14C02E813F818C819D812817D4
:1041200039073CF4E881F981CF01019688839983AE
:1041300010838E819F8101968E839F83E3CFE885D4
:10414000F985812F0995892BA1F3DACFFA01AA27E6
:10415000283051F1203181F1E8946F936E7F6E5FCA
:104160007F4F8F4F9F4FAF4FB1E03ED0B4E03CD078
:10417000670F781F891F9A1FA11D680F791F8A1F5B
:10418000911DA11D6A0F711D811D911DA11D20D0C2
:1041900009F468943F912AE0269F11243019305D7C
:1041A0003193DEF6CF010895462F4770405D41936D
:1041B000B3E00FD0C9F7F6CF462F4F70405D4A33BA
:1041C00018F0495D31FD4052419302D0A9F7EACF82
:1041D000B4E0A6959795879577956795BA95C9F7B1
:1041E00000976105710508959B01AC010A2E0694A4
:1041F0005795479537952795BA95C9F7620F731F5D
:10420000841F951FA01D08952F923F924F925F9299
:104210006F927F928F929F92AF92BF92CF92DF92D6
:10422000EF92FF920F931F93CF93DF93CDB7DEB73B
:10423000CA1BDB0BCDBFDEBF09942A8839884888AA
:104240005F846E847D848C849B84AA84B984C884B2
:10425000DF80EE80FD800C811B81AA81B981CE0FA9
:0E426000D11DCDBFDEBFED010895F894FFCF54
:10426E00F4FFFBFF000007000C0000000000D70E5B
:10427E00D60ED50ED30E9B84A284A984B0840101E0
:10428E000101010101010101010101000100010112
:10429E000001000100010100010001000001000108
:1042AE0000000100010100010001010000010001F8
:1042BE0002030405060708090A0B00020405070994
:1042CE000B000000000000020407090000000000BF
:1042DE0000000002030507080B00000000000102A9
:1042EE00030405060708090A0B0C01010202030468
:1042FE000405050606070101020203030304040573
:10430E000505010102030304040506060607B7842A
:10431E00B984BC84BE84C184C384C584C884CA8461
:10432E00A084CD84D0841815A015C019FF1815A12E
:10433E0015C819FF1815AE19FF1815AF19FF181566
:10434E00AE15D5168015A8163F15D31600154015B7
:10435E008D16141520160015A115C815DA1612158E
:10436E008116CF15D916F115DB1640152E15A4158D
:10437E00A619FF0001140A6464323200127A00009A
:10438E000428961008000080004000060003000775
:10439E0000020008000000090E1114010A0010208E
:1043AE00300818283800000000AB0786077F076C1E
:1043BE00075D075C077B08360829082508ED07CE40
:1043CE0007C607FC07F40735073007000000001C7E
:1043DE000CAB0E000000001E10210DB811100D00C8
:1043EE00000000D10FD60E750C690C000000008B7A
:1043FE0010F80DEA0DD30E00000000200FD60ECFE0
:10440E0010650C494E542020200045585420202081
:10441E000025336420202000782564202020002FE2
:10442E002564202020002532732564202020003AA8
:10443E002564202020002D2D2D2D2D2000253273BA
:10444E0020202020004F4646202020004F4E2020C6
:10445E0020200076312E3400202052485954484DE9
:10446E0020424F58202020202020414E4420202042
:10447E002020202020202020202053455155454E1D
:10448E0043455220202020202020257300434852EF
:10449E004F4D41004D414A4F52200050454E544120
:1044AE0020004841524D4F4E00430043230044002C
:1044BE0044230045004600462300470047230041A1
:0444CE002300420085
:0E44D2000024F400010000000000E02B800038
:00000001FF
