:100000000C94F0030C9418040C9418040C94180429
:100010000C9418040C9418040C9418040C941804F0
:100020000C9418040C9418040C9418040C941804E0
:100030000C9472160C9418040C94D6160C94871712
:100040000C9418040C9418040C9418040C941804C0
:100050000C9418040C9418040C9418040C941804B0
:100060000C9418040C9418040C9418040C941804A0
:100070000C9418040C9418040C9418040C94180490
:100080000C9418040C9418040C9418040C94180480
:100090000C9418040C9418040C9418040C94180470
:1000A000204C454E4754482020465245455A45204D
:1000B000205343414C452020204D494E20202020F4
:1000C000204B455920202020204D41582020202021
:1000D0002047415445202020204348414E474500B9
:1000E000204C454E47544820204E4F544520342044
:1000F000204E4F5445203120204E4F54452035206E
:10010000204E4F5445203220205350454544202056
:10011000204E4F5445203320204741544520200095
:10012000204C454E47544820204C454E47544820CB
:100130002042454154532020204245415453202021
:1001400020534849465420202053484946542020F3
:10015000204741544520202020474154452020007D
:1001600020434C4F434B2020204348414F532020F5
:100170002042504D20202020202020202020202000
:10018000204D554C542020202020202020202020AD
:10019000204449564944452020202020202020008A
:1001A0002054494D452020202020202020202020A0
:1001B000204555434C494445414E202020202020D5
:1001C00020352D5345512020202020202020202084
:1001D0002052414E444F4D2020202020202020003E
:1001E000A00160012001E000A000207E01020000CB
:1001F0000000000000000000000000000000F0000F
:100200000000000000003F00000000000000F0F0CF
:100210000000000000003F3F0000000000000080E0
:10022000F080F080000000043F043F040000F0F084
:10023000F0F0000000003F3F3F3F00000000F0F002
:10024000F0F0F00000003F3F3F3F3F000000F0F0C3
:10025000F0F0F0F000003F3F3F3F3F3F0000F0F084
:10026000F0F0F0F0F0003F3F3F3F3F3F3F00000025
:1002700080601008000000000F304080000000087F
:10028000106080000000008040300F0000000080FF
:1002900000C0008000000008051F050800000000E5
:1002A00000C0000000000002021F02020000000067
:1002B000000000000000000090700000000000003E
:1002C0000000000000000002020202020000000024
:1002D000000000000000000020702000000000006E
:1002E000008060180000C0300C0300000000C02037
:1002F000101020C000000F102020100F0000004040
:1003000020F0000000000020203F202000006010AE
:10031000101010E0000020302824232000001010CE
:1003200010905030000018202121211E00000000F4
:10033000C020F00000000C0B08083F080000F090FF
:1003400090909010000019202020201F0000C02055
:100350001010100000001F222121211E000010108B
:100360001010D030000000300C030000000060903E
:100370001010906000001C222121221C0000E010BF
:10038000101010E0000019222222110F00000000BE
:1003900080C0800000000000103910000000000044
:1003A00080800000000000004939000000000000CB
:1003B000008040200000000205081020000080801E
:1003C0008080808000000404040404040000F0E045
:1003D000C080000000007F3F1F0F07020000601078
:1003E0001010906000000000003700000000C020E6
:1003F000905050E000000F102728282F0000C02048
:10040000101020C000003F020202023F0000F01066
:100410001010A04000003F212121120C0000E0102C
:100420001010106000001F20202020180000F01085
:10043000101020C000003F202020100F0000F010FE
:100440001010101000003F21212120200000F0108A
:100450001010101000003F01010100000000E0102A
:100460001010106000001F202022123E0000F0003B
:10047000000000F000003F010101013F00000010FA
:1004800010F0101000000020203F2020000000008D
:100490000010F0100000182020201F000000F000C5
:1004A0008040201000003F01020408300000F000EE
:1004B0000000000000003F20202020200000F0600D
:1004C000808060F000003F000101003F0000F0C0AC
:1004D000000000F000003F0001020C3F0000E010AF
:1004E000101010E000001F202020201F0000F0103E
:1004F000101010E000003F02020202010000E010B4
:10050000101010E000001F242428709F0000F0103D
:10051000101010E000003F0202060A310000E01057
:1005200010101060000018212122221C0000101061
:1005300010F0101010000000003F00000000F0005C
:10054000000000F000001F202020201F0000F0000D
:10055000000000F00000000738380700000000F03D
:10056000000000F00000001F201C201F000030C011
:100570000000C0300000300C03030C30000000709D
:100580008000807000000000013E0100000010109B
:10059000109050300000302C22212020000000005C
:1005A000F808080800000000FF8080800000186044
:1005B0008000000000000000030C30C000000008B4
:1005C0000808F800000000808080FF000000201074
:1005D00008081020000000000000000000000000DB
:1005E000000000000000808080808080000000000B
:1005F0000810200000000000000000000000008043
:1006000080808000000019242424243F0000F00092
:100610008080800000003F112020201F000000800B
:100620008080800000001F2020202011000000801A
:10063000808000F000001F202020113F000000807B
:100640008080800000001F24242424170000000064
:10065000E0101020000001013F01010000000080B7
:100660008080008000006798A8A8A7400000F000E4
:100670008080800000003F010000003F000000007B
:1006800080B0000000000020203F2020000000007B
:10069000000080B0000000608080807F0000F000DB
:1006A0000000800000003F04060910200000000048
:1006B00010F0000000000020203F202000000080FB
:1006C000800080000000003F001F003F000080000D
:1006D0008080800000003F010000003F000000809B
:1006E0008080800000001F202020201F000080004C
:1006F000808080000000FF112020201F000000806B
:100700008080008000001F20202011FF000080005A
:100710008080800000003F01000000030000008096
:100720008080800000001122242428110000808095
:10073000F0808000000000001F20201000008000DA
:100740000000008000001F202020103F00000080DB
:1007500000000080000000030C300C03000000804B
:10076000000000800000001F201E201F00008000ED
:10077000000000800000310A04040A3100008000FB
:100780000000008000004F909090887F00008080E3
:1007900080808080000020302C222120000000007A
:1007A00000F0080800000000027D808000000000CA
:1007B00000F800000000000000FF0000000000083A
:1007C00008F0000000000080807D0200000030087A
:1007D000102040300000000000000000000055180C
:1007E00011241FBECFEFCDBFDFE3DEBF18E2A0E0D4
:1007F000B8E2E2E3FFE402C005900D92A031B10738
:10080000D9F72BE2A0E1B8E201C01D92AA3EB207DF
:10081000E1F713E0C0EFD3E004C02197FE010E948E
:10082000F221CF3ED107C9F70E94E3190C941F268D
:100830000C94000080E00895CF93DF93CDB7DEB72E
:100840002897CDBFDEBFE0918729E150FF0BEE0F67
:10085000FF1FE35AF44D80819181DC01ED91FC9101
:100860000190F081E02D40918629BE016F5F7F4F9E
:100870000995E0918629F0E0E951F24780818F5F88
:10088000FE013196A82FB0E0AB59B44D9E01295F0F
:100890003F4F91919D93E217F307D9F78093E52B92
:1008A0002896CDBFDEBFDF91CF9108951F93CF93E0
:1008B000DF93CDB7DEB72597CDBFDEBF1C8221E029
:1008C0002B8389839A83E091E229F091E3291189AE
:1008D0001D82A091E229B091E329E091E629F091EF
:1008E000E7299E012F5F3F4F50964C916FE082EEBB
:1008F00099E209958D818F5F8D83811750F325963D
:10090000CDBFDEBFDF91CF911F910895CF93DF93CD
:10091000E0918729E150FF0BEE0FFF1FE35AF44DE2
:10092000C081D181609186291816A4F4FE01E60FDA
:10093000F11D82899285891710F48F5F828BE8817F
:10094000F9810280F381E02D60918629CE01DF914B
:10095000CF910994882361F0FE01E60FF11D828991
:100960009281981760F79285981748F38150E6CFE7
:10097000E881F9810680F781E02DCE010995882371
:10098000F1F2E0918629EC0FFD2FF11D928981E0B3
:10099000891BD4CF9B01DC011896ED91FC9141E0BD
:1009A00067E10994282F30E0F901E158F247E0812E
:1009B000EE2309F1E13021F0F0F0E63098F00895EF
:1009C0004091010A27563247F90120812C5F81E0CE
:1009D00090E001C0880F2A95EAF7809584238093E0
:1009E000010A089580E1E89FF0011124E05AF54FD3
:1009F00081818F7E81830895FF920F931F93CF9300
:100A0000DF93082F10E0F801E353F247F0809FEFE7
:100A1000F916A1F0EB018B3210F40E94D204F80118
:100A2000ED54F247E08180E2E89FF0011124FC5F81
:100A300080818F2179F0209739F4F682DF91CF9170
:100A40001F910F91FF900895229711F4F782F6CF2E
:100A5000F582F4CFD801A756B2478C91309771F048
:100A60008F3F61F07096E80FF11D9FB7F894808179
:100A7000CD2B39F4877F80839FBFE0CFF0E0E0E0AB
:100A8000F4CF8860F8CF0F931F93CF938B32E8F4A5
:100A9000082F10E0F801E353F247C081CF3FA9F0DF
:100AA0000E94D204F801ED54F247E08180E2E89F11
:100AB000F0011124FC5F8085C82381E090E009F4F7
:100AC00080E0CF911F910F91089580E090E0F9CFE1
:100AD0008B3210F40C94FC040895CF93DF938B3287
:100AE000A0F490E0FC01E353F24720812F3F69F02E
:100AF000FC01ED54F247E08130E2E39FF001112464
:100B0000FC5F6130710521F42183DF91CF9108955D
:100B100087569247EC01A881AF3F69F0CF0140961C
:100B2000A80FB92FB11D9FB7F89422838C918860CC
:100B30008C939FBFEACFB0E0A0E0F5CFCF93DF93D7
:100B40008FB7F8942091822930918329409184298C
:100B500050918529E0918A0A9091860A90FF06C0FB
:100B60002F5F3F4F4F4F5F4FE0918A0A8FBFA09199
:100B70008029B0918129C0917E29D0917F290E943E
:100B80008A1FEC9F9001ED9F300D1124620F731F9F
:100B9000811D911DDF91CF9108958F929F92AF9209
:100BA000BF92CF92DF92EF92FF924B015C010E94C5
:100BB0009E056B017C01A8EEB3E0A50194010E94A3
:100BC0008A1FC60ED71EE81EF91EC616D706E806EF
:100BD000F90618F40E949E05F8CF0E949E056C1538
:100BE0007D058E059F05C8F3FF90EF90DF90CF90B5
:100BF000BF90AF909F908F9008952FB7F894609119
:100C00007A2970917B2980917C2990917D292FBF31
:100C100008950C94000008950F9391E090935C293F
:100C200010925B296093592970935A29409358294F
:100C30002093572910925629109255290093542930
:100C4000880F8093532923E030E044E050E0809106
:100C50005829882341F020935129309352298091BB
:100C600053298E7F0BC080915729882351F04093E0
:100C70005129509352298091532981608093A7086C
:100C800008C080915829811104C080915729882378
:100C900011F380915B298823E1F380915B298330F4
:100CA000B1F280915729882321F0809155290F9125
:100CB000089580915B29823031F0853031F08130A8
:100CC00031F480E0F4CF81E0F2CF83E0F0CF84E034
:100CD000EECFE0EAF8E091859066918722E030E07F
:100CE000209351293093522980934329109242290D
:100CF000089581E0809342291092432993E09093D4
:100D0000AA089091AB0891FF10C010924F29E09172
:100D10004029F0914129099580934E2985E090E082
:100D200080935129909352290895109250298093CD
:100D30004D2986E090E0F4CF8F929F92AF92BF92C0
:100D4000CF92DF92EF92FF92CF93DF9360342DE04A
:100D5000720723E08207910508F454C0611525E36A
:100D600072072CE08207910508F445C060387F4483
:100D70008241910508F046C0C8E7D0E020E432E4A3
:100D80004FE050E08090022890900328A090042823
:100D9000B0900528C501B4010E949D1F69017A0128
:100DA0008AE0C81AD108E108F108C501B40120E4BD
:100DB00032E44FE050E00E949D1FDE010E948A1F36
:100DC00028EE33E040E050E00E949D1FC21AD30A93
:100DD000E40AF50AF694E794D794C794C092A6085B
:100DE000DF91CF91FF90EF90DF90CF90BF90AF90C9
:100DF0009F908F900895CCE2D1E020E83AE146E060
:100E000050E0C0CFC8EED3E020EA36E841E050E041
:100E1000B9CF60933E2970933F29089560933C2990
:100E200070933D290895E0913E29F0913F29309734
:100E300041F010923B2910923A29099580913A2964
:100E4000089580E00895E0913C29F0913D29309784
:100E500059F03091392920913829321728F0109211
:100E6000392980933829099408950895E091392902
:100E700080913829E81730F4F0E0E854F74D80818C
:100E800090E008958FEF9FEF089590913929809118
:100E900038292FEF3FEF981748F4E92FF0E0E85496
:100EA000F74D208130E09F5F90933929C901089563
:100EB0008091382990913929891B990B0895CF92F7
:100EC000DF92EF92FF920F931F93CF93DF937C01FA
:100ED0008A01EB016B01C40ED51ECC15DD0551F066
:100EE0006991D701ED91FC910190F081E02DC7014E
:100EF0000995F3CFC801DF91CF911F910F91FF901A
:100F0000EF90DF90CF90089520913A2927FF08C0F5
:100F100021E030E0FC012283338390E080E00895FB
:100F200080913B29E82FF0E0E85CF74D60838F5F0C
:100F300080933B2980933A2981E090E00895DC0179
:100F4000ED91FC91008CF18DE02D61E009940F93FF
:100F500080915129909152290197A1F480915C29A7
:100F6000811112C0062F20E040913A2968E378E20F
:100F7000809137280E940C0610923B2910923A2942
:100F80000F91089580E0F8CF81E0F6CF6093372885
:100F900010923B2910923A290895DC01ED91FC91C1
:100FA000048CF58DE02D21E009940F9388EB98E2F5
:100FB00080934429909345298091512990915229F9
:100FC0000197C9F480915C29811117C0FA01413859
:100FD000510510F0E0E8F0E0022F862F2E2F40E0C0
:100FE00070E060E00E940C06109239298093382945
:100FF00090E00F91089580E0F7CF81E0F5CFCB012D
:10100000BA010C949C06E0EAF8E01382168281E0B3
:1010100085831486118610925129109252290895C1
:10102000109239291092382910923B2910923A29AE
:101030008091512990915229892BD9F482E090E036
:1010400080935129909352291092502910924F2940
:1010500010924229109243291092362810924D295D
:10106000660F6093AC0881EE8093A90881E08093BD
:10107000A30883E197E0809340299093412988E376
:1010800098E2809346299093472983E297E08093E2
:101090004B2990934C2988EB98E2809348299093B0
:1010A000492980E880934A2908951092392910929D
:1010B000382910923B2910923A2980915129909118
:1010C0005229892BF1F48091E3058093E30581E0B7
:1010D00090E08093512990935229109255291092B3
:1010E000562910925C2910925B2981EC8093A30809
:1010F00060EA76E881E090E00E949C0681E08093BF
:10110000A50808950895EF92FF920F931F93CF9330
:10111000DF937C01EB018B01040F151FC017D10772
:1011200059F0D701ED91FC910480F581E02D6881A3
:10113000C70109958993F2CFDF91CF911F910F914C
:10114000FF90EF9008950F931F93CF93DF93EC01DF
:101150008B018091C008E881F9810480F581E02D40
:1011600086FD13C0612FCE010995182FE881F98102
:101170000480F581E02D602FCE010995082FC8016C
:10118000DF91CF911F910F910895CE010995082FFE
:10119000E881F9810480F581E02D612FCE01099568
:1011A000182FEDCF00006093C4088091C30887FF1B
:1011B000FCCF8091C40808958F929F92AF92BF9206
:1011C000CF92DF92EF92FF920F931F93CF93DF9313
:1011D000FC018085882319F081FF0EC07894DF918F
:1011E000CF911F910F91FF90EF90DF90CF90BF9024
:1011F000AF909F908F90089580FFF1CF8284938469
:10120000A484B584C12CD12C760110E09401A501F1
:10121000B601C701A0E00E94152299F1217030E0CB
:1012200040E050E060E070E080E090E00E94152235
:10123000D9F0D0E0C0E0103370F4C12FC695C69548
:10124000C69580E2C89FE0011124C05FDB4F812F6B
:101250008770C80FD11DCF01810F911DDC015296FF
:101260008C919881892B88839401A501B601C701CF
:1012700001E00E94FA2149015A016B017C011F5FC4
:10128000C5CF86849784A088B188C12CD12C7601E3
:1012900010E29401A501B601C701A0E00E94152249
:1012A00009F49DCF217030E040E050E060E070E054
:1012B00080E090E00E941522D9F0D0E0C0E0103329
:1012C00070F4C12FC695C695C695B0E2CB9FE001DC
:1012D0001124C05FDB4F812F8770C80FD11DCF0154
:1012E000810F911DDC0152968C919881892B888306
:1012F0009401A501B601C70101E00E94FA2149014C
:101300005A016B017C011F5FC4CFFC016F3F710567
:1013100081F1808581FD2DC0603271055CF581E031
:1013200090E002C0880F991F6A95E2F7809590952A
:10133000092E000CAA0BBB0B42855385648575856D
:1013400084239523A623B72382879387A487B58711
:1013500082859385A485B585892B8A2B8B2B49F4AF
:1013600086859785A089B189892B8A2B8B2B09F4D7
:10137000108608956052710981E090E002C0880FE4
:10138000991F6A95E2F780959095092E000CAA0B9B
:10139000BB0B468557856089718984239523A623D5
:1013A000B72386879787A08BB18BD2CFFC016F3F85
:1013B0007105E9F1603371051CF082E080870895C2
:1013C00080858160808760327105C4F481E090E09F
:1013D00002C0880F991F6A95E2F7092E000CAA0B2C
:1013E000BB0B4285538564857585842B952BA62B75
:1013F000B72B82879387A487B587089560527109B8
:1014000081E090E002C0880F991F6A95E2F7092EEB
:10141000000CAA0BBB0B4685578560897189842B0C
:10142000952BA62BB72B86879787A08BB18B08951A
:10143000E0ECF8E020812E7F2083FC0117820895E4
:10144000E0ECF8E082818E7F82830895E0ECF8E0A2
:101450008281816082830895DC011A96ED91FC916E
:1014600030E020E00994DC011696ED91FC9130E02B
:1014700020E040E069E10994DC011696ED91FC91D1
:1014800030E020E040E068E109949A01DC01169622
:10149000ED91FC91462F67E10994EF92FF920F9333
:1014A0001F93CF93DF931F92CDB7DEB77C018B01E3
:1014B000D8016C91673129F150F46531A0F40F9097
:1014C000DF91CF911F910F91FF90EF9008956A31B6
:1014D00018F16E3FA1F7F8014181498369E2C70124
:1014E0000E942C0A0BC0F80141814983D70116964E
:1014F000ED91FC9130E020E0C70109950E5F1F4F90
:10150000D7CFF80181818983AE014F5F5F4F61E0E2
:10151000C7010E94450AF2CF0F5F1F4FD7011696F1
:10152000ED91FC9130E020E040E0C7010995C0CF8B
:10153000462FDC011696ED91FC9130E020E066E14B
:101540000994462FDC011696ED91FC9130E020E0E5
:1015500065E10994EF92FF920F931F93CF93DF936E
:10156000EC01042F79016D3009F446C050F46B3062
:10157000C9F1693009F49FC06A3009F465C080E0A0
:1015800046C06E3009F452C06F3099F70E943C0A91
:10159000F7011381110F110F110F6C89160F60E401
:1015A000CE010E94A10A612F62956F706061CE0129
:1015B0000E94A10A612F6F70CE010E94980AF70164
:1015C0006481606BCE010E94980AF70140815181CD
:1015D0006281660F660F660FCE010E94450A0150B8
:1015E000A1F72EC06BE17DE8442311F066E17DE8B0
:1015F000CE010E944D0A0AC0411110C06FE07DE883
:101600000E944D0AE881F98182898C8B81E0DF910B
:10161000CF911F910F91FF90EF90089568E07DE8C2
:101620000E944D0AE881F9818389EFCF0E943C0A2C
:1016300061E8CE010E94A10A602FCE010E94980AA3
:10164000CE010E94330AE2CFEA85FB8530E020E03C
:1016500040E068E2CE010995EE81FF8130E020E0B4
:1016600040E064E1CE01099541E06BE4CE010E94C7
:101670002C0AE881F981448169E2CE010E942C0A9A
:1016800040E06BE4CE010E942C0AE881F98144819C
:1016900069E2CE010E942C0A41E06BE4CE010E9477
:1016A0002C0AE881F981458169E2CE010E942C0A69
:1016B00060E27DE89DCF85E59DE8888399831C8A5B
:1016C000A5CFDC011896ED91FC9130E020E040E0E0
:1016D00069E10994DC011896ED91FC9130E020E07D
:1016E00040E068E10994CF93DF931F92CDB7DEB756
:1016F0006983BE016F5F7F4F0E94CA040F90DF9124
:10170000CF910895EF92FF921F93CF93DF93EC0157
:10171000162F7A010E946A0B60E4CE010E94730BBF
:10172000E885F9859701412F67E1CE010995CE0142
:10173000DF91CF911F91FF90EF900C94610BEF928E
:10174000FF921F93CF93DF93EC01142F7901663141
:1017500081F138F4643109F44BC0653179F080E0EF
:1017600022C06831C9F150F16931C9F7809135283B
:10177000882391F1CE010E94610B2EC08091352803
:10178000882319F0CE010E94610BCE010E946A0BE2
:1017900060E0CE010E94730B612FCE010E94730B9B
:1017A00081E080933528DF91CF911F91FF90EF90DA
:1017B0000895642F0E94730B81E0F5CF8091352846
:1017C000882319F0CE010E94610BA701193138F46A
:1017D000612FCE010E94820B10923528EDCF68E177
:1017E000CE010E94820B185188E1E80EF11CEDCF6A
:1017F0008E898F3F11F488E78E8BE885F9859701F4
:10180000412F64E1CE01DF91CF911F91FF90EF90C6
:101810000994CF93DF93EC01A889B989FD01349134
:1018200031969491319684911396FD01A49163179A
:10183000A8F1961798F1631B770B8A9FE02D11246E
:10184000E69FC001E79F900D1124280F392F311D0D
:1018500083E0220F331F8A95E1F7C9010496DA016C
:10186000245F3F4FE889F989E80FF91FE491ED9370
:10187000019682179307B1F78D89882361F0FA01E9
:101880009A01285F3F4F8191DF01119780958C93DA
:101890002E173F07C1F7DF91CF910895FA01CA01D2
:1018A00008961192E817F907E1F7E6CF4F925F9299
:1018B0006F927F928F929F92AF92BF92CF92DF9260
:1018C000EF92FF920F931F93CF93DF93CDB7DEB7C5
:1018D0002D97CDBFDEBF7C01C62ED42EB22EDC01EB
:1018E00050968D919C91FC01329614913196049101
:1018F000512E560E040F81E0860F581608F411E0A1
:10190000712CFE0131964F0144244394672CAC2C7A
:10191000262DA4016B2DC7010E94090CAC86DD8623
:101920004B8689869A86D7011496ED91FC919E018B
:10193000275F3F4F41E06FE0C70109956394A3948F
:10194000A51430F3D394710ED01600F32D96CDBFAD
:10195000DEBFDF91CF911F910F91FF90EF90DF904D
:10196000CF90BF90AF909F908F907F906F905F903F
:101970004F900895262F482F42954F70440F682F9F
:101980006F7082EE99E20C94560CE0918629F0E09B
:10199000E951F2476EE380810C94BA0CCF93DF9348
:1019A000EC01683189F130F4643199F0673151F01C
:1019B00080E005C06931B9F16032D1F781E0DF9193
:1019C000CF91089550E0B90188E899E20E945F073D
:1019D000F5CF8C859D85AE85BF85892B8A2B8B2B7A
:1019E00071F4E881F981A585B0E020EA36E841E0AC
:1019F00050E00E948A1F6C877D878E879F8788E8CA
:101A000099E20E945508DACF6C857D858E859F8589
:101A10000E949C066E8970E07595679588E899E24A
:101A20000E94C607CBCF88E899E20E949F07C6CFE5
:101A30000F931F93CF93DF938C016C32C0F46A3203
:101A400008F040C0683269F1693209F44BC080E0A7
:101A50006034C8F16F73F801E60FF11D868D8F3F7A
:101A600089F1603108F05DC0642F70E057C06D32BD
:101A700009F43FC060F384EB860F823040F7C62F35
:101A8000CF73C00FD12FD11D8E8D411140C070E09A
:101A900060E00E94680561E070E08E8D0E946D0537
:101AA00011C0025E1F4FD0E0F80181918F018F3F7E
:101AB00031F061E070E0D03158F40E946D05DF5FD5
:101AC000D63191F781E0DF91CF911F910F91089569
:101AD0000E946D0561E070E0F801319780810E94FD
:101AE0006805EDCF642F70E090E080E00E94CD05A6
:101AF000E9CF85E090E0433010F082E090E0880F7D
:101B0000991F880F991F05970197F1F7DBCF61E0C7
:101B100070E00E946D0561E070E08E8D0E946805A6
:101B2000D1CF0E94430521E0892B09F420E0F80180
:101B3000218FC8CF1F93CF93DF93EC01EC89FD89F0
:101B400049AD6A3059F43396E491E40FE9AF18AE29
:101B500081E090E0DF91CF911F910895262F32967A
:101B6000149168AD04960E94560CE8ADE10FE8AF01
:101B7000EFCFF0E0E0E06623C9F0262F2150330BD1
:101B8000F901F595E795DC0127E2AD01481B590BFA
:101B9000E417F50714F02D93F8CF319660FF06C0D7
:101BA000DC01AE0FBF1F119724E22C93E80FF91F41
:101BB00020E2AF01481B590B4730510514F4219323
:101BC000F8CF1082089581E0611180E008952FEF31
:101BD000260F253030F4FC01E60FF11D8289805874
:101BE000828B80E00895653031F0663039F06430E2
:101BF00049F080E00895FC01178AFBCF2CE3FC013B
:101C0000208FF7CF81E00895FC01653091F06630B8
:101C1000B1F0611119C08289DF01A45ABF4F9C91B4
:101C2000981790F42689222311F0928B08958C93B3
:101C30000895808D9789891738F4878B089587894F
:101C4000908D981708F4808F08952F923F924F92AD
:101C50005F927F928F929F92AF92BF92CF92DF92CC
:101C6000EF92FF920F931F93CF93DF937C01742E1B
:101C7000C62FD0E08E01000F111F000F111F0E0D97
:101C80001F1DF8012289222331F1C388D12C822E15
:101C9000912C84895401A81AB10830E050E040E04A
:101CA00060915E2970915F298091602990916129EE
:101CB0000E949D1F6A0D7B1D6C9DC0016D9D900D46
:101CC0007C9D900D1124B4010E94DE21BB24B394AD
:101CD0008C159D050CF0B12C80916B29882309F19E
:101CE000BB2069F0F8018589882349F061E070E044
:101CF000872D0E946805CE0DDF1D81E08D8FDF915D
:101D0000CF911F910F91FF90EF90DF90CF90BF90F8
:101D1000AF909F908F907F905F904F903F902F90CB
:101D2000089520906C2930906D2940906E29509034
:101D30006F298091662990916729A0916829B091B7
:101D40006929281A390A4A0A5B0AF801A5892091EB
:101D50006229309163294091642950916529B0E04E
:101D60000E948A1F29E030E040E050E00E949D1F61
:101D7000221633064406550610F2BB2009F4BFCFE5
:101D8000CE0DDF1D8D8D882309F4B9CF70E060E0A2
:101D9000872D0E9468051D8EB2CFCF93DF93EC0193
:101DA00041E060E00E94250E40E061E0CE01DF915D
:101DB000CF910C94250EE62FF0E06370613061F056
:101DC00018F0623081F00895E80FF91F8389928935
:101DD000981740F4828B06C0E80FF91F8189928919
:101DE0008917C0F30895E80FF91F8089F8CF809113
:101DF0008729882361F080913428882319F080E0B6
:101E00000E94860481E0809334280C941C04089579
:101E10001F93CF93DF93CDB7DEB7C154D109CDBFA8
:101E2000DEBF182FE0918729A0918629B0E0A95143
:101E3000B2478C91EE2339F191E49E9FF001112479
:101E4000E85EF54DDE01119601900D929A95E1F74D
:101E500091E0980F492F50E0DA01AB59B44D21E0E1
:101E600030E0F901E40FF51F61E070E06C0F7D1FB9
:101E7000E60FF71F60816D932F5F3F4F27303105CD
:101E800081F79093E52B1092342860E20E94BA0CFF
:101E9000E091872971E4E79FF0011124E85EF54D98
:101EA00060818091862990E0019611163CF0112303
:101EB00051F080918629860F8150990B70E00E9425
:101EC000DE2180938629CF5BDF4FCDBFDEBFDF9160
:101ED000CF911F910C94C50CEF92FF920F931F931B
:101EE000CF93DF938C017B0170E060E088E00E947B
:101EF000FC04E701E11480E1F80614F0CFEFDFE025
:101F0000D7FF02C0D0E0C0E06D2F012BA9F46063C1
:101F100084E999E20E94D2086C2F84E999E20E9438
:101F2000D20861E070E088E0DF91CF911F910F91BE
:101F3000FF90EF900C94FC04606BEACF909187299E
:101F4000911119C0209100283091012887FF0EC0FF
:101F500021503109209300283093012860910028F6
:101F60007091012890E080E00C946C0F8823B1F30D
:101F70002F5F3F4FEFCF913059F4909186299530E4
:101F8000B9F0913059F490916A29992339F0089564
:101F9000943021F490918629943051F09091342816
:101FA00091110E94860481E0809334280C941C04D3
:101FB0000895CF92DF92EF92FF920F931F93CF93EA
:101FC000DF936C01EB017B01E40EF51E10E000E0F5
:101FD000CE15DF0561F06991D601ED91FC9101907C
:101FE000F081E02DC6010995080F191FF1CFC80136
:101FF000DF91CF911F910F91FF90EF90DF90CF90E5
:102000000895089590E080E0089580E0089508958F
:102010000895CF93DF93CDB7DEB7C154D109CDBFBB
:10202000DEBF81E08093E52B10928629E09187291D
:1020300081E4E89FF0011124E85EF54D81E4DE01C2
:10204000119601900D928A95E1F7BE016E5F7F4F68
:1020500085E69BE20E9446236EE380E0CF5BDF4F84
:10206000CDBFDEBFDF91CF910C94BA0CE0918629F1
:10207000F0E0E951F24760E280810E94BA0C809161
:10208000872981110BC0809186298F5F80938729D2
:10209000109234280E9409100C94C50C10928729C4
:1020A000F7CFCF93DF93EC01CB01423009F469C045
:1020B00038F4442379F04130E1F1DF91CF91089574
:1020C000433009F472C04430C1F76E89DF91CF917B
:1020D0000C94B90D2A89211124C061E77EE80E9481
:1020E000462310926A292B8930E050E040E060ECF2
:1020F00071EE84EE90E00E946B1F20936229309372
:1021000063294093642950936529C9E7DDE870E0AD
:1021100060E089910E9468058DE8CE37D807B9F74D
:10212000CCCF68E77EE80E94462381E080936A294D
:10213000ECCF2B891F922F932FE73EE83F932F93ED
:102140009F936F930E944D230F900F900F900F90CD
:102150000F900F9080916A298111AFCF2B8930E0C9
:1021600050E040E060EC71EE84EE90E00E946B1F66
:102170002093622930936329409364295093652901
:102180009CCF2C891F922F9326E83EE83F932F93F4
:102190009F936F930E944D2381E08D8B0F900F9042
:1021A0000F900F900F900F9088CF2D891F922F9333
:1021B0002DE83EE83F932F939F936F930E944D230A
:1021C00081E08C8BEBCF9C01862F6CE00E94BE21BE
:1021D0001F928F93E92FF0E0EE0FFF1FE051F347BE
:1021E00081818F9380818F9384E99EE89F938F9361
:1021F0003F932F930E944D238DB79EB708968DBFB6
:102200009EBF0895CF93DF93EC01CB01463009F1D7
:10221000473089F1411134C02A891F922F932FE74B
:102220003EE83F932F939F936F930E944D230F900F
:102230000F900F900F900F900F908A89811106C018
:1022400070E060E089E00E94FC041B8EDF91CF917A
:102250000895288D1F922F932DE93EE83F932F93E9
:102260009F936F930E944D230F900F900F900F90AC
:102270000F900F90EBCF698DDF91CF910C94B90D3A
:10228000C40FD11D6A8967FF06C064EA7EE8DF914A
:10229000CF910C944623DF91CF910C94E310CF9310
:1022A000DF93EC01483048F5CB01E42FF0E0E55A2C
:1022B000FE4E0C94F2216311B11185119E11A411EF
:1022C0008011AF11BA112A891F922F932FE73EE890
:1022D0003F932F939F936F930E944D230F900F90E6
:1022E0000F900F900F900F908A89811106C070E0B7
:1022F00060E08AE00E94FC041B8EDF91CF9108957C
:102300006F89DF91CF910C94E310EC89F0E0EE0F30
:10231000FF1FE051F34721812F9320812F932BEA58
:102320003EE83F932F939F936F930E944D230F900E
:102330000F900F900F900F900F90DFCF6D89660F69
:10234000DF91CF910C94B90D2E8963EB7EE82223A7
:1023500011F06AEB7EE8DF91CF910C944623688DF3
:10236000D0CFEB89F0E0EE0FFF1FE85AF347608112
:102370007181F1CF698DE4CFFF920F931F93CF93BB
:10238000DF938C01D62FF72EC42FDC01ED91FC9149
:102390000280F381E02D642F09958C2F8370F80162
:1023A000EC0FF11D8330D1F462898D2F9F2D0E9497
:1023B000B90D70E060E081E0C43008F080E00E9478
:1023C000FC04EC2FE695E695E00FF12FF11D158E3C
:1023D000DF91CF911F910F91FF90089582891F92F5
:1023E0008F938FE79EE89F938F93FF92DF930E94D6
:1023F0004D230F900F900F900F900F900F90D9CF0B
:102400000C94BD22CF92DF92EF92FF920F93FC01CA
:10241000C12CB9E0DB2EBDE3EB2EF12CC082D182C2
:10242000E282F3821482158281E090E086839783B2
:10243000C0900228D0900328E0900428F09005284E
:10244000F694E794D794C79490E04C155D056E051B
:102450007F0540F4F694E794D794C7949F5F963035
:10246000A1F797E004600187892F8095A82FA170BC
:10247000B0E084E0AA0FBB1F8A95E1F791629A2B26
:1024800080E0232B09F480E4982B90870F91FF9034
:10249000EF90DF90CF9008950F931F93CF93DF932A
:1024A000CDB7DEB72A97CDBFDEBF8C01FC01878197
:1024B00081110CC01086118612861386148615862B
:1024C00016861786108A118A81E087838091E3053A
:1024D000F8019681892B8093E30561E070E08381A8
:1024E0000E946D0561E070E0F80184810E946D0535
:1024F0008091C10884608093C1088091C008816286
:102500008093C0084091D6295091D7296091D8294D
:102510007091D9290091DA292091DC293091DD29A7
:10252000CE0101960E94021299858A859093C00877
:102530008093C1082A96CDBFDEBFDF91CF911F9156
:102540000F9108955F926F927F928F929F92AF92B8
:10255000BF92CF92DF92EF92FF920F931F93CF9390
:10256000DF93CDB7DEB76297CDBFDEBF3C010B87EF
:102570001C872D873E87042F4F87588B698B7A8B5A
:1025800029893A894B855C856D857E85CE010196CA
:102590000E94021219855A84D30118968C918823BF
:1025A00019F081FF18C0F8941093C0085092C10828
:1025B0006296CDBFDEBFDF91CF911F910F91FF904B
:1025C000EF90DF90CF90BF90AF909F908F907F90D3
:1025D0006F905F90089580FFE7CFF301828493842A
:1025E000A484B584C12CD12C7601B0E09401A5015E
:1025F000B601C701A0E00E941522A9F1217030E0C8
:1026000040E050E060E070E080E090E00E94152241
:10261000E9F090E080E0B03370F48B2F86958695DA
:102620008695F0E28F9FC0011124805F9B4F2B2F76
:102630002770820F911DFC01408193012B0F311DEA
:10264000F901428BFC012081287F20839401A501A0
:10265000B601C70101E00E94FA2149015A016B014C
:102660007C01BF5FC3CFD3011E968D909D90AD902E
:10267000BC905197C12CD12C7601B0E29401A501F8
:10268000B601C701A0E00E94152209F48DCF217088
:1026900030E040E050E060E070E080E090E00E94D8
:1026A0001522E9F090E080E0B03370F48B2F86952E
:1026B00086958695E0E28E9FC0011124805F9B4F36
:1026C0002B2F2770820F911DFC01408193012B0F4E
:1026D000311DF901428BFC012081287F2083940168
:1026E000A501B601C70101E00E94FA2149015A0182
:1026F0006B017C01BF5FC2CF8F929F92AF92BF925E
:10270000CF92DF92EF92FF921F93CF93DF93EC0172
:10271000C0906229D0906329E0906429F0906529E7
:102720001C89212F30E050E040E0C701B6010E9433
:102730009D1F2C8F3D8F4E8F5F8F80916C299091C4
:102740006D29A0916E29B0916F2960916B29662344
:1027500009F447C088A399A3AAA3BBA380916A29BF
:10276000882349F060EC71EE84EE90E0A7019601B9
:102770000E949D1F2B8B2D8930E050E040E060913E
:102780005E2970915F2980916029909161290E9452
:102790009D1F672B682B692BC1F40E940C1FCE88EC
:1027A000D12CF12CE12C2AE030E040E050E00E94F6
:1027B0006B1F6C157D058E059F053CF461E070E094
:1027C00081E10E94FC0481E08B8FDF91CF911F910A
:1027D000FF90EF90DF90CF90BF90AF909F908F9041
:1027E0000895C0906629D0906729E0906829F090FC
:1027F00069294C015D018C189D08AE08BF08750160
:10280000640168E9C6166AE3D606E104F10450F0F3
:102810006B8D662339F070E060E081E10E94FC047A
:102820001B8ED3CF123088F2C8A0D9A0EAA0FBA09B
:102830008C199D09AE09BF0982179307A407B50734
:1028400060F12CA121113AC00E940C1FCE88D12C1E
:10285000F12CE12C2AE030E040E050E00E946B1FB8
:102860006C157D058E059F053CF461E070E081E10B
:102870000E94FC0481E08CA388A199A1AAA1BBA11C
:102880004C8D5D8D6E8D7F8D840F951FA61FB71F9C
:1028900088A399A3AAA3BBA398CF88399A43A1057B
:1028A000B10508F492CF8CA1882309F48ECF70E093
:1028B00060E081E10E94FC041CA287CF88399A4322
:1028C000A105B10508F481CFF2CFCF92DF92EF924C
:1028D000FF920F931F93CF938C01C62F6091002816
:1028E00070910128072E000C880B990B0E9478200C
:1028F0006B017C016C2F70E090E080E00E947820FA
:102900009B01AC01C701B6010E94042120E030E028
:1029100040E452E40E94CE1F0E9471210E94402098
:10292000C801CF911F910F91FF90EF90DF90CF9052
:102930000C946C0FCF92DF92EF92FF920F931F9344
:10294000CF93DF93EC010A890023B1F1288D30E0A9
:1029500050E040E060915E2970915F29809160298C
:10296000909161290E949D1F69017A01672B682B54
:10297000692B11F580916B29882339F1202F30E0E4
:1029800050E040E0C701B6010E949D1F6F5F7F4F7E
:102990008E01060F171FF801828987FD16C061E0BE
:1029A00070E089E00E94FC04F801628990E080E018
:1029B0000E94651481E08B8FDF91CF911F910F9161
:1029C000FF90EF90DF90CF9008958B8D8823A1F337
:1029D000C0906C29D0906D29E0906E29F0906F29FD
:1029E0008091662990916729A0916829B091692901
:1029F000C81AD90AEA0AFB0AA98D209162293091E6
:102A000063294091642950916529B0E00E948A1F92
:102A10002AE030E040E050E00E949D1FC216D3063D
:102A2000E406F50648F270E060E089E00E94FC04EC
:102A30001B8EC2CF2F923F924F925F926F927F92E6
:102A40008F929F92AF92BF92CF92DF92EF92FF92BE
:102A50000F931F93CF93DF93CDB7DEB72C97CDBFE6
:102A6000DEBFDC0152962C915297222309F4E6C076
:102A70008C0180916B29882309F4F9C030E050E083
:102A800040E060915E2970915F298091602990916A
:102A900061290E949D1FF80126895801A60EB71EC4
:102AA000211172C034888789845F83198388912CAF
:102AB0004CE0489D9001499D300D1124F901E054EE
:102AC000F3472384642F0E94BE21F82EA92FB0E083
:102AD000AB87BC87D80158968C91845F83190E947C
:102AE000BE21492F50E0BF01640F751FDB014C90E0
:102AF000829D400C1124205A3347420F531FDA01A4
:102B00008C91481A512C712C612CAB85BC85EA0F35
:102B1000FB1FC080F29CC00C1124A20FB31F8C912C
:102B2000C81AD12CF12CE12CC414D504E604F70406
:102B30008CF44C185D086E087F0841F00E940C1F51
:102B4000A30192010E946B1F2B013C01C40CD51CF8
:102B5000E61CF71C8C2D90E0622D70E00E94DE21B7
:102B6000AC0194EF930D2CE0289DF001299DF00D10
:102B70001124E057F347E40FF51F8081890F269F4A
:102B8000800D1124F501848FD5015C968C91F8019C
:102B90009789891708F452C0908D891708F04EC0A4
:102BA00061E070E08AE00E94FC04D5015C966C91C3
:102BB000F80186898823D9F1E62EF12CFCE3EF0E8B
:102BC000F11C8AE0E2E4FCE8DE01119601900D922E
:102BD0008A95E1F70E940C1FD80159968C90912C90
:102BE000B12CA12C2AE030E040E050E00E946B1FA5
:102BF000681579058A059B05BCF50E940C1F25E028
:102C000030E040E050E00E946B1F660F771FE1E06C
:102C1000F0E0EC0FFD1F6E0F7F1FDB018D919C918B
:102C20008E0D9F1D6CE370E00E94DE21682F81E015
:102C300090E00E94651481E0F801838F2C96CDBF4F
:102C4000DEBFDF91CF911F910F91FF90EF90DF904A
:102C5000CF90BF90AF909F908F907F906F905F903C
:102C60004F903F902F90089590E080E0D9CF5B96F1
:102C70008C91882319F3C0906C29D0906D29E09035
:102C80006E29F0906F298091662990916729A09113
:102C90006829B0916929C81AD90AEA0AFB0AF80119
:102CA000A58920916229309163294091642950912E
:102CB0006529B0E00E948A1F23E096958795779555
:102CC00067952A95D1F7C616D706E806F90608F4DF
:102CD000B5CF70E060E08AE00E94FC04D8015B960A
:102CE0001C92ACCF1F920F920FB60F9211242F930C
:102CF0003F934F935F936F937F938F939F93AF9384
:102D0000BF9340917A2950917B2960917C297091E1
:102D10007D29809178299091792920917629309187
:102D20007729420F531F611D711D20917429309125
:102D30007529820F931F883E23E0920730F0885E4A
:102D400093404F5F5F4F6F4F7F4F809378299093F1
:102D5000792940937A2950937B2960937C29709339
:102D60007D298091822990918329A0918429B09115
:102D700085290196A11DB11D8093822990938329F5
:102D8000A0938429B093852981E08093860ABF911E
:102D9000AF919F918F917F916F915F914F913F91F3
:102DA0002F910F900FBE0F901F9018951F920F92AA
:102DB0000FB60F9211242F933F934F935F936F930E
:102DC0007F938F939F93AF93BF93CF93EF93FF9393
:102DD000C091AB08C2FF0AC01092502910924F292F
:102DE00010924E2984E00E94690614C0C6FF2FC0CD
:102DF00080914D29813051F480915029E0914B29E7
:102E0000F0914C2990E0099510924D29C0FF14C013
:102E10000E947906FF91EF91CF91BF91AF919F9161
:102E20008F917F916F915F914F913F912F910F9073
:102E30000FBE0F901F90189580E48093AB0881E03F
:102E40000E9469068091AB0885FFE4CFE1CFC7FF00
:102E50005CC0C3FF08C01092502910924F291092F5
:102E60004E2983E0C0CF8091A90880668093A9088D
:102E70008091AB0881FF2CC080914F29882349F0B5
:102E80008091AB0884FF05C082E08093AA0881E0AE
:102E9000AACF90914F2980914E299817A8F4E091DC
:102EA0004F298091462990914729E80FF92FF11D6C
:102EB00080818093AD0880914F298F5F80934F2947
:102EC00083E08093AA08A6CF82E08093AA088BCFE4
:102ED0009091502980914A29981790F48091AD08DB
:102EE000E09150292091482930914929E20FF32F90
:102EF000F11D8083809150298F5F80935029E0CF0E
:102F000086E08093AA0882E06ECF85E06CCF1F92A6
:102F10000F920FB60F9211242F933F938F939F938D
:102F2000EF93FF938091A508982F9C70E1F080911A
:102F3000A50894E082FF93E090935B298093A50815
:102F400081E090E0809351299093522910925C295E
:102F5000FF91EF919F918F913F912F910F900FBE15
:102F60000F901F90189586FF4EC020915829909180
:102F700057298091A50884FF15C080915429882382
:102F800079F083E08093A40885E080935B29109218
:102F90005C2981E090E08093512990935229D8CF09
:102FA00081E0F0CF80915629821790F4E091562964
:102FB0008091592990915A29E80FF92FF11D8081AC
:102FC0008093A808809156298F5F80935629C0CF9F
:102FD00080915529891760F484E090E0809351290D
:102FE000909352298091532981608093A708B0CF94
:102FF00080915429882329F083E08093A40881E0FC
:10300000C4CF81E0FACF87FF40C0909155298091CD
:1030100057299817D8F48091A808E0915529209154
:10302000442930914529E20FF32FF11D80838091CF
:1030300055298F5F80935529909157298091552963
:103040008917D8F482E08093A40882CF8091542914
:10305000882389F087E08093A40882E080935B292D
:1030600010925C2981E090E080935129909352293D
:10307000109257296DCF85E0EECF80915429882397
:1030800011F087E0BACF85E0B8CF86E07ECFFC01B3
:1030900020E53CE8219331930A9620E111922783A1
:1030A0001786E817F907D1F70895FF920F931F933A
:1030B000CF93DF9310928A2910928B2988EE93E0A8
:1030C000A0E0B0E080938C2990938D29A0938E2965
:1030D000B0938F2983EF9DE8809388299093892965
:1030E00080E099E0ADE3B0E08093D6299093D729B2
:1030F000A093D829B093D9291092DA291092DB290C
:1031000081E090E08093DC299093DD298BE19EE8BB
:10311000809394299093952910929B2982E0809323
:103120009A298CE0809396298DE0809398298BE0F2
:103130008093972988E0809399291092E029109232
:10314000E1291092162A1092172A89E39EE88093AB
:10315000DE299093DF291092E2291092E329109240
:10316000F7291092FA291092EE291092EF29109265
:10317000F0291092F1298FEF8093F8298093FC2990
:10318000E0E0FAE2CFEFC1932AE2E631F207D9F7A5
:103190008AEA9AE08093E6299093E7298FE99BE0F9
:1031A0008093E8299093E9298EEC9CE08093EA29AA
:1031B0009093EB2988E19DE08093EC299093ED2991
:1031C00030E020E040E069E082EE99E20E94AA0A45
:1031D000C0930B2AC0930C2AC0930D2AE5EAFBE2A8
:1031E00080E281939BE2E43EF907D9F71092E42B49
:1031F00085E290E00E942122EC010E94471889E6B6
:103200009EE8888399831A8A88E78B8B11E01C8B50
:103210001D8B1A821A878EE18B831C831D8380EF9E
:103220008B8704E00C870D871CA21E828AE08E87A4
:103230008E8BC0935D2BD0935E2B8FE190E00E942C
:103240002122EC010E9447188DE59EE8888399832E
:1032500080E18A8B0B8B0D8B1D8398E0F92EFD8608
:103260008E8B0F8B82E0888F098F1987F98AC09324
:103270005F2BD093602B8CE190E00E942122EC0127
:103280000E94471881E59EE888839983FA8E85E03D
:103290008A871A8AFE013396CE0109960CE31192B1
:1032A00007838E179F07D9F71B8A8CE08C8B88E1E8
:1032B0008D8B84E28E8B80E38F8B11E01887188FC3
:1032C00080E1888B198789E0898B85E0F82EF98E5B
:1032D000C093612BD093622B8DE590E00E94212258
:1032E000EC010E94471885E49EE8888399831A8A36
:1032F00080E48A871F8A0F878BE08C871D83FD8679
:1033000084E08D8B1E87088F088B83E08B8719865E
:103310008AE0898B198EFE017C96CE01845A9F4FDC
:103320001192E817F907E1F71082C093632BD0934D
:10333000642B1092192A10921A2A8EE3EBE1FAE21A
:10334000DF01282F1D922A95E9F794E09093182A1F
:1033500010925A2A10925B2AECE5FAE2DF01282F3C
:103360001D922A95E9F795E09093592A10929B2A8D
:1033700010929C2AEDE9FAE2DF01282F1D922A958E
:10338000E9F798E090939A2A1092DC2A1092DD2AAD
:10339000EEEDFAE2DF01282F1D922A95E9F79093CE
:1033A000DB2A10921D2B10921E2BEFE1FBE2DF01B6
:1033B0001D928A95E9F790931C2BDF91CF911F9175
:1033C0000F91FF900895CF93DF93CDB7DEB7289785
:1033D000CDBFDEBF88ED90E084BF9093610080E0B8
:1033E00094E2A4EFB0E08093022890930328A09386
:1033F0000428B09305288091020686608093020617
:1034000080910006816080930006809102068F7C87
:10341000809302068091A0008F788093A000809115
:1034200002068061809302061092E20581E080939B
:10343000E40583E08093010A8FEF90E08093260AF1
:103440009093270A80E890E08093380A9093390A95
:1034500080933A0A90933B0A80933C0A90933D0AEA
:103460008BE08093000A8091E50581608093E505FB
:103470008091E50582608093E505E0E8FAE037E0B9
:103480002FEF90E885E031832487958780837096BD
:10349000E03C4AE0F407B9F780E094E080938029AB
:1034A0009093812980918029909181292FEF30E09C
:1034B000B9010E94CA2160937E2970937F2980916F
:1034C000802990918129E8EEF3E0BF010E94CA2192
:1034D0006093762970937729809180299091812932
:1034E000BF010E94CA21809374299093752920936B
:1034F0008C0A30938D0A8091850A81608093850AB9
:1035000084E08093800A8091800A81608093800AA1
:10351000789484E999E20E944C12109287291092C3
:10352000862910926A2910925D2910925E291092C4
:103530005F29109260291092612988E498EEA1E039
:10354000B0E08093622990936329A0936429B0939B
:1035500065290E949E056093662970936729809370
:10356000682990936929E091E629F091E72930E0F4
:1035700020E040E06AE082EE99E20995CE010196F2
:1035800028E0DC011D922A95E9F70E945604E0919B
:10359000E629F091E72930E020E040E06BE082EEA0
:1035A00099E209958AEE91E08093F2299093F329AC
:1035B00030EEE32E31E0F32E10E000E0F7016591EC
:1035C0007491C801875E954D0E94641FB2E0EB0EB6
:1035D000F11C0F5B1F4F0534E1E01E0779F781EC0A
:1035E0009EE89F938F9386EC9EE89F938F9385EA46
:1035F0009BE29F938F930E944D2325EAE22E2BE2BC
:10360000F22E0F900F900F900F900F900F9010E0F0
:10361000D7016D917D01812F0E94BA0C1F5F1F336E
:10362000B9F709E71DE87801F701D1907F0161E062
:1036300070E08D2D0E946D0570E060E08D2D0E9480
:103640006805FFE7EF16FDE8FF0671F799E7E92E39
:103650009DE8F92E61E070E0D7018D917D010E9417
:10366000680564EF71E080E090E00E94CD05BEE760
:10367000EB16BDE8FB0671F770E060E0F8018191A0
:103680008F010E946805FDE80E371F07A9F70E9409
:1036900009100E94C50CE5E7EE2EEDE8FE2EF1E7DD
:1036A000AF2EFDE8BF2EADE6CA2EADE8DA2EB9E7A3
:1036B0006B2EBDE87B2E10E7812E19E2912E08EECD
:1036C000402E03E0502E8AEF282E312C80E390E02C
:1036D0000E9421228C01D7019C91B2E0EB0EF11CDB
:1036E000F5012081F2E0AF0EB11CD6018C91B2E061
:1036F000CB0ED11C37E0F801338343E0448335839C
:103700001682A1E0A783B2E3B08741865286238662
:103710003486158616861786108A118E128E138EA1
:10372000148E158E168E178E10A211A212A213A23D
:1037300014A215A216A217A210A611A612A613A6CD
:1037400014A615A616A617A680832183928362E08D
:1037500070E00E946D0562E070E0D80111968C91D6
:103760000E946D0562E070E0F80182810E946D05A3
:10377000D4010D931D934D016E147F0409F0A6CF63
:10378000E0917029F091712988E09FE0848F958FF6
:1037900086E390E182A393A389E096E080A791A7B6
:1037A000E0917229F09173298EE99FE0848F958FC3
:1037B00087EF9EE082A393A373E0272E312C412C48
:1037C000512C772473946624639460E7A62E69E2F3
:1037D000B62EF501019111915F010E94FD05D801FE
:1037E0001D96CD90DD90ED90FC905097AB01BC0103
:1037F0004C195D096E097F0917968C9190E0B0E035
:10380000A0E0481759076A077B0708F491C00E9497
:10381000FD05F801658776878787908B8680912CD8
:1038200082810E9443056C01D8018C910E9443055E
:103830007C01F80181810E944305C824D924CC0C65
:10384000DD1CCC0CDD1CEE0CFF1CE82AEC28D8019A
:103850001396EC92139714969C9114972E2D29276A
:10386000237009F42EC1B4E09B9F900111249E2D7A
:103870009370922BF80194839B3409F01CC13FEFA5
:10388000318FF8019581F12CF594E794F594E79444
:10389000E926E0FE1EC10E94FD05D8015196CD909B
:1038A000DD90ED90FC905497AB01BC014C195D0983
:1038B0006E097F0918968C9190E0B0E0A0E0841723
:1038C0009507A607B70770F4F801858180FDFCC055
:1038D00075820E94FD05D80151966D937D938D935D
:1038E0009C935497D80115968C911597833009F4C1
:1038F0005DC108F0F6C0882309F42BC1813009F4BA
:103900005CC1F801818D928D81110BC2911101C0B2
:10391000138ED8015B968C915B9781111AC25A96CF
:103920008C915A97833009F46FC1843009F475C1C2
:10393000E4E7F9E2EA15FB0509F04BCF8091E52BAE
:103940008034C9F0E82FF0E0EB59F44D803408F0F2
:10395000A3C19F0125563B42619141E0480F97ADBD
:10396000691709F497C18093E52BF901EB55F44DE4
:1039700060830E94BA0C0E949E05AB01BC0140937B
:103980006C2950936D2960936E2970936F29109262
:103990006B2980916A29882309F487C1F5E0F093A7
:1039A00006067092080680910B0680FFFCCF2FB7A9
:1039B000F89490911006809111062FBF89279827BF
:1039C000892720915D29893E93400CF068C121111F
:1039D00059C060925D2980915E2990915F29A091E4
:1039E0006029B09161290196A11DB11D80935E29C6
:1039F00090935F29A0936029B093612960926B290D
:103A0000C0906C29D0906D29E0906E29F0906F29BC
:103A10006091622970916329809164299091652950
:103A2000660F771F881F991F0091662910916729DB
:103A30002091682930916929601B710B820B930BCF
:103A40006C0D7D1D8E1D9F1DA20191010E949D1F69
:103A50002093622930936329409364295093652908
:103A6000C0926629D0926729E0926829F09269296C
:103A700080918729813031F480918629813011F439
:103A80000E941C040DE51BE2D8018D919D918D01D2
:103A9000DC01ED91FC910480F581E02D0995BBE2FC
:103AA00005361B0789F7E0E0F0E0EF2B09F48DCE37
:103AB0000E94000086CE973811F4718EE2CE118EEE
:103AC000E0CE59961C92DDCEE6E0D8011596EC9337
:103AD00000CF0E94FD05F801618B728B838B948B64
:103AE00001CF8430D1F1863009F00BCFE4E0159698
:103AF000EC931597F3E05A96FC935A9794968D9110
:103B00009C91892BE1F00E94FD05D8015596CD903E
:103B1000DD90ED90FC905897AB01BC014C195D090C
:103B20006E097F091B968D919C91B0E0A0E048172B
:103B300059076A077B0718F434E0F801328F0E94B6
:103B4000FD05D80155966D937D938D939C93589761
:103B5000D8CE37E0F801328FD4CE5A968C9184506B
:103B60008230C8F40E94FD05F801C588D688E78830
:103B7000F08CAB01BC014C195D096E097F09818590
:103B80009285B0E0A0E084179507A607B70718F460
:103B9000158236E0E0CFD8015A968C915A97E5E02D
:103BA000833009F0AECE5A96EC93ABCEE7E0159693
:103BB000EC9315975A961C92A4CEE3E01596EC93DD
:103BC00015975A969C915A979650923018F45A9697
:103BD0008C9397CEE2E0E7CFE5E0D8015B96EC93DB
:103BE0005B975C96ED91FC91309709F4AFC0099515
:103BF00090CE963008F48DCEE7E05B96EC935B9721
:103C00009096ED91FC91F0CF32E0F801338F02A055
:103C1000F3A1E02D309741F48BCEE3E05B96EC937B
:103C20005B979496ED91FC91099582CEF801738E85
:103C300006A0F7A1E02DEECF843071F4D8015A969A
:103C40008C915A97813009F073CE5B968C935B9779
:103C50009A96ED91FC91DECF863059F4F801828D71
:103C60008150823008F064CE738E04A4F5A5E02D57
:103C7000D1CF873009F05CCED8015A968C915A97F3
:103C8000813009F055CE5B968C935B979E96ED91B3
:103C9000FC91C0CF842F5ACE8093E52B6CCE22238B
:103CA00009F4F0CE10925D29EDCE809166299091B5
:103CB0006729A0916829B091692900916229109122
:103CC00063292091642930916529481B590B6A0B9F
:103CD0007B0B401751076207730708F4D3CE800FA0
:103CE000911FA21FB31F8093662990936729A09309
:103CF0006829B093692980915E2990915F29A091EC
:103D00006029B09161290196A11DB11D80935E29A2
:103D100090935F29A0936029B093612960926B29E9
:103D2000B1CE992309F458CF2CEF290F223038F067
:103D3000D8015B962C915B97263009F05ACF36E07C
:103D4000F801338F068CF78DE02D4ECFD8015B96AE
:103D50008C919EEF980F923008F06ECFD8015A9652
:103D60008C915A97823009F461CF863009F0E0CD0A
:103D7000E4E05B96EC935B979896ED91FC914ACFCB
:103D80008F929F92AF92BF92CF92DF92EF92FF926B
:103D9000CF93DF93EC01688179818A819B816115E2
:103DA00071058105910521F464E279ED8BE597E0D9
:103DB0002DE133EF41E050E00E946B1F49015A01B1
:103DC0009B01AC01A7EAB1E40E948A1F6B017C0150
:103DD000ACEEB4EFA50194010E94981FC60ED71E49
:103DE000E81EF91EF7FE06C081E0C81AD108E108F6
:103DF00080E8F80AC882D982EA82FB82C701B6014C
:103E00009F77DF91CF91FF90EF90DF90CF90BF90A1
:103E1000AF909F908F9008958F929F92AF92BF9294
:103E2000CF92DF92EF92FF9260910628709107285F
:103E300080910828909109286115710581059105E7
:103E400021F464E279ED8BE597E02DE133EF41E079
:103E500050E00E946B1F49015A019B01AC01A7EA87
:103E6000B1E40E948A1F6B017C01ACEEB4EFA501A6
:103E700094010E94981FC60ED71EE81EF91EF7FE79
:103E800006C081E0C81AD108E10880E8F80AC092AB
:103E90000628D0920728E0920828F0920928C70146
:103EA000B6019F77FF90EF90DF90CF90BF90AF90DB
:103EB0009F908F90089560930628709307288093B1
:103EC0000828909309280895FB01DC0105900D92C4
:103ED0000020E1F70895052E97FB1EF400940E9440
:103EE000821F57FD07D00E949D1F07FC03D04EF490
:103EF0000C94821F50954095309521953F4F4F4F20
:103F00005F4F089590958095709561957F4F8F4F85
:103F10009F4F08950E94BF1FA59F900DB49F900DC5
:103F2000A49F800D911D11240895B7FF0C948A1F42
:103F30000E948A1F821B930B0895A1E21A2EAA1BCE
:103F4000BB1BFD010DC0AA1FBB1FEE1FFF1FA21749
:103F5000B307E407F50720F0A21BB30BE40BF50B46
:103F6000661F771F881F991F1A9469F760957095CF
:103F7000809590959B01AC01BD01CF010895A29F52
:103F8000B001B39FC001A39F700D811D1124911D2D
:103F9000B29F700D811D1124911D08950E94E21F92
:103FA0000C94CA200E94C32058F00E94BC2040F00C
:103FB00029F45F3F29F00C94B32051110C94FE209A
:103FC0000C94B9200E94DB2068F39923B1F35523A8
:103FD00091F3951B550BBB27AA276217730784071C
:103FE00038F09F5F5F4F220F331F441FAA1FA9F3B2
:103FF00035D00E2E3AF0E0E832D091505040E695A0
:10400000001CCAF72BD0FE2F29D0660F771F881F00
:10401000BB1F261737074807AB07B0E809F0BB0BF3
:10402000802DBF01FF2793585F4F3AF09E3F510507
:1040300078F00C94B3200C94FE205F3FE4F3983E9C
:10404000D4F3869577956795B795F7959F5FC9F7F0
:10405000880F911D9695879597F90895E1E0660F71
:10406000771F881FBB1F621773078407BA0720F0EA
:10407000621B730B840BBA0BEE1F88F7E095089553
:104080000E9447206894B1110C94FE2008950E946C
:10409000E32088F09F5798F0B92F9927B751B0F0D7
:1040A000E1F0660F771F881F991F1AF0BA95C9F7BC
:1040B00014C0B13091F00E94FD20B1E008950C943D
:1040C000FD20672F782F8827B85F39F0B93FCCF3F0
:1040D000869577956795B395D9F73EF49095809539
:1040E000709561957F4F8F4F9F4F0895E89409C059
:1040F00097FB3EF490958095709561957F4F8F4F1B
:104100009F4F9923A9F0F92F96E9BB279395F69530
:10411000879577956795B795F111F8CFFAF4BB0FAE
:1041200011F460FF1BC06F5F7F4F8F4F9F4F16C012
:10413000882311F096E911C0772321F09EE8872F9C
:10414000762F05C0662371F096E8862F70E060E058
:104150002AF09A95660F771F881FDAF7880F9695D1
:10416000879597F9089597F99F6780E870E060E078
:1041700008959FEF80EC089500240A941616170600
:1041800018060906089500240A9412161306140648
:1041900005060895092E0394000C11F4882352F0AB
:1041A000BB0F40F4BF2B11F460FF04C06F5F7F4F63
:1041B0008F4F9F4F089557FD9058440F551F59F04A
:1041C0005F3F71F04795880F97FB991F61F09F3F04
:1041D00079F087950895121613061406551FF2CF2D
:1041E0004695F1DF08C0161617061806991FF1CF7D
:1041F00086957105610508940895E894BB276627A4
:104200007727CB0197F908950E9417210C94CA20B3
:104210000E94BC2038F00E94C32020F0952311F0AA
:104220000C94B3200C94B92011240C94FE200E940D
:10423000DB2070F3959FC1F3950F50E0551F629FEF
:10424000F001729FBB27F00DB11D639FAA27F00DEF
:10425000B11DAA1F649F6627B00DA11D661F829F16
:104260002227B00DA11D621F739FB00DA11D621FFB
:10427000839FA00D611D221F749F3327A00D611D18
:10428000231F849F600D211D822F762F6A2F1124FA
:104290009F5750409AF0F1F088234AF0EE0FFF1F2D
:1042A000BB1F661F771F881F91505040A9F79E3F84
:1042B000510580F00C94B3200C94FE205F3FE4F392
:1042C000983ED4F3869577956795B795F795E795DA
:1042D0009F5FC1F7FE2B880F911D9695879597F9E3
:1042E00008950E94E320E8F09E37E8F09639B8F48C
:1042F0009E3848F4672F782F8827985FF9CF8695E6
:104300007795679593959539D0F3B62FB1706B0F6C
:10431000711D811D20F487957795679593950C9471
:1043200095210C94B0210C94FE20882371F47723FE
:1043300021F09850872B762F07C0662311F4992718
:104340000DC09051862B70E060E02AF09A95660FC0
:10435000771F881FDAF7880F9695879597F9089544
:104360009F3F31F0915020F4879577956795B795E9
:10437000880F911D9695879597F90895991B79E077
:1043800004C0991F961708F0961B881F7A95C9F7E5
:1043900080950895AA1BBB1B51E107C0AA1FBB1F34
:1043A000A617B70710F0A61BB70B881F991F5A95C1
:1043B000A9F780959095BC01CD01089597FB072E34
:1043C00016F4009407D077FD09D00E94CA2107FC9B
:1043D00005D03EF4909581959F4F08957095619515
:1043E0007F4F0895EE0FFF1F0590F491E02D099483
:1043F00097FD1094002E083098F00850232F342F8A
:10440000452F562F672F782F892F912DF4CF159494
:1044100097958795779567955795479537952795FC
:104420000A95AAF71124002D08950024A7FD0094F1
:104430002A17300540055005600570058005900578
:1044400008950F931F93CF93DF938230910510F45B
:1044500082E090E0E091E82BF091E92B30E020E061
:10446000B0E0A0E0309799F42115310509F44AC075
:10447000281B390B24303105D8F58A819B816115C1
:10448000710589F1FB0182839383FE0111C0408194
:1044900051810281138148175907E0F048175907E5
:1044A00099F4109761F012960C93129713961C933F
:1044B0003296CF01DF91CF911F910F910895009314
:1044C000E82B1093E92BF4CF2115310551F0421759
:1044D000530738F0A901DB019A01BD01DF01F801A2
:1044E000C1CFEF01F9CF8093E82B9093E92BCDCF8B
:1044F000FE01E20FF31F819391932250310928832B
:104500003983D7CF2091E62B3091E72B232B41F431
:1045100020910C2830910D282093E62B3093E72B27
:1045200020910A2830910B282115310541F42DB72F
:104530003EB740910E2850910F28241B350BE09177
:10454000E62BF091E72BE217F307A0F42E1B3F0BAD
:104550002817390778F0AC014E5F5F4F24173507F5
:1045600048F04E0F5F1F4093E62B5093E72B81934B
:1045700091939FCFF0E0E0E09CCFCF93DF93009743
:10458000E9F0FC01329712821382A091E82BB091DE
:10459000E92BED0130E020E01097A1F4208131817A
:1045A000820F931F2091E62B3091E72B28173907B4
:1045B00009F061C0E093E62BF093E72BDF91CF91F8
:1045C0000895EA01CE17DF07E8F54A815B819E0175
:1045D00041155105B1F7E901EA83FB8349915991EE
:1045E000C40FD51FEC17FD0761F4808191810296FD
:1045F000840F951FE90188839983828193818A833F
:104600009B83F0E0E0E012968D919C9113970097C8
:10461000B9F52D913C911197CD010296820F931F10
:104620002091E62B3091E72B2817390739F6309780
:1046300051F51092E82B1092E92BA093E62BB09342
:10464000E72BBCCFC283D38340815181840F951F58
:10465000C817D90761F44E5F5F4F88819981480F71
:10466000591F408351838A819B81828393832115C3
:10467000310509F0B0CFE093E82BF093E92B9ECF02
:10468000FD01DC01C0CF12821382D7CFFB01DC0118
:1046900001900D920020E1F70895AEE0B0E0E3E56F
:1046A000F3E20C94FC250D891E8986E08C83098336
:1046B0001A838FEF9FE78D839E83AE01475E5F4F26
:1046C0006F89788DCE0101960E9470232F813885E5
:1046D000020F131FF80110822E96E4E00C941526A9
:1046E000ABE0B0E0E6E7F3E20C94EE257C013B01A1
:1046F0008A01FC0116821782838181FFC8C1CE0125
:1047000001965C01F7019381F30193FD859193FF7D
:1047100081913F01882309F453C1853239F493FD17
:10472000859193FF81913F01853229F4B70190E093
:104730000E946025E7CF912C212C312CFFE1F3154D
:1047400038F08B3211F190F4803209F1833229F183
:1047500037FC3CC020ED280F2A3050F536FE20C033
:104760008AE0989E200D1124922E06C08D3291F081
:10477000803371F7689430F8F30193FD859193FFCE
:1047800081913F018111DACF21C0689431F868949A
:1047900032F8F2CF689433F8EFCF689434F8ECCF66
:1047A000EAE02E9E200D1124222E689435F8E4CFE5
:1047B0008E3229F436FC04C1689436F8DDCF8C368D
:1047C00019F4689437F8D8CF8836B1F2982F9F7DC6
:1047D00095549330E0F08336A1F18337C1F18335EE
:1047E00009F063C02801F2E04F0E511CF801C080AF
:1047F000D180692D70E036FC02C06FEF7FEFC601FB
:104800000E944A254C01689437F882010AC00C5F67
:104810001F4FFFE3F98388248394912C6501E8946A
:1048200037F833FE2DC0522C8114910471F55520B8
:1048300009F468CFB70180E290E00E9460255A94A5
:10484000F6CFF801808189830E5F1F4FE4CF2801E6
:10485000F2E04F0E511CF801C080D180692D70E04C
:1048600036FC02C06FEF7FEFC6010E9455254C0158
:104870008201D5CFB70180E290E00E9460252A94A2
:104880002814190409F0B0F7CECFF60137FC859152
:1048900037FE81916F01B70190E00E9460255110B1
:1048A0005A94F1E08F1A9108BFCF843619F08936F7
:1048B00009F077C0F80137FE6BC060817181828199
:1048C00093810C5F1F4FF32DFF763F2E97FF09C09A
:1048D00090958095709561957F4F8F4F9F4F68940D
:1048E00037F82AE030E0A5010E949025C82ECA18AA
:1048F0008C2C432C36FE0CC0E89440F8C91440F4CC
:1049000034FE05C032FC03C0F32DFE7E4F2E892CF1
:1049100044FE95C0FE01EC0DF11D8081803309F04D
:1049200087C0242D297E422E842D8870582E43FC6A
:1049300095C040FE8FC09C2C821418F42C0C922C35
:10494000981844FE91C0B70180E390E00E94602572
:1049500042FE09C088E790E041FE02C088E590E091
:10496000B7010E946025C91408F48AC0CA94D12CEA
:104970009FEFC91AD90ACA0CDB1CF60182916F019C
:10498000B70190E00E946025AC14BD04B1F74FCF91
:1049900060817181072E000C880B990B0E5F1F4FF1
:1049A00092CFD32CE894D4F82AE030E0853739F15F
:1049B000232D297FD22E8F3601F148F48835A9F0B6
:1049C000F701868197812B96E2E10C9407268037C8
:1049D00049F08837A9F7D4FE02C06894D2F820E1E4
:1049E00030E00DC06894D4F8F6CF34FE03C0822FB7
:1049F0008660D82E20E132E002C028E030E0F801E5
:104A0000D7FE0FC060817181828193810C5F1F4F3F
:104A1000A5010E949025C82ECA183D2CE89437F8AD
:104A200067CF6081718190E080E00E5F1F4FF0CF13
:104A300042FC02C0839478CF8394839475CF842DF5
:104A4000867809F471CFF6CFB70180E290E00E943A
:104A5000602583948214C0F3512C73CF522C5818C4
:104A6000821408F46ECFF8CF842D867809F47BCFBA
:104A70008BE241FE80E247FC8DE2B70190E071CF0E
:104A8000B70180E390E00E9460259A946CCF8FEF8D
:104A90009FEF99CFFC010590615070400110D8F74D
:104AA000809590958E0F9F1F0895FC016150704076
:104AB00001900110D8F7809590958E0F9F1F089553
:104AC0000F931F93CF93DF93182F092FEB018B8147
:104AD00081FD09C01FEF0FEF812F902FDF91CF9144
:104AE0001F910F91089582FF14C02E813F818C8108
:104AF0009D81281739073CF4E881F981CF0101969F
:104B00008883998310838E819F8101968E839F83F2
:104B1000E3CFE885F985812F0995892BA1F3DACFB9
:104B2000FA01AA27283051F1203181F1E8946F93DE
:104B30006E7F6E5F7F4F8F4F9F4FAF4FB1E03ED084
:104B4000B4E03CD0670F781F891F9A1FA11D680F22
:104B5000791F8A1F911DA11D6A0F711D811D911D55
:104B6000A11D20D009F468943F912AE0269F1124CA
:104B70003019305D3193DEF6CF010895462F47702E
:104B8000405D4193B3E00FD0C9F7F6CF462F4F7089
:104B9000405D4A3318F0495D31FD4052419302D0E7
:104BA000A9F7EACFB4E0A69597958795779567958D
:104BB000BA95C9F700976105710508959B01AC018D
:104BC0000A2E06945795479537952795BA95C9F7B4
:104BD000620F731F841F951FA01D08952F923F928F
:104BE0004F925F926F927F928F929F92AF92BF92FD
:104BF000CF92DF92EF92FF920F931F93CF93DF93A9
:104C0000CDB7DEB7CA1BDB0BCDBFDEBF09942A8848
:104C1000398848885F846E847D848C849B84AA84D0
:104C2000B984C884DF80EE80FD800C811B81AA815D
:104C3000B981CE0FD11DCDBFDEBFED010895F8942F
:024C4000FFCFA4
:104C4200F4FFFBFF000007000C000000000008104A
:104C5200071001100510FB8E028F098F108F0101C2
:104C62000101010101010101010101000100010134
:104C7200000100010001010001000100000100012A
:104C8200000001000101000100010100000100011A
:104C920002030405060708090A0B000204050709B6
:104CA2000B000000000000020407090000000000E1
:104CB20000000002030507080B00000000000102CB
:104CC200030405060708090A0B0C0101020203048A
:104CD2000405050606070101020203030304040595
:104CE2000505010102030304040506060607178FE2
:104CF200198F1C8F1E8F218F238F258F288F2A8F2C
:104D0200008F2D8F308F1815A015C019FF1815A10F
:104D120015C819FF1815AE19FF1815AF19FF181588
:104D2200AE15D5168015A8163F15D31600154015D9
:104D32008D16141520160015A115C815DA161215B0
:104D42008116CF15D916F115DB1640152E15A415AF
:104D5200A619FF0001140A6464323200127A0000BC
:104D62000428961008000080004000050004000698
:104D720000030007000200090A11000108000000F8
:104D82000300010200000101000000000000000019
:104D920000000000000000050400050602040103F3
:104DA20000010001020302010002030405020305DF
:104DB20004020200050201050004010104040403C7
:104DC2000303030505030300000101201001204035
:104DD200041002080102010204080402010408107E
:104DE2002004082010001020300818283800000085
:104DF2000084075F07021035075807450736075535
:104E02000810080308FF07C607A7079F07D507CDA5
:104E1200070E0709070000000082080012D208A34B
:104E2200088308D6098509A212DC08260A200A4C42
:104E320012180A000000009A0DD90F02100110008A
:104E42000000004F11040E1A15F30D0000000002BD
:104E52001107109A14E70D00000000BC11DB0ECD03
:104E62000E051000000000511007107C13E30D49DD
:104E72004E54202020004558542020200025336421
:104E820020202000782564202020002F2564202067
:104E920020002532732564202020003A256420203A
:104EA20020002D2D2D2D2D20002532732020202095
:104EB200004F4646202020004F4E20202020007622
:104EC200312E3500202052485954484D20424F5827
:104ED200202020202020414E44202020202020205D
:104EE20020202020202053455155454E4345522035
:104EF2002020202020202573004348524F4D41009E
:104F02004D414A4F52200050454E544120004841E5
:104F1200524D4F4E004300432300440044230045BA
:104F22000046004623004700472300412300420079
:104F3200CC0C0024F400010000000000EA2B8000E9
:00000001FF
