:100000000C94F0030C9418040C9418040C94180429
:100010000C9418040C9418040C9418040C941804F0
:100020000C9418040C9418040C9418040C941804E0
:100030000C943F160C9418040C94A3160C945417AB
:100040000C9418040C9418040C9418040C941804C0
:100050000C9418040C9418040C9418040C941804B0
:100060000C9418040C9418040C9418040C941804A0
:100070000C9418040C9418040C9418040C94180490
:100080000C9418040C9418040C9418040C94180480
:100090000C9418040C9418040C9418040C94180470
:1000A000204C454E4754482020465245455A45204D
:1000B000205343414C452020204D494E20202020F4
:1000C000204B455920202020204D41582020202021
:1000D0002047415445202020204348414E474500B9
:1000E000204C454E47544820204E4F544520342044
:1000F000204E4F5445203120204E4F54452035206E
:10010000204E4F5445203220205350454544202056
:10011000204E4F5445203320204741544520200095
:10012000204C454E47544820204C454E47544820CB
:100130002042454154532020204245415453202021
:1001400020534849465420202053484946542020F3
:10015000204741544520202020474154452020007D
:1001600020434C4F434B2020204348414F532020F5
:100170002042504D20202020202020202020202000
:10018000204D554C542020202020202020202020AD
:10019000204449564944452020202020202020008A
:1001A0002054494D452020202020202020202020A0
:1001B000204555434C494445414E202020202020D5
:1001C00020352D5345512020202020202020202084
:1001D0002052414E444F4D2020202020202020003E
:1001E000A00160012001E000A000207E01020000CB
:1001F0000000000000000000000000000000F0000F
:100200000000000000003F00000000000000F0F0CF
:100210000000000000003F3F0000000000000080E0
:10022000F080F080000000043F043F040000F0F084
:10023000F0F0000000003F3F3F3F00000000F0F002
:10024000F0F0F00000003F3F3F3F3F000000F0F0C3
:10025000F0F0F0F000003F3F3F3F3F3F0000F0F084
:10026000F0F0F0F0F0003F3F3F3F3F3F3F00000025
:1002700080601008000000000F304080000000087F
:10028000106080000000008040300F0000000080FF
:1002900000C0008000000008051F050800000000E5
:1002A00000C0000000000002021F02020000000067
:1002B000000000000000000090700000000000003E
:1002C0000000000000000002020202020000000024
:1002D000000000000000000020702000000000006E
:1002E000008060180000C0300C0300000000C02037
:1002F000101020C000000F102020100F0000004040
:1003000020F0000000000020203F202000006010AE
:10031000101010E0000020302824232000001010CE
:1003200010905030000018202121211E00000000F4
:10033000C020F00000000C0B08083F080000F090FF
:1003400090909010000019202020201F0000C02055
:100350001010100000001F222121211E000010108B
:100360001010D030000000300C030000000060903E
:100370001010906000001C222121221C0000E010BF
:10038000101010E0000019222222110F00000000BE
:1003900080C0800000000000103910000000000044
:1003A00080800000000000004939000000000000CB
:1003B000008040200000000205081020000080801E
:1003C0008080808000000404040404040000F0E045
:1003D000C080000000007F3F1F0F07020000601078
:1003E0001010906000000000003700000000C020E6
:1003F000905050E000000F102728282F0000C02048
:10040000101020C000003F020202023F0000F01066
:100410001010A04000003F212121120C0000E0102C
:100420001010106000001F20202020180000F01085
:10043000101020C000003F202020100F0000F010FE
:100440001010101000003F21212120200000F0108A
:100450001010101000003F01010100000000E0102A
:100460001010106000001F202022123E0000F0003B
:10047000000000F000003F010101013F00000010FA
:1004800010F0101000000020203F2020000000008D
:100490000010F0100000182020201F000000F000C5
:1004A0008040201000003F01020408300000F000EE
:1004B0000000000000003F20202020200000F0600D
:1004C000808060F000003F000101003F0000F0C0AC
:1004D000000000F000003F0001020C3F0000E010AF
:1004E000101010E000001F202020201F0000F0103E
:1004F000101010E000003F02020202010000E010B4
:10050000101010E000001F242428709F0000F0103D
:10051000101010E000003F0202060A310000E01057
:1005200010101060000018212122221C0000101061
:1005300010F0101010000000003F00000000F0005C
:10054000000000F000001F202020201F0000F0000D
:10055000000000F00000000738380700000000F03D
:10056000000000F00000001F201C201F000030C011
:100570000000C0300000300C03030C30000000709D
:100580008000807000000000013E0100000010109B
:10059000109050300000302C22212020000000005C
:1005A000F808080800000000FF8080800000186044
:1005B0008000000000000000030C30C000000008B4
:1005C0000808F800000000808080FF000000201074
:1005D00008081020000000000000000000000000DB
:1005E000000000000000808080808080000000000B
:1005F0000810200000000000000000000000008043
:1006000080808000000019242424243F0000F00092
:100610008080800000003F112020201F000000800B
:100620008080800000001F2020202011000000801A
:10063000808000F000001F202020113F000000807B
:100640008080800000001F24242424170000000064
:10065000E0101020000001013F01010000000080B7
:100660008080008000006798A8A8A7400000F000E4
:100670008080800000003F010000003F000000007B
:1006800080B0000000000020203F2020000000007B
:10069000000080B0000000608080807F0000F000DB
:1006A0000000800000003F04060910200000000048
:1006B00010F0000000000020203F202000000080FB
:1006C000800080000000003F001F003F000080000D
:1006D0008080800000003F010000003F000000809B
:1006E0008080800000001F202020201F000080004C
:1006F000808080000000FF112020201F000000806B
:100700008080008000001F20202011FF000080005A
:100710008080800000003F01000000030000008096
:100720008080800000001122242428110000808095
:10073000F0808000000000001F20201000008000DA
:100740000000008000001F202020103F00000080DB
:1007500000000080000000030C300C03000000804B
:10076000000000800000001F201E201F00008000ED
:10077000000000800000310A04040A3100008000FB
:100780000000008000004F909090887F00008080E3
:1007900080808080000020302C222120000000007A
:1007A00000F0080800000000027D808000000000CA
:1007B00000F800000000000000FF0000000000083A
:1007C00008F0000000000080807D0200000030087A
:1007D000102040300000000000000000000022183F
:1007E00011241FBECFEFCDBFDFE3DEBF18E2A0E0D4
:1007F000B8E2ECECFEE402C005900D92AE30B10719
:10080000D9F72BE2AEE0B8E201C01D92A83EB207D4
:10081000E1F713E0C0EFD3E004C02197FE010E948E
:10082000BF21CF3ED107C9F70E94B0190C94EC2527
:100830000C94000080E00895CF93DF93CDB7DEB72E
:100840002897CDBFDEBFE0918529E150FF0BEE0F69
:10085000FF1FE55AF44D80819181DC01ED91FC91FF
:100860000190F081E02D40918429BE016F5F7F4FA0
:100870000995E0918429F0E0EF57F24780818F5F7E
:10088000FE013196A82FB0E0AD59B44D9E01295F0D
:100890003F4F91919D93E217F307D9F78093E32B94
:1008A0002896CDBFDEBFDF91CF9108951F93CF93E0
:1008B000DF93CDB7DEB72597CDBFDEBF1C8221E029
:1008C0002B8389839A83E091E029F091E1291189B2
:1008D0001D82A091E029B091E129E091E429F091F5
:1008E000E5299E012F5F3F4F50964C916FE080EEBF
:1008F00099E209958D818F5F8D83811750F325963D
:10090000CDBFDEBFDF91CF911F910895CF93DF93CD
:10091000E0918529E150FF0BEE0FFF1FE55AF44DE2
:10092000C081D181609184291816A4F4FE01E60FDC
:10093000F11D82899285891710F48F5F828BE8817F
:10094000F9810280F381E02D60918429CE01DF914D
:10095000CF910994882361F0FE01E60FF11D828991
:100960009281981760F79285981748F38150E6CFE7
:10097000E881F9810680F781E02DCE010995882371
:10098000F1F2E0918429EC0FFD2FF11D928981E0B5
:10099000891BD4CF9B01DC011896ED91FC9141E0BD
:1009A00067E10994282F30E0F901E75EF247E08122
:1009B000EE2309F1E13021F0F0F0E63098F00895EF
:1009C0004091010A2D5C3247F90120812C5F81E0C2
:1009D00090E001C0880F2A95EAF7809584238093E0
:1009E000010A089580E1E89FF0011124E05AF54FD3
:1009F00081818F7E81830895FF920F931F93CF9300
:100A0000DF93082F10E0F801E959F247F0809FEFDB
:100A1000F916A1F0EB018B3210F40E94D204F80118
:100A2000E35BF247E08180E2E89FF0011124FC5F84
:100A300080818F2179F0209739F4F682DF91CF9170
:100A40001F910F91FF900895229711F4F782F6CF2E
:100A5000F582F4CFD801AD5CB2478C91309771F03C
:100A60008F3F61F07096E80FF11D9FB7F894808179
:100A7000CD2B39F4877F80839FBFE0CFF0E0E0E0AB
:100A8000F4CF8860F8CF0F931F93CF938B32E8F4A5
:100A9000082F10E0F801E959F247C081CF3FA9F0D3
:100AA0000E94D204F801E35BF247E08180E2E89F14
:100AB000F0011124FC5F8085C82381E090E009F4F7
:100AC00080E0CF911F910F91089580E090E0F9CFE1
:100AD0008B3210F40C94FC040895CF93DF938B3287
:100AE000A0F490E0FC01E959F24720812F3F69F022
:100AF000FC01E35BF247E08130E2E39FF001112467
:100B0000FC5F6130710521F42183DF91CF9108955D
:100B10008D5C9247EC01A881AF3F69F0CF01409610
:100B2000A80FB92FB11D9FB7F89422838C918860CC
:100B30008C939FBFEACFB0E0A0E0F5CFCF93DF93D7
:100B40008FB7F89420918029309181294091822992
:100B500050918329E0918A0A9091860A90FF06C0FD
:100B60002F5F3F4F4F4F5F4FE0918A0A8FBFA09199
:100B70007E29B0917F29C0917C29D0917D290E9446
:100B8000571FEC9F9001ED9F300D1124620F731FD2
:100B9000811D911DDF91CF9108958F929F92AF9209
:100BA000BF92CF92DF92EF92FF924B015C010E94C5
:100BB0009E056B017C01A8EEB3E0A50194010E94A3
:100BC000571FC60ED71EE81EF91EC616D706E80622
:100BD000F90618F40E949E05F8CF0E949E056C1538
:100BE0007D058E059F05C8F3FF90EF90DF90CF90B5
:100BF000BF90AF909F908F9008952FB7F894609119
:100C000078297091792980917A2990917B292FBF39
:100C100008950C94000008950F9391E090935A2941
:100C20001092592960935729709358294093562957
:100C30002093552910925429109253290093522938
:100C4000880F8093512923E030E044E050E0809108
:100C50005629882341F020934F29309350298091C1
:100C600051298E7F0BC080915529882351F04093E4
:100C70004F29509350298091512981608093A70872
:100C800008C080915629811104C08091552988237C
:100C900011F3809159298823E1F3809159298330F8
:100CA000B1F280915529882321F0809153290F9129
:100CB000089580915929823031F0853031F08130AA
:100CC00031F480E0F4CF81E0F2CF83E0F0CF84E034
:100CD000EECFE0EAF8E091859066918722E030E07F
:100CE00020934F2930935029809341291092402915
:100CF000089581E0809340291092412993E09093D8
:100D0000AA089091AB0891FF10C010924D29E09174
:100D10003E29F0913F29099580934C2985E090E088
:100D200080934F2990935029089510924E298093D3
:100D30004B2986E090E0F4CF8F929F92AF92BF92C2
:100D4000CF92DF92EF92FF92CF93DF9360342DE04A
:100D5000720723E08207910508F454C0611525E36A
:100D600072072CE08207910508F445C060387F4483
:100D70008241910508F046C0C8E7D0E020E432E4A3
:100D80004FE050E08090002890900128A090022829
:100D9000B0900328C501B4010E946A1F69017A015D
:100DA0008AE0C81AD108E108F108C501B40120E4BD
:100DB00032E44FE050E00E946A1FDE010E94571F9C
:100DC00028EE33E040E050E00E946A1FC21AD30AC6
:100DD000E40AF50AF694E794D794C794C092A6085B
:100DE000DF91CF91FF90EF90DF90CF90BF90AF90C9
:100DF0009F908F900895CCE2D1E020E83AE146E060
:100E000050E0C0CFC8EED3E020EA36E841E050E041
:100E1000B9CF60933C2970933D29089560933A2996
:100E200070933B290895E0913C29F0913D2930973A
:100E300041F010923929109238290995809138296A
:100E4000089580E00895E0913A29F0913B29309788
:100E500059F03091372920913629321728F0109215
:100E6000372980933629099408950895E091372908
:100E700080913629E81730F4F0E0EA54F74D80818C
:100E800090E008958FEF9FEF08959091372980911A
:100E900036292FEF3FEF981748F4E92FF0E0EA5496
:100EA000F74D208130E09F5F90933729C901089565
:100EB0008091362990913729891B990B0895CF92FB
:100EC000DF92EF92FF920F931F93CF93DF937C01FA
:100ED0008A01EB016B01C40ED51ECC15DD0551F066
:100EE0006991D701ED91FC910190F081E02DC7014E
:100EF0000995F3CFC801DF91CF911F910F91FF901A
:100F0000EF90DF90CF9008952091382927FF08C0F7
:100F100021E030E0FC012283338390E080E00895FB
:100F200080913929E82FF0E0EA5CF74D60838F5F0C
:100F3000809339298093382981E090E00895DC017D
:100F4000ED91FC91008CF18DE02D61E009940F93FF
:100F500080914F29909150290197A1F480915A29AD
:100F6000811112C0062F20E04091382966E378E213
:100F7000809135280E940C06109239291092382948
:100F80000F91089580E0F8CF81E0F6CF6093352887
:100F900010923929109238290895DC01ED91FC91C5
:100FA000048CF58DE02D21E009940F9386EB98E2F7
:100FB000809342299093432980914F299091502901
:100FC0000197C9F480915A29811117C0FA0141385B
:100FD000510510F0E0E8F0E0022F862F2E2F40E0C0
:100FE00070E060E00E940C06109237298093362949
:100FF00090E00F91089580E0F7CF81E0F5CFCB012D
:10100000BA010C949C06E0EAF8E01382168281E0B3
:1010100085831486118610924F29109250290895C5
:1010200010923729109236291092392910923829B6
:1010300080914F2990915029892BD9F482E090E03A
:1010400080934F299093502910924E2910924D2948
:1010500010924029109241291092342810924B2965
:10106000660F6093AC0881EE8093A90881E08093BD
:10107000A30883E197E080933E2990933F2986E37C
:1010800098E2809344299093452983E297E08093E6
:10109000492990934A2986EB98E2809346299093B8
:1010A000472980E8809348290895109237291092A3
:1010B0003629109239291092382980914F29909120
:1010C0005029892BF1F48091E3058093E30581E0B9
:1010D00090E080934F2990935029109253291092B9
:1010E000542910925A291092592981EC8093A3080F
:1010F00060EA76E881E090E00E949C0681E08093BF
:10110000A50808950895EF92FF920F931F93CF9330
:10111000DF937C01EB018B01040F151FC017D10772
:1011200059F0D701ED91FC910480F581E02D6881A3
:10113000C70109958993F2CFDF91CF911F910F914C
:10114000FF90EF9008950F931F93CF93DF93EC01DF
:101150008B018091C008E881F9810480F581E02D40
:1011600086FD13C0612FCE010995182FE881F98102
:101170000480F581E02D602FCE010995082FC8016C
:10118000DF91CF911F910F910895CE010995082FFE
:10119000E881F9810480F581E02D612FCE01099568
:1011A000182FEDCF00006093C4088091C30887FF1B
:1011B000FCCF8091C40808958F929F92AF92BF9206
:1011C000CF92DF92EF92FF920F931F93CF93DF9313
:1011D000FC018085882319F081FF0EC07894DF918F
:1011E000CF911F910F91FF90EF90DF90CF90BF9024
:1011F000AF909F908F90089580FFF1CF8284938469
:10120000A484B584C12CD12C760110E09401A501F1
:10121000B601C701A0E00E94E22199F1217030E0FF
:1012200040E050E060E070E080E090E00E94E22169
:10123000D9F0D0E0C0E0103370F4C12FC695C69548
:10124000C69580E2C89FE0011124C05FDB4F812F6B
:101250008770C80FD11DCF01810F911DDC015296FF
:101260008C919881892B88839401A501B601C701CF
:1012700001E00E94C72149015A016B017C011F5FF7
:10128000C5CF86849784A088B188C12CD12C7601E3
:1012900010E29401A501B601C701A0E00E94E2217D
:1012A00009F49DCF217030E040E050E060E070E054
:1012B00080E090E00E94E221D9F0D0E0C0E010335D
:1012C00070F4C12FC695C695C695B0E2CB9FE001DC
:1012D0001124C05FDB4F812F8770C80FD11DCF0154
:1012E000810F911DDC0152968C919881892B888306
:1012F0009401A501B601C70101E00E94C72149017F
:101300005A016B017C011F5FC4CFFC016F3F710567
:1013100081F1808581FD2DC0603271055CF581E031
:1013200090E002C0880F991F6A95E2F7809590952A
:10133000092E000CAA0BBB0B42855385648575856D
:1013400084239523A623B72382879387A487B58711
:1013500082859385A485B585892B8A2B8B2B49F4AF
:1013600086859785A089B189892B8A2B8B2B09F4D7
:10137000108608956052710981E090E002C0880FE4
:10138000991F6A95E2F780959095092E000CAA0B9B
:10139000BB0B468557856089718984239523A623D5
:1013A000B72386879787A08BB18BD2CFFC016F3F85
:1013B0007105E9F1603371051CF082E080870895C2
:1013C00080858160808760327105C4F481E090E09F
:1013D00002C0880F991F6A95E2F7092E000CAA0B2C
:1013E000BB0B4285538564857585842B952BA62B75
:1013F000B72B82879387A487B587089560527109B8
:1014000081E090E002C0880F991F6A95E2F7092EEB
:10141000000CAA0BBB0B4685578560897189842B0C
:10142000952BA62BB72B86879787A08BB18B08951A
:10143000E0ECF8E020812E7F2083FC0117820895E4
:10144000E0ECF8E082818E7F82830895E0ECF8E0A2
:101450008281816082830895DC011A96ED91FC916E
:1014600030E020E00994DC011696ED91FC9130E02B
:1014700020E040E069E10994DC011696ED91FC91D1
:1014800030E020E040E068E109949A01DC01169622
:10149000ED91FC91462F67E10994EF92FF920F9333
:1014A0001F93CF93DF931F92CDB7DEB77C018B01E3
:1014B000D8016C91673129F150F46531A0F40F9097
:1014C000DF91CF911F910F91FF90EF9008956A31B6
:1014D00018F16E3FA1F7F8014181498369E2C70124
:1014E0000E942C0A0BC0F80141814983D70116964E
:1014F000ED91FC9130E020E0C70109950E5F1F4F90
:10150000D7CFF80181818983AE014F5F5F4F61E0E2
:10151000C7010E94450AF2CF0F5F1F4FD7011696F1
:10152000ED91FC9130E020E040E0C7010995C0CF8B
:10153000462FDC011696ED91FC9130E020E066E14B
:101540000994462FDC011696ED91FC9130E020E0E5
:1015500065E10994EF92FF920F931F93CF93DF936E
:10156000EC01042F79016D3009F446C050F46B3062
:10157000C9F1693009F49FC06A3009F465C080E0A0
:1015800046C06E3009F452C06F3099F70E943C0A91
:10159000F7011381110F110F110F6C89160F60E401
:1015A000CE010E94A10A612F62956F706061CE0129
:1015B0000E94A10A612F6F70CE010E94980AF70164
:1015C0006481606BCE010E94980AF70140815181CD
:1015D0006281660F660F660FCE010E94450A0150B8
:1015E000A1F72EC065EB7CE8442311F060EB7CE8AA
:1015F000CE010E944D0A0AC0411110C069EA7CE880
:101600000E944D0AE881F98182898C8B81E0DF910B
:10161000CF911F910F91FF90EF90089562EA7CE8BF
:101620000E944D0AE881F9818389EFCF0E943C0A2C
:1016300061E8CE010E94A10A602FCE010E94980AA3
:10164000CE010E94330AE2CFEA85FB8530E020E03C
:1016500040E068E2CE010995EE81FF8130E020E0B4
:1016600040E064E1CE01099541E06BE4CE010E94C7
:101670002C0AE881F981448169E2CE010E942C0A9A
:1016800040E06BE4CE010E942C0AE881F98144819C
:1016900069E2CE010E942C0A41E06BE4CE010E9477
:1016A0002C0AE881F981458169E2CE010E942C0A69
:1016B0006AEB7CE89DCF8FEE9CE8888399831C8A37
:1016C000A5CFDC011896ED91FC9130E020E040E0E0
:1016D00069E10994DC011896ED91FC9130E020E07D
:1016E00040E068E10994CF93DF931F92CDB7DEB756
:1016F0006983BE016F5F7F4F0E94CA040F90DF9124
:10170000CF910895EF92FF921F93CF93DF93EC0157
:10171000162F7A010E946A0B60E4CE010E94730BBF
:10172000E885F9859701412F67E1CE010995CE0142
:10173000DF91CF911F91FF90EF900C94610BEF928E
:10174000FF921F93CF93DF93EC01142F7901663141
:1017500081F138F4643109F44BC0653179F080E0EF
:1017600022C06831C9F150F16931C9F7809133283D
:10177000882391F1CE010E94610B2EC08091332805
:10178000882319F0CE010E94610BCE010E946A0BE2
:1017900060E0CE010E94730B612FCE010E94730B9B
:1017A00081E080933328DF91CF911F91FF90EF90DC
:1017B0000895642F0E94730B81E0F5CF8091332848
:1017C000882319F0CE010E94610BA701193138F46A
:1017D000612FCE010E94820B10923328EDCF68E179
:1017E000CE010E94820B185188E1E80EF11CEDCF6A
:1017F0008E898F3F11F488E78E8BE885F9859701F4
:10180000412F64E1CE01DF91CF911F91FF90EF90C6
:101810000994CF93DF93EC01A889B989FD01349134
:1018200031969491319684911396FD01A49163179A
:10183000A8F1961798F1631B770B8A9FE02D11246E
:10184000E69FC001E79F900D1124280F392F311D0D
:1018500083E0220F331F8A95E1F7C9010496DA016C
:10186000245F3F4FE889F989E80FF91FE491ED9370
:10187000019682179307B1F78D89882361F0FA01E9
:101880009A01285F3F4F8191DF01119780958C93DA
:101890002E173F07C1F7DF91CF910895FA01CA01D2
:1018A00008961192E817F907E1F7E6CF4F925F9299
:1018B0006F927F928F929F92AF92BF92CF92DF9260
:1018C000EF92FF920F931F93CF93DF93CDB7DEB7C5
:1018D0002D97CDBFDEBF7C01C62ED42EB22EDC01EB
:1018E00050968D919C91FC01329614913196049101
:1018F000512E560E040F81E0860F581608F411E0A1
:10190000712CFE0131964F0144244394672CAC2C7A
:10191000262DA4016B2DC7010E94090CAC86DD8623
:101920004B8689869A86D7011496ED91FC919E018B
:10193000275F3F4F41E06FE0C70109956394A3948F
:10194000A51430F3D394710ED01600F32D96CDBFAD
:10195000DEBFDF91CF911F910F91FF90EF90DF904D
:10196000CF90BF90AF909F908F907F906F905F903F
:101970004F900895262F482F42954F70440F682F9F
:101980006F7080EE99E20C94560CE0918429F0E09F
:10199000EF57F2476EE380810C94BA0CCF93DF933C
:1019A000EC01683189F130F4643199F0673151F01C
:1019B00080E005C06931B9F16032D1F781E0DF9193
:1019C000CF91089550E0B90186E899E20E945F073F
:1019D000F5CF8C859D85AE85BF85892B8A2B8B2B7A
:1019E00071F4E881F981A585B0E020EA36E841E0AC
:1019F00050E00E94571F6C877D878E879F8786E8FF
:101A000099E20E945508DACF6C857D858E859F8589
:101A10000E949C066E8970E07595679586E899E24C
:101A20000E94C607CBCF86E899E20E949F07C6CFE7
:101A30000F931F93CF93DF938C016C32C0F46A3203
:101A400008F040C0683269F1693209F44BC080E0A7
:101A50006034C8F16F73F801E60FF11D868D8F3F7A
:101A600089F1603108F058C0642F70E017C06D3202
:101A700009F43FC060F384EB860F823040F7C62F35
:101A8000CF73C00FD12FD11D8E8D61E070E0411159
:101A90003EC00E946D0570E060E08E8D0E9468057A
:101AA00011C0025E1F4FD0E0F80181918F018F3F7E
:101AB00031F061E070E0D03158F40E946D05DF5FD5
:101AC000D63191F781E0DF91CF911F910F91089569
:101AD0000E946D0561E070E0F801319780810E94FD
:101AE0006805EDCF642F70E090E080E00E94CD05A6
:101AF000E9CF85E090E0433010F082E090E0880F7D
:101B0000991F880F991F05970197F1F7DBCF0E9466
:101B10006D0561E070E0C1CF0E94430521E0892B93
:101B200009F420E0F801218FCDCF1F93CF93DF93ED
:101B3000EC01EC89FD8949AD6A3059F43396E491A2
:101B4000E40FE9AF18AE81E090E0DF91CF911F91F3
:101B50000895262F3296149168AD04960E94560C73
:101B6000E8ADE10FE8AFEFCFF0E0E0E06623C9F0C9
:101B7000262F2150330BF901F595E795DC0127E27B
:101B8000AD01481B590BE417F50714F02D93F8CF5E
:101B9000319660FF06C0DC01AE0FBF1F119724E233
:101BA0002C93E80FF91F20E2AF01481B590B473077
:101BB000510514F42193F8CF1082089581E061114A
:101BC00080E008952FEF260F253030F4FC01E60F5A
:101BD000F11D82898058828B80E00895653031F054
:101BE000663039F0643049F080E00895FC01178ACE
:101BF000FBCF2BE3FC01208FF7CF81E00895FC01A0
:101C0000653091F06630B1F0611119C08289DF0151
:101C1000A45ABF4F9C91981790F42689222311F063
:101C2000928B08958C930895808D9789891738F445
:101C3000878B08958789908D981708F4808F089571
:101C40002F923F924F925F927F928F929F92AF928C
:101C5000BF92CF92DF92EF92FF920F931F93CF9399
:101C6000DF937C01742EC62FD0E08E01000F111F70
:101C7000000F111F0E0D1F1DF8012289222331F1C3
:101C8000C388D12C822E912C84895401A81AB108C2
:101C900030E050E040E060915C2970915D298091D6
:101CA0005E2990915F290E946A1F6A0D7B1D6C9DC1
:101CB000C0016D9D900D7C9D900D1124B4010E947A
:101CC000AB21BB24B3948C159D050CF0B12C8091F5
:101CD0006929882309F1BB2069F0F80185898823E7
:101CE00049F061E070E0872D0E946805CE0DDF1D90
:101CF00081E08D8FDF91CF911F910F91FF90EF9039
:101D0000DF90CF90BF90AF909F908F907F905F902B
:101D10004F903F902F90089520906A2930906B2922
:101D200040906C2950906D2980916429909165298B
:101D3000A0916629B0916729281A390A4A0A5B0AD4
:101D4000F801A5892091602930916129409162298B
:101D500050916329B0E00E94571F29E030E040E035
:101D600050E00E946A1F221633064406550610F200
:101D7000BB2009F4BFCFCE0DDF1D8D8D882309F464
:101D8000B9CF70E060E0872D0E9468051D8EB2CF4C
:101D9000CF93DF93EC0141E060E00E94200E40E031
:101DA00061E0CE01DF91CF910C94200EE62FF0E0A0
:101DB0006370613061F018F0623081F00895E80FCF
:101DC000F91F83899289981740F4828B06C0E80F27
:101DD000F91F818992898917C0F30895E80FF91FC7
:101DE0008089F8CF80918529882361F080913228FD
:101DF000882319F080E00E94860481E080933228D5
:101E00000C941C040895909185299923E9F0913050
:101E100059F4909184299530B9F0913059F490910A
:101E20006829992339F00895943021F490918429F8
:101E3000943051F09091322891110E94860481E0F3
:101E4000809332280C941C0408951F93CF93DF9342
:101E5000CDB7DEB7C154D109CDBFDEBF182FE09199
:101E60008529A0918429B0E0AF57B2478C91EE2329
:101E700039F191E49E9FF0011124EA5EF54DDE01F7
:101E8000119601900D929A95E1F791E0980F492FE4
:101E900050E0DA01AD59B44D21E030E0F901E40F32
:101EA000F51F61E070E06C0F7D1FE60FF71F60818A
:101EB0006D932F5F3F4F2730310581F79093E32BD0
:101EC0001092322860E20E94BA0CE091852971E4F8
:101ED000E79FF0011124EA5EF54D6081809184292D
:101EE00090E0019611163CF0112351F08091842965
:101EF000860F8150990B70E00E94AB21809384295A
:101F0000CF5BDF4FCDBFDEBFDF91CF911F910C9430
:101F1000C50CCF92DF92EF92FF920F931F93CF9356
:101F2000DF936C01EB017B01E40EF51E10E000E095
:101F3000CE15DF0561F06991D601ED91FC9101901C
:101F4000F081E02DC6010995080F191FF1CFC801D6
:101F5000DF91CF911F910F91FF90EF90DF90CF9085
:101F60000895089590E080E0089580E00895089530
:101F70000895CF93DF93CDB7DEB7C154D109CDBF5C
:101F8000DEBF81E08093E32B10928429E0918529C4
:101F900081E4E89FF0011124EA5EF54D81E4DE0161
:101FA000119601900D928A95E1F7BE016E5F7F4F09
:101FB00083E69BE20E9413236EE380E0CF5BDF4F5A
:101FC000CDBFDEBFDF91CF910C94BA0CE091842994
:101FD000F0E0EF57F24760E280810E94BA0C8091F6
:101FE000852981110BC0809184298F5F8093852979
:101FF000109232280E94B90F0C94C50C10928529BA
:10200000F7CFCF93DF93EC01CB01423009F469C0E5
:1020100038F4442379F04130E1F1DF91CF91089514
:10202000433009F472C04430C1F76E89DF91CF911B
:102030000C94B40D2A89211124C06BE07EE80E9423
:102040001323109268292B8930E050E040E060ECC7
:1020500071EE84EE90E00E94381F20936029309347
:1020600061294093622950936329C3E1DDE870E060
:1020700060E089910E9468058DE8C831D807B9F7FA
:10208000CCCF62E17EE80E94132381E0809368292F
:10209000ECCF2B891F922F9329E13EE83F932F939A
:1020A0009F936F930E941A230F900F900F900F90A1
:1020B0000F900F90809168298111AFCF2B8930E06C
:1020C00050E040E060EC71EE84EE90E00E94381F3A
:1020D00020936029309361294093622950936329AA
:1020E0009CCF2C891F922F9320E23EE83F932F93A1
:1020F0009F936F930E941A2381E08D8B0F900F9016
:102100000F900F900F900F9088CF2D891F922F93D3
:1021100027E23EE83F932F939F936F930E941A23E9
:1021200081E08C8BEBCF9C01862F6CE00E948B2191
:102130001F928F93E92FF0E0EE0FFF1FE657F34752
:1021400081818F9380818F938EE29EE89F938F93FE
:102150003F932F930E941A238DB79EB708968DBF89
:102160009EBF0895CF93DF93EC01CB01463009F178
:10217000473089F1411134C02A891F922F9329E1F8
:102180003EE83F932F939F936F930E941A230F90E3
:102190000F900F900F900F900F908A89811106C0B9
:1021A00070E060E089E00E94FC041B8EDF91CF911B
:1021B0000895288D1F922F9327E33EE83F932F9396
:1021C0009F936F930E941A230F900F900F900F9080
:1021D0000F900F90EBCF698DDF91CF910C94B40DE0
:1021E000C40FD11D6A8967FF06C06EE37EE8DF91E8
:1021F000CF910C941323DF91CF910C949310CF9334
:10220000DF93EC01483048F5CB01E42FF0E0E55FC7
:10221000FE4E0C94BF211311611135114E11541152
:1022200030115F116A112A891F922F9329E13EE82C
:102230003F932F939F936F930E941A230F900F90B9
:102240000F900F900F900F908A89811106C070E057
:1022500060E08AE00E94FC041B8EDF91CF9108951C
:102260006F89DF91CF910C949310EC89F0E0EE0F21
:10227000FF1FE657F34721812F9320812F9325E4F9
:102280003EE83F932F939F936F930E941A230F90E2
:102290000F900F900F900F900F90DFCF6D89660F0A
:1022A000DF91CF910C94B40D2E896DE47EE822234A
:1022B00011F064E57EE8DF91CF910C941323688DD3
:1022C000D0CFEB89F0E0EE0FFF1FEE50F4476081B6
:1022D0007181F1CF698DE4CFFF920F931F93CF935C
:1022E000DF938C01D62FF72EC42FDC01ED91FC91EA
:1022F0000280F381E02D642F09958C2F8370F80103
:10230000EC0FF11D8330D1F462898D2F9F2D0E9437
:10231000B40D70E060E081E0C43008F080E00E941D
:10232000FC04EC2FE695E695E00FF12FF11D158EDC
:10233000DF91CF911F910F91FF90089582891F9295
:102340008F9389E19EE89F938F93FF92DF930E9482
:102350001A230F900F900F900F900F900F90D9CFDE
:102360000C948A22CF92DF92EF92FF920F93FC019E
:10237000C12CB9E0DB2EBDE3EB2EF12CC082D18263
:10238000E282F3821482158281E090E08683978353
:10239000C0900028D0900128E0900228F0900328F7
:1023A000F694E794D794C79490E04C155D056E05BC
:1023B0007F0540F4F694E794D794C7949F5F9630D6
:1023C000A1F797E004600187892F8095A82FA1705D
:1023D000B0E084E0AA0FBB1F8A95E1F791629A2BC7
:1023E00080E0232B09F480E4982B90870F91FF90D5
:1023F000EF90DF90CF9008950F931F93CF93DF93CB
:10240000CDB7DEB72A97CDBFDEBF8C01FC01878137
:1024100081110CC0108611861286138614861586CB
:1024200016861786108A118A81E087838091E305DA
:10243000F8019681892B8093E30561E070E0838148
:102440000E946D0561E070E0F80184810E946D05D5
:102450008091C10884608093C1088091C008816226
:102460008093C0084091D4295091D5296091D629F4
:102470007091D7290091D8292091DA293091DB2950
:10248000CE0101960E94B21199858A859093C00869
:102490008093C1082A96CDBFDEBFDF91CF911F91F7
:1024A0000F9108955F926F927F928F929F92AF9259
:1024B000BF92CF92DF92EF92FF920F931F93CF9331
:1024C000DF93CDB7DEB76297CDBFDEBF3C010B8790
:1024D0001C872D873E87042F4F87588B698B7A8BFB
:1024E00029893A894B855C856D857E85CE0101966B
:1024F0000E94B21119855A84D30118968C918823B1
:1025000019F081FF18C0F8941093C0085092C108C8
:102510006296CDBFDEBFDF91CF911F910F91FF90EB
:10252000EF90DF90CF90BF90AF909F908F907F9073
:102530006F905F90089580FFE7CFF30182849384CA
:10254000A484B584C12CD12C7601B0E09401A501FE
:10255000B601C701A0E00E94E221A9F1217030E09C
:1025600040E050E060E070E080E090E00E94E22116
:10257000E9F090E080E0B03370F48B2F869586957B
:102580008695F0E28F9FC0011124805F9B4F2B2F17
:102590002770820F911DFC01408193012B0F311D8B
:1025A000F901428BFC012081287F20839401A50141
:1025B000B601C70101E00E94C72149015A016B0120
:1025C0007C01BF5FC3CFD3011E968D909D90AD90CF
:1025D000BC905197C12CD12C7601B0E29401A50199
:1025E000B601C701A0E00E94E22109F48DCF21705D
:1025F00030E040E050E060E070E080E090E00E9479
:10260000E221E9F090E080E0B03370F48B2F869502
:1026100086958695E0E28E9FC0011124805F9B4FD6
:102620002B2F2770820F911DFC01408193012B0FEE
:10263000311DF901428BFC012081287F2083940108
:10264000A501B601C70101E00E94C72149015A0155
:102650006B017C01BF5FC2CF8F929F92AF92BF92FE
:10266000CF92DF92EF92FF921F93CF93DF93EC0113
:10267000C0906029D0906129E0906229F090632990
:102680001C89212F30E050E040E0C701B6010E94D4
:102690006A1F2C8F3D8F4E8F5F8F80916A2990919A
:1026A0006B29A0916C29B0916D29609169296623ED
:1026B00009F447C088A399A3AAA3BBA38091682962
:1026C000882349F060EC71EE84EE90E0A70196015A
:1026D0000E946A1F2B8B2D8930E050E040E0609112
:1026E0005C2970915D2980915E2990915F290E94FB
:1026F0006A1F672B682B692BC1F40E94D91ECE88F4
:10270000D12CF12CE12C2AE030E040E050E00E9496
:10271000381F6C157D058E059F053CF461E070E067
:1027200081E10E94FC0481E08B8FDF91CF911F91AA
:10273000FF90EF90DF90CF90BF90AF909F908F90E1
:102740000895C0906429D0906529E0906629F090A2
:1027500067294C015D018C189D08AE08BF08750102
:10276000640168E9C6166AE3D606E104F10450F094
:102770006B8D662339F070E060E081E10E94FC041B
:102780001B8ED3CF123088F2C8A0D9A0EAA0FBA03C
:102790008C199D09AE09BF0982179307A407B507D5
:1027A00060F12CA121113AC00E94D91ECE88D12CF3
:1027B000F12CE12C2AE030E040E050E00E94381F8C
:1027C0006C157D058E059F053CF461E070E081E1AC
:1027D0000E94FC0481E08CA388A199A1AAA1BBA1BD
:1027E0004C8D5D8D6E8D7F8D840F951FA61FB71F3D
:1027F00088A399A3AAA3BBA398CF88399A43A1051C
:10280000B10508F492CF8CA1882309F48ECF70E033
:1028100060E081E10E94FC041CA287CF88399A43C2
:10282000A105B10508F481CFF2CFCF92DF92EF92EC
:10283000FF920F931F93CF93DF93EC010A8900233C
:1028400009F45FC0288D30E050E040E060915C29E1
:1028500070915D2980915E2990915F290E946A1F85
:1028600069017A01672B682B692B09F04AC08091B6
:102870006929882309F44EC0202F30E050E040E061
:10288000C701B6010E946A1F6F5F7F4F8E01060F5E
:10289000171FF801828987FD3DC061E070E089E083
:1028A0000E94FC04F801628970E090E080E00E94E0
:1028B000452020E030EF4FE755E40E94D12020E092
:1028C00030E04CE652E40E949B1F0E943E210E9491
:1028D0000D208B0170E060E088E00E94FC04612F15
:1028E000606382E999E20E94D208602F82E999E24E
:1028F0000E94D20861E070E088E00E94FC0481E060
:102900008B8FDF91CF911F910F91FF90EF90DF9010
:10291000CF9008958B8D8823A1F3C0906A29D09021
:102920006B29E0906C29F0906D2980916429909139
:102930006529A0916629B0916729C81AD90AEA0ABF
:10294000FB0AA98D2091602930916129409162296B
:1029500050916329B0E00E94571F2AE030E040E028
:1029600050E00E946A1FC216D306E406F50648F23C
:1029700070E060E089E00E94FC041B8EC2CF2F92C1
:102980003F924F925F926F927F928F929F92AF92FF
:10299000BF92CF92DF92EF92FF920F931F93CF934C
:1029A000DF93CDB7DEB72C97CDBFDEBFDC015296EB
:1029B0002C915297222309F40EC18C018091692930
:1029C000882309F421C130E050E040E060915C29A7
:1029D00070915D2980915E2990915F290E946A1F04
:1029E000F80126895801A60EB71E211172C034883D
:1029F0008789845F83198388912C4CE0489D9001DE
:102A0000499D300D1124F901E65AF3472384642FC0
:102A10000E948B21F82EA92FB0E0AB87BC87D8018C
:102A200058968C91845F83190E948B21492F50E026
:102A3000BF01640F751FDB014C90829D400C112477
:102A400026503447420F531FDA018C91481A512CFB
:102A5000712C612CAB85BC85EA0FFB1FC080F29CFA
:102A6000C00C1124A20FB31F8C91C81AD12CF12CC9
:102A7000E12CC414D504E604F7048CF44C185D086A
:102A80006E087F0841F00E94D91EA30192010E94A6
:102A9000381F2B013C01C40CD51CE61CF71C8C2DE7
:102AA00090E0622D70E00E94AB219C01B4EF3B0EE0
:102AB0009CE0989DF001999DF00D1124E65DF3478F
:102AC000E20FF31F8081380E969F300C1124F50120
:102AD000348ED5015C968C91F8019789891708F49A
:102AE0007AC0908D891708F076C061E070E08AE0C6
:102AF0000E94FC04D5015C968C91F801968999237B
:102B0000D9F1E82EF12CFCE3EF0EF11C8AE0ECED9C
:102B1000FBE8DE01119601900D928A95E1F70E9483
:102B2000D91ED80159968C90912CB12CA12C2AE059
:102B300030E040E050E00E94381F681579058A05B2
:102B40009B050CF05EC00E94D91E25E030E040E0FD
:102B500050E00E94381F660F771FE1E0F0E0EC0FB5
:102B6000FD1F6E0F7F1FDB018D919C918E0D9F1DB0
:102B70006CE370E00E94AB21682F70E090E080E091
:102B80000E94452020E030EF4FE755E40E94D1201D
:102B900020E030E04CE652E40E949B1F0E943E2160
:102BA0000E940D207B0170E060E088E00E94FC0440
:102BB0006F2D606B82E999E20E94D2086E2D82E946
:102BC00099E20E94D20861E070E088E00E94FC0473
:102BD00081E0F801838F2C96CDBFDEBFDF91CF91CE
:102BE0001F910F91FF90EF90DF90CF90BF90AF902B
:102BF0009F908F907F906F905F904F903F902F901D
:102C0000089590E080E0B2CF5B968C91882319F311
:102C1000C0906A29D0906B29E0906C29F0906D29C2
:102C20008091642990916529A0916629B0916729C6
:102C3000C81AD90AEA0AFB0AF801A5892091602975
:102C4000309161294091622950916329B0E00E943E
:102C5000571F23E096958795779567952A95D1F725
:102C6000C616D706E806F90608F4B5CF70E060E0AE
:102C70008AE00E94FC04D8015B961C92ACCF1F92A4
:102C80000F920FB60F9211242F933F934F935F93A0
:102C90006F937F938F939F93AF93BF9340917829C6
:102CA0005091792960917A2970917B2980917629B8
:102CB000909177292091742930917529420F531FE3
:102CC000611D711D2091722930917329820F931F0C
:102CD000883E23E0920730F0885E93404F5F5F4F5D
:102CE0006F4F7F4F8093762990937729409378296F
:102CF0005093792960937A2970937B298091802958
:102D000090918129A0918229B09183290196A11DDA
:102D1000B11D8093802990938129A0938229B0933B
:102D2000832981E08093860ABF91AF919F918F9113
:102D30007F916F915F914F913F912F910F900FBEB7
:102D40000F901F9018951F920F920FB60F9211249B
:102D50002F933F934F935F936F937F938F939F93A3
:102D6000AF93BF93CF93EF93FF93C091AB08C2FF94
:102D70000AC010924E2910924D2910924C2984E0DD
:102D80000E94690614C0C6FF2FC080914B29813074
:102D900051F480914E29E0914929F0914A2990E01F
:102DA000099510924B29C0FF14C00E947906FF912B
:102DB000EF91CF91BF91AF919F918F917F916F9143
:102DC0005F914F913F912F910F900FBE0F901F90E9
:102DD000189580E48093AB0881E00E946906809199
:102DE000AB0885FFE4CFE1CFC7FF5CC0C3FF08C0DD
:102DF00010924E2910924D2910924C2983E0C0CF99
:102E00008091A90880668093A9088091AB0881FF12
:102E10002CC080914D29882349F08091AB0884FF14
:102E200005C082E08093AA0881E0AACF90914D2945
:102E300080914C299817A8F4E0914D29809144295C
:102E400090914529E80FF92FF11D80818093AD08FD
:102E500080914D298F5F80934D2983E08093AA084C
:102E6000A6CF82E08093AA088BCF90914E298091C3
:102E70004829981790F48091AD08E0914E2920914F
:102E8000462930914729E20FF32FF11D808380916D
:102E90004E298F5F80934E29E0CF86E08093AA0869
:102EA00082E06ECF85E06CCF1F920F920FB60F922B
:102EB00011242F933F938F939F93EF93FF938091D0
:102EC000A508982F9C70E1F08091A50894E082FFFE
:102ED00093E0909359298093A50881E090E0809336
:102EE0004F299093502910925A29FF91EF919F9169
:102EF0008F913F912F910F900FBE0F901F901895BB
:102F000086FF4EC020915629909155298091A508A1
:102F100084FF15C080915229882379F083E0809343
:102F2000A40885E08093592910925A2981E090E005
:102F300080934F2990935029D8CF81E0F0CF809192
:102F40005429821790F4E091542980915729909147
:102F50005829E80FF92FF11D80818093A8088091EE
:102F600054298F5F80935429C0CF809153298917AA
:102F700060F484E090E080934F29909350298091F1
:102F8000512981608093A708B0CF8091522988236E
:102F900029F083E08093A40881E0C4CF81E0FACFD8
:102FA00087FF40C090915329809155299817D8F4F4
:102FB0008091A808E091532920914229309143291A
:102FC000E20FF32FF11D8083809153298F5F80934F
:102FD000532990915529809153298917D8F482E07B
:102FE0008093A40882CF80915229882389F087E0BA
:102FF0008093A40882E08093592910925A2981E095
:1030000090E080934F2990935029109255296DCFCD
:1030100085E0EECF80915229882311F087E0BACF66
:1030200085E0B8CF86E07ECFFC012AEE3BE8219315
:1030300031930A9620E1119227831786E817F90742
:10304000D1F70895FF920F931F93CF93DF931092C0
:1030500088291092892988EE93E0A0E0B0E080935F
:103060008A2990938B29A0938C29B0938D298DE880
:103070009DE8809386299093872980E099E0ADE3CD
:10308000B0E08093D4299093D529A093D629B0930A
:10309000D7291092D8291092D92981E090E0809305
:1030A000DA299093DB2985EB9DE880939229909310
:1030B00093291092992982E0809398298CE080933B
:1030C00094298DE0809396298BE08093952988E060
:1030D000809397291092DE291092DF291092142AEA
:1030E0001092152A83ED9DE88093DC299093DD29C9
:1030F0001092E0291092E1291092F5291092F829F6
:103100001092EC291092ED291092EE291092EF29DD
:103110008FEF8093F6298093FA29EEEFF9E2CFEF53
:10312000C1932AE2E431F207D9F78AEA9AE0809360
:10313000E4299093E5298FE99BE08093E629909319
:10314000E7298EEC9CE08093E8299093E92988E1B7
:103150009DE08093EA299093EB2930E020E040E065
:1031600069E080EE99E20E94AA0AC093092AC093FE
:103170000A2AC0930B2AE3EAFBE280E281939BE2F6
:10318000E23EF907D9F71092E22B85E290E00E9427
:10319000EE21EC010E94141883E09EE88883998355
:1031A0001A8A88E78B8B11E01C8B1D8B1A821A8779
:1031B0008EE18B831C831D8380EF8B8704E00C875B
:1031C0000D871CA21E828AE08E878E8BC0935B2B9C
:1031D000D0935C2B8FE190E00E94EE21EC010E94E5
:1031E000141887EF9DE88883998380E18A8B0B8B85
:1031F0000D8B1D8398E0F92EFD868E8B0F8B82E060
:10320000888F098F1987F98AC0935D2BD0935E2B25
:103210008CE190E00E94EE21EC010E9414188BEEEC
:103220009DE888839983FA8E85E08A871A8AFE0151
:103230003396CE0109960BE3119207838E179F07F1
:10324000D9F71B8A8CE08C8B88E18D8B84E28E8B86
:1032500080E38F8B11E01887188F80E1888B1987A6
:1032600089E0898B85E0F82EF98EC0935F2BD0938F
:10327000602B8DE590E00E94EE21EC010E94141875
:103280008FED9DE8888399831A8A80E48A871F8A54
:103290000F878BE08C871D83FD8684E08D8B1E87D6
:1032A000088F088B83E08B8719868AE0898B198EBB
:1032B000FE017C96CE01845A9F4F1192E817F907C0
:1032C000E1F71082C093612BD093622B1092172AE2
:1032D0001092182A8EE3E9E1FAE2DF01282F1D920D
:1032E0002A95E9F794E09093162A1092582A1092A2
:1032F000592AEAE5FAE2DF01282F1D922A95E9F71B
:1033000095E09093572A1092992A10929A2AEBE905
:10331000FAE2DF01282F1D922A95E9F798E09093B1
:10332000982A1092DA2A1092DB2AECEDFAE2DF01F9
:10333000282F1D922A95E9F79093D92A10921B2BDA
:1033400010921C2BEDE1FBE2DF011D928A95E9F75B
:1033500090931A2BDF91CF911F910F91FF900895B9
:10336000CF93DF93CDB7DEB72897CDBFDEBF88ED13
:1033700090E084BF9093610080E094E2A4EFB0E01D
:103380008093002890930128A0930228B0930328EB
:10339000809102068660809302068091000681601B
:1033A00080930006809102068F7C809302068091B4
:1033B000A0008F788093A0008091020680618093A6
:1033C00002061092E20581E08093E40583E0809399
:1033D000010A8FEF90E08093260A9093270A80E8F5
:1033E00090E08093380A9093390A80933A0A909338
:1033F0003B0A80933C0A90933D0A8BE08093000A3D
:103400008091E50581608093E5058091E505826006
:103410008093E505E0E8FAE037E02FEF90E885E0FB
:1034200031832487958780837096E03C4AE0F407D7
:10343000B9F780E094E080937E2990937F29809172
:103440007E2990917F292FEF30E0B9010E949721CA
:1034500060937C2970937D2980917E2990917F29AA
:10346000E8EEF3E0BF010E94972160937429709306
:10347000752980917E2990917F29BF010E94972113
:10348000809372299093732920938C0A30938D0A2C
:103490008091850A81608093850A84E08093800A08
:1034A0008091800A81608093800A789482E999E211
:1034B0000E94FC111092852910928429109268298B
:1034C00010925B2910925C2910925D2910925E295E
:1034D00010925F2988E498EEA1E0B0E08093602923
:1034E00090936129A0936229B09363290E949E055D
:1034F0006093642970936529809366299093672966
:10350000E091E429F091E52930E020E040E06AE034
:1035100080EE99E20995CE01019628E0DC011D922A
:103520002A95E9F70E945604E091E429F091E529F3
:1035300030E020E040E06BE080EE99E209958AEE11
:1035400091E08093F0299093F12930EEE32E31E061
:10355000F32E10E000E0F70165917491C801895ED7
:10356000954D0E94311FB2E0EB0EF11C0F5B1F4F17
:103570000534E1E01E0779F78BE59EE89F938F9372
:1035800080E69EE89F938F9383EA9BE29F938F93BD
:103590000E941A2323EAE22E2BE2F22E0F900F90C4
:1035A0000F900F900F900F9010E0D7016D917D015B
:1035B000812F0E94BA0C1F5F1F33B9F703E11DE88A
:1035C0007801F701D1907F0161E070E08D2D0E94BC
:1035D0006D0570E060E08D2D0E946805F9E1EF1641
:1035E000FDE8FF0671F793E1E92E9DE8F92E61E011
:1035F00070E0D7018D917D010E94680564EF71E054
:1036000080E090E00E94CD05B8E1EB16BDE8FB0636
:1036100071F770E060E0F80181918F010E94680508
:10362000FDE808311F07A9F70E94B90F0E94C50CD9
:10363000EFE0EE2EEDE8FE2EFBE0AF2EFDE8BF2E14
:10364000A7E0CA2EADE8DA2EB3E16B2EBDE87B2EE3
:103650001EE6812E19E2912E08EE402E03E0502E38
:103660008AEF282E312C80E390E00E94EE218C011D
:10367000D7019C91B2E0EB0EF11CF5012081F2E044
:10368000AF0EB11CD6018C91B2E0CB0ED11C37E04D
:10369000F801338343E0448335831682A1E0A78396
:1036A000B2E3B08741865286238634861586168615
:1036B0001786108A118E128E138E148E158E168E0A
:1036C000178E10A211A212A213A214A215A216A262
:1036D00017A210A611A612A613A614A615A616A622
:1036E00017A680832183928362E070E00E946D05BB
:1036F00062E070E0D80111968C910E946D0562E045
:1037000070E0F80182810E946D05D4010D931D9334
:103710004D016E147F0409F0A6CFE0916E29F0915F
:103720006F2985E29FE0848F958F86EE9FE082A3CC
:1037300093A389E096E080A791A7E0917029F0918A
:10374000712983E09FE0848F958F82EF9EE082A3B2
:1037500093A373E0272E312C412C512C77247394A2
:10376000662463946EE6A62E69E2B62EF5010191F9
:1037700011915F010E94FD05D8011D96CD90DD904D
:10378000ED90FC905097AB01BC014C195D096E099E
:103790007F0917968C9190E0B0E0A0E04817590798
:1037A0006A077B0708F491C00E94FD05F801658750
:1037B00076878787908B8680912C82810E94430533
:1037C0006C01D8018C910E9443057C01F801818134
:1037D0000E944305C824D924CC0CDD1CCC0CDD1C74
:1037E000EE0CFF1CE82AEC28D8011396EC921397F4
:1037F00014969C9114972E2D2927237009F42EC11D
:10380000B4E09B9F900111249E2D9370922BF801A0
:1038100094839B3409F01CC13FEF318FF8019581EF
:10382000F12CF594E794F594E794E926E0FE1EC1A7
:103830000E94FD05D8015196CD90DD90ED90FC9051
:103840005497AB01BC014C195D096E097F091896AC
:103850008C9190E0B0E0A0E084179507A607B70729
:1038600070F4F801858180FDFCC075820E94FD0521
:10387000D80151966D937D938D939C935497D80165
:1038800015968C911597833009F45DC108F0F6C048
:10389000882309F42BC1813009F45CC1F801818DC2
:1038A000928D81110BC2911101C0138ED8015B96CC
:1038B0008C915B9781111AC25A968C915A978330DA
:1038C00009F46FC1843009F475C1E2E7F9E2EA1541
:1038D000FB0509F04BCF8091E32B8034C9F0E82F32
:1038E000F0E0ED59F44D803408F0A3C19F01235658
:1038F0003B42619141E0480F97AD691709F497C1C8
:103900008093E32BF901ED55F44D60830E94BA0CCE
:103910000E949E05AB01BC0140936A2950936B291C
:1039200060936C2970936D291092692980916829A0
:10393000882309F487C1F5E0F09306067092080623
:1039400080910B0680FFFCCF2FB7F8949091100662
:10395000809111062FBF89279827892720915B29FD
:10396000893E93400CF068C1211159C060925B29D7
:1039700080915C2990915D29A0915E29B0915F2989
:103980000196A11DB11D80935C2990935D29A093A0
:103990005E29B0935F2960926929C0906A29D0900E
:1039A0006B29E0906C29F0906D29609160297091ED
:1039B00061298091622990916329660F771F881F82
:1039C000991F0091642910916529209166293091F1
:1039D0006729601B710B820B930B6C0D7D1D8E1D77
:1039E0009F1DA20191010E946A1F209360293093BC
:1039F00061294093622950936329C0926429D0922F
:103A00006529E0926629F0926729809185298130A5
:103A100031F480918429813011F40E941C040BE55B
:103A20001BE2D8018D919D918D01DC01ED91FC91FE
:103A30000480F581E02D0995BBE203361B0789F769
:103A4000E0E0F0E0EF2B09F48DCE0E94000086CE7E
:103A5000973811F4718EE2CE118EE0CE59961C92F9
:103A6000DDCEE6E0D8011596EC9300CF0E94FD056F
:103A7000F801618B728B838B948B01CF8430D1F1F1
:103A8000863009F00BCFE4E01596EC931597F3E040
:103A90005A96FC935A9794968D919C91892BE1F0BC
:103AA0000E94FD05D8015596CD90DD90ED90FC90DB
:103AB0005897AB01BC014C195D096E097F091B9633
:103AC0008D919C91B0E0A0E0481759076A077B07E9
:103AD00018F434E0F801328F0E94FD05D8015596A4
:103AE0006D937D938D939C935897D8CE37E0F801D2
:103AF000328FD4CE5A968C9184508230C8F40E9472
:103B0000FD05F801C588D688E788F08CAB01BC01BB
:103B10004C195D096E097F0981859285B0E0A0E0AE
:103B200084179507A607B70718F4158236E0E0CF8B
:103B3000D8015A968C915A97E5E0833009F0AECEC1
:103B40005A96EC93ABCEE7E01596EC9315975A9600
:103B50001C92A4CEE3E01596EC9315975A969C918F
:103B60005A979650923018F45A968C9397CEE2E07A
:103B7000E7CFE5E0D8015B96EC935B975C96ED911F
:103B8000FC91309709F4AFC0099590CE963008F4B7
:103B90008DCEE7E05B96EC935B979096ED91FC9170
:103BA000F0CF32E0F801338F02A0F3A1E02D30977F
:103BB00041F48BCEE3E05B96EC935B979496ED91AA
:103BC000FC91099582CEF801738E06A0F7A1E02D35
:103BD000EECF843071F4D8015A968C915A97813087
:103BE00009F073CE5B968C935B979A96ED91FC915E
:103BF000DECF863059F4F801828D8150823008F092
:103C000064CE738E04A4F5A5E02DD1CF873009F0E2
:103C10005CCED8015A968C915A97813009F055CED6
:103C20005B968C935B979E96ED91FC91C0CF842F11
:103C30005ACE8093E32B6CCE222309F4F0CE10925F
:103C40005B29EDCE8091642990916529A091662928
:103C5000B091672900916029109161292091622912
:103C600030916329481B590B6A0B7B0B4017510796
:103C70006207730708F4D3CE800F911FA21FB31FF2
:103C80008093642990936529A0936629B09367294E
:103C900080915C2990915D29A0915E29B0915F2966
:103CA0000196A11DB11D80935C2990935D29A0937D
:103CB0005E29B0935F2960926929B1CE992309F4F6
:103CC00058CF2CEF290F223038F0D8015B962C9179
:103CD0005B97263009F05ACF36E0F801338F068C17
:103CE000F78DE02D4ECFD8015B968C919EEF980F0B
:103CF000923008F06ECFD8015A968C915A97823044
:103D000009F461CF863009F0E0CDE4E05B96EC93F6
:103D10005B979896ED91FC914ACF8F929F92AF92CC
:103D2000BF92CF92DF92EF92FF92CF93DF93EC019D
:103D3000688179818A819B81611571058105910571
:103D400021F464E279ED8BE597E02DE133EF41E07A
:103D500050E00E94381F49015A019B01AC01A7EABB
:103D6000B1E40E94571F6B017C01ACEEB4EFA501DA
:103D700094010E94651FC60ED71EE81EF91EF7FEAD
:103D800006C081E0C81AD108E10880E8F80AC882B4
:103D9000D982EA82FB82C701B6019F77DF91CF917A
:103DA000FF90EF90DF90CF90BF90AF909F908F905B
:103DB00008958F929F92AF92BF92CF92DF92EF922F
:103DC000FF926091042870910528809106289091B7
:103DD0000728611571058105910521F464E279EDEB
:103DE0008BE597E02DE133EF41E050E00E94381F72
:103DF00049015A019B01AC01A7EAB1E40E94571F97
:103E00006B017C01ACEEB4EFA50194010E94651F2B
:103E1000C60ED71EE81EF91EF7FE06C081E0C81ABE
:103E2000D108E10880E8F80AC0920428D092052859
:103E3000E0920628F0920728C701B6019F77FF900D
:103E4000EF90DF90CF90BF90AF909F908F900895AC
:103E50006093042870930528809306289093072880
:103E60000895FB01DC0105900D920020E1F7089513
:103E7000052E97FB1EF400940E944F1F57FD07D09C
:103E80000E946A1F07FC03D04EF40C944F1F5095FC
:103E90004095309521953F4F4F4F5F4F0895909536
:103EA0008095709561957F4F8F4F9F4F08950E9429
:103EB0008C1FA59F900DB49F900DA49F800D911D08
:103EC00011240895B7FF0C94571F0E94571F821B9F
:103ED000930B0895A1E21A2EAA1BBB1BFD010DC076
:103EE000AA1FBB1FEE1FFF1FA217B307E407F507AA
:103EF00020F0A21BB30BE40BF50B661F771F881F86
:103F0000991F1A9469F760957095809590959B011B
:103F1000AC01BD01CF010895A29FB001B39FC001C4
:103F2000A39F700D811D1124911DB29F700D811DE5
:103F30001124911D08950E94AF1F0C9497200E9498
:103F4000902058F00E94892040F029F45F3F29F02A
:103F50000C94802051110C94CB200C9486200E944C
:103F6000A82068F39923B1F3552391F3951B550BC2
:103F7000BB27AA2762177307840738F09F5F5F4F3C
:103F8000220F331F441FAA1FA9F335D00E2E3AF07B
:103F9000E0E832D091505040E695001CCAF72BD093
:103FA000FE2F29D0660F771F881FBB1F26173707E4
:103FB0004807AB07B0E809F0BB0B802DBF01FF2716
:103FC00093585F4F3AF09E3F510578F00C94802053
:103FD0000C94CB205F3FE4F3983ED4F3869577951D
:103FE0006795B795F7959F5FC9F7880F911D9695CF
:103FF000879597F90895E1E0660F771F881FBB1F2B
:10400000621773078407BA0720F0621B730B840BD7
:10401000BA0BEE1F88F7E09508950E94142068946B
:10402000B1110C94CB2008950E94B02088F09F57C6
:1040300098F0B92F9927B751B0F0E1F0660F771FCC
:10404000881F991F1AF0BA95C9F714C0B13091F0C2
:104050000E94CA20B1E008950C94CA20672F782FDF
:104060008827B85F39F0B93FCCF386957795679587
:10407000B395D9F73EF490958095709561957F4FF3
:104080008F4F9F4F0895E89409C097FB3EF4909599
:104090008095709561957F4F8F4F9F4F9923A9F021
:1040A000F92F96E9BB279395F695879577956795B0
:1040B000B795F111F8CFFAF4BB0F11F460FF1BC0F4
:1040C0006F5F7F4F8F4F9F4F16C0882311F096E987
:1040D00011C0772321F09EE8872F762F05C0662335
:1040E00071F096E8862F70E060E02AF09A95660FEE
:1040F000771F881FDAF7880F9695879597F90895A7
:1041000097F99F6780E870E060E008959FEF80EC8A
:10411000089500240A94161617061806090608952D
:1041200000240A9412161306140605060895092E93
:104130000394000C11F4882352F0BB0F40F4BF2B02
:1041400011F460FF04C06F5F7F4F8F4F9F4F089542
:1041500057FD9058440F551F59F05F3F71F0479538
:10416000880F97FB991F61F09F3F79F0879508951D
:10417000121613061406551FF2CF4695F1DF08C03C
:10418000161617061806991FF1CF86957105610559
:1041900008940895E894BB2766277727CB0197F901
:1041A00008950E94E4200C9497200E94892038F002
:1041B0000E94902020F0952311F00C9480200C9404
:1041C000862011240C94CB200E94A82070F3959F88
:1041D000C1F3950F50E0551F629FF001729FBB27FE
:1041E000F00DB11D639FAA27F00DB11DAA1F649F9A
:1041F0006627B00DA11D661F829F2227B00DA11D4D
:10420000621F739FB00DA11D621F839FA00D611DD2
:10421000221F749F3327A00D611D231F849F600DF3
:10422000211D822F762F6A2F11249F5750409AF01C
:10423000F1F088234AF0EE0FFF1FBB1F661F771FA8
:10424000881F91505040A9F79E3F510580F00C9473
:1042500080200C94CB205F3FE4F3983ED4F3869506
:1042600077956795B795F795E7959F5FC1F7FE2B13
:10427000880F911D9695879597F908950E94B02013
:10428000E8F09E37E8F09639B8F49E3848F4672F86
:10429000782F8827985FF9CF8695779567959395BE
:1042A0009539D0F3B62FB1706B0F711D811D20F4BD
:1042B00087957795679593950C9462210C947D2151
:1042C0000C94CB20882371F4772321F09850872B0E
:1042D000762F07C0662311F499270DC09051862BC5
:1042E00070E060E02AF09A95660F771F881FDAF772
:1042F000880F9695879597F908959F3F31F09150D3
:1043000020F4879577956795B795880F911D9695B9
:10431000879597F90895991B79E004C0991F96171E
:1043200008F0961B881F7A95C9F780950895AA1BF7
:10433000BB1B51E107C0AA1FBB1FA617B70710F090
:10434000A61BB70B881F991F5A95A9F780959095C2
:10435000BC01CD01089597FB072E16F4009407D0F9
:1043600077FD09D00E94972107FC05D03EF4909577
:1043700081959F4F0895709561957F4F0895EE0F39
:10438000FF1F0590F491E02D099497FD1094002EE5
:10439000083098F00850232F342F452F562F672FC1
:1043A000782F892F912DF4CF159497958795779530
:1043B000679557954795379527950A95AAF711243C
:1043C000002D08950024A7FD00942A17300540050C
:1043D0005005600570058005900508950F931F93A3
:1043E000CF93DF938230910510F482E090E0E0916A
:1043F000E62BF091E72B30E020E0B0E0A0E0309732
:1044000099F42115310509F44AC0281B390B2430D1
:104410003105D8F58A819B816115710589F1FB0110
:1044200082839383FE0111C04081518102811381F7
:1044300048175907E0F04817590799F4109761F0A9
:1044400012960C93129713961C933296CF01DF911C
:10445000CF911F910F9108950093E62B1093E72BB6
:10446000F4CF2115310551F04217530738F0A90157
:10447000DB019A01BD01DF01F801C1CFEF01F9CFE6
:104480008093E62B9093E72BCDCFFE01E20FF31F35
:10449000819391932250310928833983D7CF20917A
:1044A000E42B3091E52B232B41F420910A28309105
:1044B0000B282093E42B3093E52B20910828309192
:1044C00009282115310541F42DB73EB740910C283C
:1044D00050910D28241B350BE091E42BF091E52B36
:1044E000E217F307A0F42E1B3F0B2817390778F0CB
:1044F000AC014E5F5F4F2417350748F04E0F5F1F2A
:104500004093E42B5093E52B819391939FCFF0E060
:10451000E0E09CCFCF93DF930097E9F0FC01329766
:1045200012821382A091E62BB091E72BED0130E0CF
:1045300020E01097A1F420813181820F931F2091F8
:10454000E42B3091E52B2817390709F061C0E0937F
:10455000E42BF093E52BDF91CF910895EA01CE177C
:10456000DF07E8F54A815B819E0141155105B1F7EE
:10457000E901EA83FB8349915991C40FD51FEC17D8
:10458000FD0761F4808191810296840F951FE901F6
:1045900088839983828193818A839B83F0E0E0E022
:1045A00012968D919C9113970097B9F52D913C919E
:1045B0001197CD010296820F931F2091E42B309129
:1045C000E52B2817390739F6309751F51092E62B6D
:1045D0001092E72BA093E42BB093E52BBCCFC283C2
:1045E000D38340815181840F951FC817D90761F487
:1045F0004E5F5F4F88819981480F591F40835183D7
:104600008A819B81828393832115310509F0B0CF84
:10461000E093E62BF093E72B9ECFFD01DC01C0CFAA
:1046200012821382D7CFFB01DC0101900D92002092
:10463000E1F70895AEE0B0E0E0E2F3E20C94C925C2
:104640000D891E8986E08C8309831A838FEF9FE78B
:104650008D839E83AE01475E5F4F6F89788DCE015B
:1046600001960E943D232F813885020F131FF80108
:1046700010822E96E4E00C94E225ABE0B0E0E3E497
:10468000F3E20C94BB257C013B018A01FC011682FC
:104690001782838181FFC8C1CE0101965C01F701B9
:1046A0009381F30193FD859193FF81913F018823CD
:1046B00009F453C1853239F493FD859193FF8191BB
:1046C0003F01853229F4B70190E00E942D25E7CF04
:1046D000912C212C312CFFE1F31538F08B3211F1A4
:1046E00090F4803209F1833229F137FC3CC020ED8F
:1046F000280F2A3050F536FE20C08AE0989E200D03
:104700001124922E06C08D3291F0803371F7689497
:1047100030F8F30193FD859193FF81913F01811161
:10472000DACF21C0689431F8689432F8F2CF6894F7
:1047300033F8EFCF689434F8ECCFEAE02E9E200DEA
:104740001124222E689435F8E4CF8E3229F436FCF9
:1047500004C1689436F8DDCF8C3619F4689437F8C4
:10476000D8CF8836B1F2982F9F7D95549330E0F0E2
:104770008336A1F18337C1F1833509F063C0280185
:10478000F2E04F0E511CF801C080D180692D70E01D
:1047900036FC02C06FEF7FEFC6010E9417254C0167
:1047A000689437F882010AC00C5F1F4FFFE3F9835A
:1047B00088248394912C6501E89437F833FE2DC04A
:1047C000522C8114910471F5552009F468CFB7017A
:1047D00080E290E00E942D255A94F6CFF801808166
:1047E00089830E5F1F4FE4CF2801F2E04F0E511C6A
:1047F000F801C080D180692D70E036FC02C06FEFF7
:104800007FEFC6010E9422254C018201D5CFB7015E
:1048100080E290E00E942D252A942814190409F0C2
:10482000B0F7CECFF60137FC859137FE81916F014D
:10483000B70190E00E942D2551105A94F1E08F1A93
:104840009108BFCF843619F0893609F077C0F80196
:1048500037FE6BC060817181828193810C5F1F4F35
:10486000F32DFF763F2E97FF09C0909580957095A8
:1048700061957F4F8F4F9F4F689437F82AE030E063
:10488000A5010E945D25C82ECA188C2C432C36FE2B
:104890000CC0E89440F8C91440F434FE05C032FC62
:1048A00003C0F32DFE7E4F2E892C44FE95C0FE01E1
:1048B000EC0DF11D8081803309F087C0242D297E05
:1048C000422E842D8870582E43FC95C040FE8FC028
:1048D0009C2C821418F42C0C922C981844FE91C035
:1048E000B70180E390E00E942D2542FE09C088E7D1
:1048F00090E041FE02C088E590E0B7010E942D25BE
:10490000C91408F48AC0CA94D12C9FEFC91AD90AD5
:10491000CA0CDB1CF60182916F01B70190E00E9486
:104920002D25AC14BD04B1F74FCF60817181072EE6
:10493000000C880B990B0E5F1F4F92CFD32CE8947D
:10494000D4F82AE030E0853739F1232D297FD22EA3
:104950008F3601F148F48835A9F0F70186819781F7
:104960002B96E2E10C94D425803749F08837A9F7DB
:10497000D4FE02C06894D2F820E130E00DC0689403
:10498000D4F8F6CF34FE03C0822F8660D82E20E103
:1049900032E002C028E030E0F801D7FE0FC06081AD
:1049A0007181828193810C5F1F4FA5010E945D255B
:1049B000C82ECA183D2CE89437F867CF6081718102
:1049C00090E080E00E5F1F4FF0CF42FC02C0839466
:1049D00078CF8394839475CF842D867809F471CF32
:1049E000F6CFB70180E290E00E942D2583948214D7
:1049F000C0F3512C73CF522C5818821408F46ECF88
:104A0000F8CF842D867809F47BCF8BE241FE80E2DB
:104A100047FC8DE2B70190E071CFB70180E390E0F1
:104A20000E942D259A946CCF8FEF9FEF99CFFC01B8
:104A30000590615070400110D8F7809590958E0FC9
:104A40009F1F0895FC016150704001900110D8F73C
:104A5000809590958E0F9F1F08950F931F93CF936E
:104A6000DF93182F092FEB018B8181FD09C01FEF08
:104A70000FEF812F902FDF91CF911F910F9108950C
:104A800082FF14C02E813F818C819D8128173907B8
:104A90003CF4E881F981CF010196888399831083E2
:104AA0008E819F8101968E839F83E3CFE885F98570
:104AB000812F0995892BA1F3DACFFA01AA27283093
:104AC00051F1203181F1E8946F936E7F6E5F7F4FDB
:104AD0008F4F9F4FAF4FB1E03ED0B4E03CD0670F57
:104AE000781F891F9A1FA11D680F791F8A1F911DAA
:104AF000A11D6A0F711D811D911DA11D20D009F4FA
:104B000068943F912AE0269F11243019305D31933B
:104B1000DEF6CF010895462F4770405D4193B3E024
:104B20000FD0C9F7F6CF462F4F70405D4A3318F0CB
:104B3000495D31FD4052419302D0A9F7EACFB4E07C
:104B4000A6959795879577956795BA95C9F7009734
:104B50006105710508959B01AC010A2E06945795D5
:104B6000479537952795BA95C9F7620F731F841F2C
:104B7000951FA01D08952F923F924F925F926F92C2
:104B80007F928F929F92AF92BF92CF92DF92EF92DD
:104B9000FF920F931F93CF93DF93CDB7DEB7CA1B5E
:104BA000DB0BCDBFDEBF09942A88398848885F8433
:104BB0006E847D848C849B84AA84B984C884DF80BD
:104BC000EE80FD800C811B81AA81B981CE0FD11DA1
:0C4BD000CDBFDEBFED010895F894FFCFCB
:104BDC00F4FFFBFF000007000C0000000000B80F02
:104BEC00B70FB10FB50F958E9C8EA38EAA8E0101B7
:104BFC00010101010101010101010100010001019B
:104C0C000001000100010100010001000001000190
:104C1C000000010001010001000101000001000180
:104C2C0002030405060708090A0B0002040507091C
:104C3C000B00000000000002040709000000000047
:104C4C0000000002030507080B0000000000010231
:104C5C00030405060708090A0B0C010102020304F0
:104C6C0004050506060701010202030303040405FB
:104C7C000505010102030304040506060607B18EAF
:104C8C00B38EB68EB88EBB8EBD8EBF8EC28EC48ECA
:104C9C009A8EC78ECA8E1815A015C019FF1815A1AB
:104CAC0015C819FF1815AE19FF1815AF19FF1815EF
:104CBC00AE15D5168015A8163F15D3160015401540
:104CCC008D16141520160015A115C815DA16121517
:104CDC008116CF15D916F115DB1640152E15A41516
:104CEC00A619FF0001140A6464323200127A000023
:104CFC0004289610080000800040000500040006FF
:104D0C0000030007000200090A110001080000005E
:104D1C00030001020000010100000000000000007F
:104D2C000000000000000005040005060204010359
:104D3C000001000102030201000203040502030545
:104D4C00040202000502010500040101040404032D
:104D5C00030303050503030000010120100120409B
:104D6C0004100208010201020408040201040810E4
:104D7C0020040820100010203008182838000000EB
:104D8C000084075F07B20F350758074507360755EC
:104D9C000810080308FF07C607A7079F07D507CD0C
:104DAC00070E070907000000008208B011D208A303
:104DBC00088308D60985095212DC08260A200AFC49
:104DCC0011180A00000000950D890FB20FB10F00E9
:104DDC00000000FF10FF0DBF14EE0D00000000B22C
:104DEC0010B70F1514E20D000000006C11D60EC8A0
:104DFC000EB50F000000000110B70F2C13DE0D498B
:104E0C004E54202020004558542020200025336487
:104E1C0020202000782564202020002F25642020CD
:104E2C0020002532732564202020003A25642020A0
:104E3C0020002D2D2D2D2D200025327320202020FB
:104E4C00004F4646202020004F4E20202020007688
:104E5C00312E3400202052485954484D20424F588E
:104E6C00202020202020414E4420202020202020C3
:104E7C0020202020202053455155454E434552209B
:104E8C002020202020202573004348524F4D410004
:104E9C004D414A4F52200050454E5441200048414C
:104EAC00524D4F4E00430043230044004423004521
:104EBC0000460046230047004723004123004200E0
:0E4ECC000024F400010000000000E82B80002C
:00000001FF
